:02000002D0002C
:1040000000400D0094570D00000006000C00050153
:084010000401E80500000000B6
:04401800A0530D00A4
:10401C0009480A49884208B505D0094A824202D0AB
:10402C00121A01F073F90748074A0021121A01F01D
:10403C0078F9014808BD00BF70E3032004570D0058
:10404C00D8E30320D8E30320F0E7032070B500F099
:10405C0079FF074C074BE41AA40800251E46A5421D
:10406C0004D056F8253098470135F8E770BD00BFED
:10407C00F8560D00C0560D0000F014B808B500F04D
:10408C002FF8BDE8084000F01FBF00F045BA00F063
:10409C0043BA0078B0FA80F04009704701230370EE
:1040AC007047000008B50C48002319461A464068B2
:1040BC0000F002FA00F086FE4FF4E13100F076FEDB
:1040CC0000F086FF054900F0D5FA00F081FFBDE84D
:1040DC00084000F0D3BA00BF20E70320A0860100FF
:1040EC0013B5A52302228DF8003008238DF801307A
:1040FC008DF8042041234E228DF802308DF80520D6
:10410C00002320228DF806208DF803308DF807301F
:10411C001A461DF803100133072B0A44F9D18DF808
:10412C00072000F055FF742100F0E3FA002400F0A2
:10413C004FFF03681DF804109B6801349847082C46
:10414C00F5D100F045FF00F0DBFA642000F0ECF94B
:10415C0000F03EFF1F22742100F0C4FA00F038FF7B
:10416C0003681B6998471F2825D1044600F030FFCF
:10417C0003685B699847013CF8D100F023FE1149B4
:10418C0000F0C4FC00F01EFE0A221F21044600F0C1
:10419C00D0FC204600F0C1FC00F014FE0A4900F0EF
:1041AC00B5FC00F00FFE0A2204461C2100F0C1FCF5
:1041BC00204600F0B2FC4FF47A7002B0BDE810401B
:1041CC0000F0B2B9B4530D00C9530D0000F038B86B
:1041DC0008B5024B1B689B68019308BD480203009D
:1041EC0008B5024B1B681B69019308BD480203000C
:1041FC0008B5024B1B685B69019308BD48020300BC
:10420C0008B5024B1B685B6C019308BD48020300A8
:10421C0008B5024B1B689B6C019308BD4802030058
:10422C0008B5024B1B685B68019308BD18020300BC
:10423C0008B5024B1B685B69019308BD18020300AB
:10424C0008B5024B1B681B68019308BD2C020300C8
:10425C0008B5024B1B681B68019308BD28020300BC
:10426C0008B5024B1B68DB68019308BD28020300EC
:10427C0008B5024B1B689B69019308BD280203001B
:10428C0008B5024B1B68DB69019308BD28020300CB
:10429C0008B5024B1B681B6A019308BD280203007A
:1042AC0008B5024B1B685B6A019308BD280203002A
:1042BC0008B5024B1B689B6A019308BD28020300DA
:1042CC0008B5024B1B68DB6A019308BD280203008A
:1042DC0008B5024B1B681B6B019308BD2802030039
:1042EC0008B5024B1B681B6C019308BD2802030028
:1042FC0008B5024B1B681B6D019308BD2802030017
:10430C0008B5024B1B685B69019308BD640203008E
:10431C0008B5024B1B689B68019308BD680203003B
:10432C0008B5024B1B68DB68019308BD68020300EB
:10433C0008B5024B1B681B68019308BD3C020300C7
:10434C0008B5024B1B68DB68019308BD3C020300F7
:10435C0008B5024B1B681B69019308BD3C020300A6
:10436C0008B5024B1B685B69019308BD3C02030056
:10437C0008B5024B1B689B69019308BD3C02030006
:10438C0008B5024B1B68DB69019308BD3C020300B6
:10439C0008B5024B1B689B6A019308BD3C020300E5
:1043AC0008B5024B1B681B68019308BD4C02030047
:1043BC0008B5024B1B685B68019308BD4C020300F7
:1043CC0008B5024B1B681B69019308BD4C02030026
:1043DC0008B5024B1B685B69019308BD4C020300D6
:1043EC0008B5024B1B689B69019308BD4C02030086
:1043FC0008B5024B1B68DB69019308BD4C02030036
:10440C0008B5024B1B681B6A019308BD4C020300E4
:10441C0008B5024B1B685B68019308BD20020300C2
:10442C0008B5024B1B685B69019308BD20020300B1
:10443C0008B5034B1B68D3F88830019308BD000006
:10444C002002030008B5034B1B68D3F8943001938A
:10445C0008BD00002002030008B5024B1B68DB6B93
:10446C00019308BD4402030008B5024B1B685B684E
:10447C00019308BD4002030008B5024B1B689B6802
:10448C00019308BD4002030008B5024B1B68DB68B2
:10449C00019308BD4002030008B5024B1B681B6961
:1044AC00019308BD4002030008B5024B1B685B6911
:1044BC00019308BD4002030008B5024B1B689B69C1
:1044CC00019308BD4002030008B5024B1B68DB6971
:1044DC00019308BD4002030008B5024B1B681B6A20
:1044EC00019308BD4002030008B5024B1B681B6B0F
:1044FC00019308BD4002030008B5024B1B685B6BBF
:10450C00019308BD4002030008B5024B1B681B68F1
:10451C00019308BD1C02030008B5024B1B685B68C5
:10452C00019308BD1C0203000021FFF779BF10B5F1
:10453C000446006808B1FFF76BFE204610BD000072
:10454C0010B5064C002320462360FFF759FE204689
:10455C00034A0449BDE8104000F060BDDCE30320D1
:10456C00D8E303203B450D0010B58368044613B116
:10457C00032201469847204610BD00221146406890
:10458C00FFF7AABF002211464068FFF7B5BF002213
:10459C004068FFF7A9BF002281F001014068FFF7D6
:1045AC0093BF00231A4619464068FFF785BF0023C6
:1045BC001A4619464068FFF777BF0022114640683B
:1045CC00FFF76ABF002211464068FFF755BF002273
:1045DC0002214068FFF758BF00231A464068FFF7D6
:1045EC0043BF0000024B03225A60024A1A60704714
:1045FC00E0E30320E4530D007047F8B5064615467A
:10460C000C468F18BC4206D0336814F8011B9B680B
:10461C0030469847F6E72846F8BD0022007CFFF7A5
:10462C0037BE0021007CFFF73BBE0021007CFFF76A
:10463C003FBE0021007CFFF743BE0021007CFFF74A
:10464C0047BE10B51421044600F0EDFC204610BD09
:10465C0010B50446002363604FF47A73A360044BD7
:10466C002174084623601146FFF73AFE204610BD20
:10467C0018540D000022007CFFF7EABD00231A46F7
:10468C001946007CFFF7ECBD70B50C4686B01425BE
:10469C0006462A46002101A800F043FE23788DF837
:1046AC00083063680393E36804930022237A307C18
:1046BC00ADF8045001A90593FFF71AFE06B070BDC2
:1046CC001FB500338DF800104FF06401039118BF33
:1046DC000123694601928DF80830FFF7D5FF05B02C
:1046EC005DF804FB0123FFF7EBBF0022007CFFF712
:1046FC00BFBDC9B2FFF7F9BF0022007CFFF7C0BDF8
:10470C000121FFF7F9BF704710B51821044600F0DE
:10471C008AFC204610BDF0B5037D062B8DB00E46ED
:10472C0000F104074FF0000402D000F1080518E076
:10473C000CAD394605F8304D2F232A460A20FFF7D9
:10474C00DFFD284600F01EFE33680246DB68294672
:10475C00304698470FE024B12E21304600F0DAF9AC
:10476C00044415F8011D0A22304600F0E2F9BD425E
:10477C000444F0D120460DB0F0BD000010B5054B3F
:10478C000446112240F8043B002100F0CAFD2046EB
:10479C0010BD00BF40540D000346074A10B543F846
:1047AC00042B01F1100251F8044B43F8044B9142D5
:1047BC00F9D10A781A7010BD40540D0010B59DF84F
:1047CC00084044EA032343EA024242EA016104231B
:1047DC004160037510BD37B50D788B784A78C97870
:1047EC0000912946FFF7EAFF03B030BD014B024AA6
:1047FC001A607047E8E30320BF540D0000221146F5
:10480C004068FFF769BE002211464068FFF774BE8E
:10481C0000224068FFF768BE002281F00101406869
:10482C00FFF752BE00231A4601214068FFF744BE31
:10483C0000231A4619464068FFF736BE002211467F
:10484C004068FFF729BE002211464068FFF714BEEE
:10485C00002202214068FFF717BE00231A46406869
:10486C00FFF702BE38B5054688B104684CB1A368A1
:10487C001BB103222146204698471021204600F008
:10488C00D2FB28461421BDE8384000F0CCBB38BD23
:10489C0010B103685B681847704710B5036804468D
:1048AC00BBB15868FFF794FC78B923685A7C12B9ED
:1048BC005868FFF795FC23685868FFF799FC206847
:1048CC000023236028B1FFF7CDFF206808B1FFF764
:1048DC00C9FF204610BD38B50446D0F8C40108B154
:1048EC00FFF7D5FBD4F8C00108B1FFF791FCD4F861
:1048FC00BC5135B12846FFF7D0FF0421284600F003
:10490C0092FB206808B1FFF7C3FF204638BD0000BA
:10491C0010B5044B044640F8083BFFF7DCFF20467B
:10492C0010BD00BF38550D0038B50E4C0E4B236032
:10493C000025022304F5E4706360A560C4F8C4513B
:10494C00C4F8C851FFF75CFC084BC4F8CC5184F890
:10495C00D05123602046064A0649BDE8384000F095
:10496C005DBB00BFECE303206C550D0038550D000A
:10497C00D8E303201D490D0000231A464068FFF7B9
:10498C0073BD002202214068FFF77EBD0022114654
:10499C004068FFF771BD002211464068FFF77CBDEF
:1049AC0000231A4619464068FFF77EBD00231A46BD
:1049BC0019464068FFF780BD002281F00101406874
:1049CC00FFF782BD00224068FFF78EBD0022114622
:1049DC004068FFF791BD002211464068FFF77CBD8F
:1049EC002DE9F043002495B016460D460746FFF717
:1049FC00C5FE214620220CA8009400F092FC402316
:104A0C000C9321466B460CAA3046FFF789FC0446F2
:104A1C00002844D1024601216868FFF73DFD0221C0
:104A2C00804622466868FFF737FD009E8146214686
:104A3C00002E34D0002932D17368022B02D00A2BFD
:104A4C0009D02AE0B8F1000F27D07169384604313B
:104A5C00FFF7C1FE20E0B9F1000F1ED074691122DE
:104A6C0001A800F05EFC06238DF8143001AD04F1B2
:104A7C0008031834186859682A4603C20833A3423D
:104A8C001546F7D101A906A807ADFFF785FE0FCD96
:104A9C003C1D0FC42B6823700121F669C8E70098F0
:104AAC00FFF736FC384615B0BDE8F083024B034ADD
:104ABC001A6000225A607047C0E503206C550D0047
:104ACC00F8B506460D468F180024BD420CD033684D
:104ADC0015F8011B9B6830469847002801DB0444FD
:104AEC00F3E7002C08BF04462046F8BD70B5054618
:104AFC000C46084649B100F045FC2B68024621469D
:104B0C002846DB68BDE87040184770BD08B5FFF754
:104B1C00EDFF08BD03689B68184738B50D210546A5
:104B2C00FFF7F8FF0A2104462846FFF7F3FF20445D
:104B3C0038BD30B58BB00B4600218DF82410012AFE
:104B4C0098BF0A220DF12304B3FBF2F505FB1233D7
:104B5C0003F0FF03092B94BF30333733DBB221460C
:104B6C0004F801392B46002DEED1FFF7BFFF0BB037
:104B7C0030BD10B50446FFF7F7FC204610BD000011
:104B8C000348044A04490023836000F047BA00BF7D
:104B9C00C8E50320D8E303207F4B0D0010B5044675
:104BAC00006818B1FFF7B8FC0023236010BD10B5E6
:104BBC000446FFF7F3FF204610BD000010B5094C6A
:104BCC0000204FF6FF732060A080A07120816381CC
:104BDC00FFF71EFC2046044A0449BDE8104000F0D3
:104BEC001DBA00BFD8E50320D8E30320BB4B0D0052
:104BFC00024B1A68024B1A60704700BF70E3032027
:104C0C00E4E5032070474174704708B5007CFFF75A
:104C1C00BFFB20EAE07008BD08B5007CFFF798FBED
:104C2C0020EAE07008BD08B5007CFFF7A1FB30EA74
:104C3C00200028BF4FF0FF3008BD08B5007CFFF7FF
:104C4C008FFB30EA200028BF4FF0FF3008BD007CFE
:104C5C00FFF796BB10B51421044600F0E4F920468A
:104C6C0010BD70B5457C04460E4625B9007CFFF797
:104C7C008FFB002805DD3146207CBDE87040FFF736
:104C8C005FBB284670BD000010B5044608461146AF
:104C9C00002262604FF47A72A260054A22600122FF
:104CAC00207462741A46FFF743FB204610BD00BF08
:104CBC00CC550D0038B50C4D296811F0010411D1FB
:104CCC002846FFF7E6F968B1084A094B094821461E
:104CDC00FFF7DAFF2846FFF7E1F9074A07490548CD
:104CEC0000F09CF9034838BD80E6032084E60320DD
:104CFC00FCE50320E8E50320D8E30320114C0D006C
:104D0C0041747047704708B50021007CFFF768FBC1
:104D1C0030EA200028BF4FF0FF3008BD08B5012154
:104D2C00007CFFF75DFB30EA200028BF4FF0FF301E
:104D3C0008BD08B5007CFFF74BFB20EAE07008BD0E
:104D4C0008B5007CFFF73CFB20EAE07008BD007C56
:104D5C00FFF756BB10B51421044600F064F9204649
:104D6C0010BD38B50446007C0D46FFF731FB00281A
:104D7C0001DC607C28B12946207CFFF739FB20EA56
:104D8C00E07038BD10B50446002363604FF47A73AD
:104D9C00A360054B236001230846217463741146FC
:104DAC00FFF7FEFA204610BDFC550D000022007CDA
:104DBC00FFF7FEBA10B514220446002100F0B1FA38
:104DCC00204610BD30B50E4D87B001A8FFF7F2FF9D
:104DDC00296811F0010410D12846FFF75AF960B187
:104DEC0001AA21460748FFF7CDFF2846FFF756F9E1
:104DFC00054A0649034800F011F9024807B030BDD6
:104E0C0008E703200CE70320D8E30320114D0D0025
:104E1C00002211464068FFF73FBB00221146406854
:104E2C00FFF75ABB002211464068FFF765BB002212
:104E3C004068FFF759BB002281F001014068FFF781
:104E4C0043BB00231A4619464068FFF735BB0023C5
:104E5C001A4619464068FFF727BB002211464068E6
:104E6C00FFF70ABB002202214068FFF70DBB0023AD
:104E7C001A464068FFF7F8BA024B04225A60024AFD
:104E8C001A60704720E703202C560D0008B50C4B18
:104E9C0033B1FFF797FF03681B699847002809DCBB
:104EAC00084B63B1FFF706FF03681B69984700289E
:104EBC0003DC08BDAFF30080F2E7AFF3008008BD60
:104ECC00000000000000000008B5FFF7DFFFFFF74F
:104EDC00AFF9014B186008BD30E703200248034AC4
:104EEC000349121A00F012BA00F4032004F4032050
:104EFC0000570D0007B5002300931A466FF0770199
:104F0C00FFF7A0FA03B05DF804FB000007B5438877
:104F1C000A2B08D0502B09D1094B1B683BB103B0AD
:104F2C005DF804EB1847FFF7E5FF06E0002300935C
:104F3C001A466FF07701FFF785FA03B05DF804FBB2
:104F4C0028E7032038B5104C104D2368AB42104BAA
:104F5C000CBF012200221A7002D0FFF7BFFF2560A0
:104F6C00FFF75EF9044600F0E5F90A4B13B1204651
:104F7C00AFF3008000210748FFF76EFA00210648C6
:104F8C00BDE83840FFF754BA00F403201E1C279AE2
:104F9C002CE7032000000000194F0D0070B50446EB
:104FAC0014252A46094E002100F0BBF92580202546
:104FBC003146A5602561284600F04FF83146606007
:104FCC00284600F04AF8E060204670BD58560D00A7
:104FDC0030B50E4D296811F0010487B013D1284665
:104FEC00FFF757F878B101A8FFF7D8FF01AA2146BF
:104FFC000748FFF72DFB2846FFF750F8054A0649EE
:10500C00034800F00BF8024807B030BD34E703202A
:10501C0038E70320D8E3032005460D000B46014674
:10502C00184600F065B9FFF730B80000024B18685D
:10503C00BFF35F8F704700BF4CE7032010B500280B
:10504C0014BF044601242046FFF75EFA20B9FFF78F
:10505C00EDFF08B18047F6E710BDFFF7EFBF00008A
:10506C00244B1A68D0075CBF01221A60224B1A68C5
:10507C00D1075CBF01221A60204B1A68D2075CBFB3
:10508C0001221A601E4B1A68D0075CBF01221A60FD
:10509C001C4B1A68D1075CBF01221A601A4B1A68A4
:1050AC00D2075CBF01221A60184B1A68D0075CBF8C
:1050BC0001221A60164B1A68D1075CBF01221A60D4
:1050CC00144B1A68D2075CBF01221A60124B1A6883
:1050DC00D0075CBF01221A60104B1A68D1075CBF65
:1050EC0001221A600E4B1A68D2075CBF01221A60AB
:1050FC00704700BF7CE7032078E7032074E70320A8
:10510C0070E703206CE7032068E7032064E70320C3
:10511C0060E703205CE7032058E7032054E70320F3
:10512C0050E70320184B1A68D1075CBF01221A60A4
:10513C00164B1A68D2075CBF01221A60144B1A680E
:10514C00D0075CBF01221A60124B1A68D1075CBFF2
:10515C0001221A60104B1A68D2075CBF01221A6038
:10516C000E4B1A68D0075CBF01221A600C4B1A68F0
:10517C00D1075CBF01221A600A4B1A68D2075CBFC8
:10518C0001221A60704700BF9CE7032098E70320B8
:10519C0094E7032090E703208CE7032088E70320A3
:1051AC0084E7032080E70320184B1A68D1075CBF03
:1051BC0001221A60164B1A68D2075CBF01221A60D2
:1051CC00144B1A68D0075CBF01221A60124B1A6884
:1051DC00D1075CBF01221A60104B1A68D2075CBF62
:1051EC0001221A600E4B1A68D0075CBF01221A60AC
:1051FC000C4B1A68D1075CBF01221A600A4B1A6863
:10520C00D2075CBF01221A60704700BFBCE70320C5
:10521C00B8E70320B4E70320B0E70320ACE7032092
:10522C00A8E70320A4E70320A0E70320244B1A6877
:10523C00D0075CBF01221A60224B1A68D1075CBFF1
:10524C0001221A60204B1A68D2075CBF01221A6037
:10525C001E4B1A68D0075CBF01221A601C4B1A68DF
:10526C00D1075CBF01221A601A4B1A68D2075CBFC7
:10527C0001221A60184B1A68D0075CBF01221A6011
:10528C00164B1A68D1075CBF01221A60144B1A68BE
:10529C00D2075CBF01221A60124B1A68D0075CBFA0
:1052AC0001221A60104B1A68D1075CBF01221A60E8
:1052BC000E4B1A68D2075CBF01221A60704700BF00
:1052CC00ECE70320E8E70320E4E70320E0E7032012
:1052DC00DCE70320D8E70320D4E70320D0E7032042
:1052EC00CCE70320C8E70320C4E70320C0E7032072
:1052FC0010B5054C13462CB10A4601460220AFF3FB
:10530C00008010BD204610BD0000000010B5431EEB
:10531C000A44914204D011F8014B03F8014FF8E70D
:10532C0010BD02440346934202D003F8011BFAE776
:10533C007047000038B5124B1C68A36B0546D3B9F7
:10534C001820FFF7E1F843F20E33A06303804AF60E
:10535C00CD33438041F2342383804EF26D63C3809E
:10536C004DF6EC630381052343810B2383810122DA
:10537C000023C0E90423A36B00221D615A6138BDD0
:10538C00D4E30320034613F8012B002AFBD1181A8F
:10539C00013870471D400D0059400D0085400D002F
:1053AC0089400D00000000007265717565737444CE
:1053BC006174614C656E6774683A3A20006E756D65
:1053CC004279746573546F526561643A3A200000F7
:1053DC000000000000000000E5450D00DB450D005D
:1053EC00D1450D00C7450D00BB450D00AF450D0067
:1053FC00A3450D009B450D0091450D0087450D0003
:10540C00ED490D00000000000000000005460D00F5
:10541C004F460D0027460D0007460D002F460D0088
:10542C0037460D003F460D0047460D0000000000BA
:10543C000000000023470D0013470D0015470D0019
:10544C00626175640053657269616C0053657269C1
:10545C00616C31007479706500706172616D00630C
:10546C006D6400696400686E64007374726D00662C
:10547C00696C74006C766C0061646448616E646C79
:10548C0065720072656D6F766548616E646C6572ED
:10549C0000656E756D48616E646C657273004A537D
:1054AC004F4E53747265616D4C6F6748616E646CDE
:1054BC0065720061707000253031307520005D2000
:1054CC00002564002C200028293A2000205B006372
:1054DC006F6465203D200025690064657461696C0A
:1054EC0073203D20000D0A0066006C6E00666E0095
:1054FC00636F64650064657461696C006E6F6E65E2
:10550C0000747261636500696E666F007761726E1C
:10551C00006572726F720070616E696300616C6C11
:10552C0000000000000000000000000067480D00B3
:10553C005D480D0053480D0049480D003D480D00D5
:10554C0031480D0025480D001D480D0013480D0075
:10555C0009480D00ED490D0000000000000000009E
:10556C0085490D008F490D0099490D00A3490D0087
:10557C00AD490D00B9490D00C5490D00D1490D00CB
:10558C00D9490D00E3490D00ED490D005A00252BBA
:10559C003033643A253032750025592D256D2D2573
:1055AC00645425483A254D3A2553257A0061736396
:1055BC0074696D6500000000000000000000000030
:1055CC00114C0D00614C0D006F4C0D00CD4A0D00BF
:1055DC00254C0D00474C0D00334C0D005B4C0D0061
:1055EC00134C0D00174C0D000000000000000000D3
:1055FC00114D0D00614D0D006F4D0D00CD4A0D008C
:10560C004D4D0D00134D0D00294D0D005B4D0D0042
:10561C003F4D0D000D4D0D0000000000000000007E
:10562C007B4E0D00714E0D00674E0D001D4E0D0092
:10563C005B4E0D004F4E0D00434E0D003B4E0D00CA
:10564C00314E0D00274E0D00ED490D0000000000FD
:10565C00000000000000000000000000000000003E
:10566C00000000000000000000000000000000002E
:10567C00000000000000000000000000000000001E
:10568C00000000000000000000000000000000000E
:10569C0000000000000000000000000000000000FE
:1056AC0000000000000000000000000000000000EE
:1056BC0043000000D9410D004D450D00F1450D0092
:1056CC00F9470D0035490D00B94A0D008D4B0D0001
:1056DC00C94B0D00FD4B0D00854E0D006D500D009E
:1056EC0031510D00B5510D0039520D000000000074
:0456FC0000000000AA
:0457000000000000A5
:10570400B9550D00000000005C560D007C560D00DC
:105714009C560D0000000000000000000000000086
:1057240000000000BC560D00000000000000000056
:105734000000000000000000000000000000000065
:105744000000000000000000000000000000000055
:105754000000000000000000000000000000000045
:085764000000000074E30320C3
:10576C00FFFFFFFF00000102030405060708090AFA
:10577C000B0C0D0E0F101112131415161718191AF5
:08578C001B1C1D1E1F2028003C
:0457940078563412FD
:04000003D000401CCD
:00000001FF
