:02000002D0002C
:1040000000400D00D4670D00000006000C00050103
:084010000401E80500000000B6
:044018007C620D00B9
:1040200009480A49884208B505D0094A824202D0A7
:10403000121A02F0DFF80748074A0021121A02F0AC
:10404000E4F8014808BD00BF70E3032044670D0099
:10405000D8E30320D8E30320F0E7032070B501F094
:10406000E5F9074C074BE41AA40800251E46A542B3
:1040700004D056F8253098470135F8E770BD00BFE9
:1040800034670D00FC660D0000F022B908B500F0A1
:10409000CDF9BDE8084001F08BB900F0D9BB00F0C4
:1040A000D7BB0078B0FA80F0400970470123037055
:1040B00070470000000000002DE9F84F838807EEEC
:1040C000903AF8EEE77AF2EE046A87EEA67A0546B1
:1040D0000C460E264FF0010ADFED3F6A81ED017AB2
:1040E000D0ED037AF8EE677A87EEA67ADFED3B6AC9
:1040F00081ED057AC38807EE903AF8EEE77A87EE0D
:10410000A67A81ED027A03899FED357A07EE903A1F
:10411000F8EEE77AC7EE876A16EE900A01F0C0FC67
:104120002BA3D3E9002301F00FFD02F005F8E060B6
:10413000B5F90AB04FEADB7001F0A0FC01F0FCFF1A
:1041400080F000470AFA06F000EA0B00304101F067
:1041500095FC8046C6F10F000AFA00F0894601F08E
:104160008DFC02460B464046494601F017FE80464C
:104170003846894601F094FC02460B4640464946C3
:1041800001F030FB01F0D8FF013E032E0746D9D1E4
:104190002061D5ED047AB8EE677ADFED127AC7EECA
:1041A000276AC4ED066A95ED057AB8EE477AC7EE40
:1041B000276AC4ED076A95ED067AB8EE477AC7EE2E
:1041C000276AC4ED086ABDE8F88F00BFAFF300802E
:1041D0006666666666660A4000401C4600007A44D1
:1041E00000C07F440000C84210B5044601F05EF8EC
:1041F0002F4900F02AFE01F059F894ED010A04213C
:1042000000F01DFF01F052F82A4900F01EFE01F0F7
:104210004DF894ED050A042100F011FF01F046F875
:10422000254900F012FE01F041F894ED020A042144
:1042300000F005FF01F03AF8204900F0FFFD01F021
:1042400035F894ED030A042100F0F9FE01F02EF890
:104250001B4900F0FAFD01F029F894ED040A04214D
:1042600000F0EDFE01F022F8164900F0EEFD01F03D
:104270001DF894ED060A042100F0E1FE01F016F8A5
:10428000114900F0E2FD01F011F894ED070A042154
:1042900000F0D5FE01F00AF80C4900F0D6FD01F05F
:1042A00005F894ED080A0421BDE8104000F0C7BEEF
:1042B000BA620D0090620D009B620D00AD620D00B0
:1042C000C5620D00D5620D00E5620D00F7620D00BC
:1042D00008B50C48002319461A46406800F088FAD1
:1042E00000F0E4FF4FF4E13100F0D4FF01F0E4F816
:1042F000054900F05BFB01F0DFF8BDE8084000F085
:1043000059BB00BF20E70320A086010038B5054651
:104310001AB903689B68984702E0D2B200F0A5FD85
:104320000446284600F095FD204438BDF7B5A52386
:104330008DF8003008238DF8013041238DF80230CC
:1043400002238DF804304E230E468DF805300021EF
:1043500020238DF8063005468DF803108DF80710E0
:104360000B461DF803200133072B1144F9D1CCB2C1
:104370008DF8074000F09AFF294900F05FFD00F03A
:1043800095FF21461022FFF7C1FF01F095F8742137
:1043900000F04BFB002401F08FF803681DF80410B7
:1043A0009B6801349847082CF5D101F085F801216C
:1043B00000F03EFB642000F053FA01F07DF8EAB211
:1043C0000332742100F02AFB01F076F803681B69C0
:1043D00098470335A84207461ED13446A31B9F4287
:1043E00013DB01F069F803685B699847254604F818
:1043F000010B00F05BFF2978102200F036FD00F081
:1044000055FF084900F01AFDE8E700F04FFF0649A4
:1044100000F014FD002000E0052003B0F0BD00BF57
:10442000F8630D0005650D0026650D0030B59BB0E5
:1044300008A91C20FFF77AFF0446B8B100F036FF48
:104440002F4900F0FBFC00F031FF002C054604DA98
:104450002D2100F0F7FC614200E021460A222846A7
:1044600000F003FD284600F0F4FC42E09DF8232014
:104470009DF8223043EA0223ADF804309DF8252050
:104480009DF8243043EA0223ADF806309DF827203A
:104490009DF8263043EA0223ADF808309DF8292024
:1044A0009DF8283043EA0223ADF80A309DF82B200E
:1044B0009DF82A3043EA0223ADF80C309DF92D20F7
:1044C0009DF82C3003EB0223ADF80E30DDF82E30D2
:1044D0000493DDF832300593DDF83630069301A8F9
:1044E000DDF83A30079311A9FFF7E6FD11A8FFF7B1
:1044F0007BFE4FF47A7000F0B3F91BB030BD00BF03
:1045000004640D0000F038B808B5024B1B689B68C6
:10451000019308BD4802030008B5024B1B681B69E4
:10452000019308BD4802030008B5024B1B685B6994
:10453000019308BD4802030008B5024B1B685B6C81
:10454000019308BD4802030008B5024B1B689B6C31
:10455000019308BD4802030008B5024B1B685B6865
:10456000019308BD1802030008B5024B1B685B6984
:10457000019308BD1802030008B5024B1B681B68B5
:10458000019308BD2C02030008B5024B1B681B6891
:10459000019308BD2802030008B5024B1B68DB68C5
:1045A000019308BD2802030008B5024B1B689B69F4
:1045B000019308BD2802030008B5024B1B68DB69A4
:1045C000019308BD2802030008B5024B1B681B6A53
:1045D000019308BD2802030008B5024B1B685B6A03
:1045E000019308BD2802030008B5024B1B689B6AB3
:1045F000019308BD2802030008B5024B1B68DB6A63
:10460000019308BD2802030008B5024B1B681B6B11
:10461000019308BD2802030008B5024B1B681B6C00
:10462000019308BD2802030008B5024B1B681B6DEF
:10463000019308BD2802030008B5024B1B685B69A3
:10464000019308BD6402030008B5024B1B689B6818
:10465000019308BD6802030008B5024B1B68DB68C4
:10466000019308BD6802030008B5024B1B681B6874
:10467000019308BD3C02030008B5024B1B68DB68D0
:10468000019308BD3C02030008B5024B1B681B697F
:10469000019308BD3C02030008B5024B1B685B692F
:1046A000019308BD3C02030008B5024B1B689B69DF
:1046B000019308BD3C02030008B5024B1B68DB698F
:1046C000019308BD3C02030008B5024B1B689B6ABE
:1046D000019308BD3C02030008B5024B1B681B6830
:1046E000019308BD4C02030008B5024B1B685B68D0
:1046F000019308BD4C02030008B5024B1B681B69FF
:10470000019308BD4C02030008B5024B1B685B69AE
:10471000019308BD4C02030008B5024B1B689B695E
:10472000019308BD4C02030008B5024B1B68DB690E
:10473000019308BD4C02030008B5024B1B681B6ABD
:10474000019308BD4C02030008B5024B1B685B686F
:10475000019308BD2002030008B5024B1B685B698A
:10476000019308BD2002030008B5034B1B68D3F872
:104770008830019308BD00002002030008B5034BF8
:104780001B68D3F89430019308BD00002002030099
:1047900008B5024B1B68DB6B019308BD44020300A4
:1047A00008B5024B1B685B68019308BD400203001B
:1047B00008B5024B1B689B68019308BD40020300CB
:1047C00008B5024B1B68DB68019308BD400203007B
:1047D00008B5024B1B681B69019308BD400203002A
:1047E00008B5024B1B685B69019308BD40020300DA
:1047F00008B5024B1B689B69019308BD400203008A
:1048000008B5024B1B68DB69019308BD4002030039
:1048100008B5024B1B681B6A019308BD40020300E8
:1048200008B5024B1B681B6B019308BD40020300D7
:1048300008B5024B1B685B6B019308BD4002030087
:1048400008B5024B1B681B68019308BD1C020300DE
:1048500008B5024B1B685B68019308BD1C0203008E
:104860000021FFF779BF10B50446006808B1FFF7D3
:104870006BFE204610BD000010B5064C00232046FC
:104880002360FFF759FE2046034A0449BDE8104063
:1048900000F038BEDCE30320D8E3032067480D00B6
:1048A00010B58368044613B1032201469847204699
:1048B00010BD002211464068FFF7AABF0022114632
:1048C0004068FFF7B5BF00224068FFF7A9BF00228C
:1048D00081F001014068FFF793BF00231A46194693
:1048E0004068FFF785BF00231A4619464068FFF766
:1048F00077BF002211464068FFF76ABF00221146C9
:104900004068FFF755BF002202214068FFF758BFFB
:1049100000231A464068FFF743BF0000024B032202
:104920005A60024A1A607047E0E3032018640D00E1
:104930007047F8B5064615460C468F18BC4206D09F
:10494000336814F8011B9B6830469847F6E7284601
:10495000F8BD0022007CFFF737BE0021007CFFF786
:104960003BBE0021007CFFF73FBE0021007CFFF72B
:1049700043BE0021007CFFF747BE10B5142104465A
:1049800000F0C5FD204610BD10B50446002363604D
:104990004FF47A73A360044B2174084623601146D8
:1049A000FFF73AFE204610BD4C640D000022007C4B
:1049B000FFF7EABD00231A461946007CFFF7ECBD5D
:1049C00070B50C4686B0142506462A46002101A87B
:1049D00001F01BFC23788DF8083063680393E368CB
:1049E00004930022237A307CADF8045001A905938A
:1049F000FFF71AFE06B070BD1FB500338DF800102A
:104A00004FF06401039118BF0123694601928DF8AC
:104A10000830FFF7D5FF05B05DF804FB0123FFF771
:104A2000EBBF0022007CFFF7BFBDC9B2FFF7F9BFA3
:104A30000022007CFFF7C0BD704710B51821044666
:104A400000F065FD204610BDF0B5037D062B8DB04E
:104A50000E4600F104074FF0000402D000F10805F3
:104A600018E00CAD394605F8304D2F232A460A20B0
:104A7000FFF7E2FD284601F0F9FB33680246DB68E8
:104A80002946304698470FE024B12E21304600F0E9
:104A9000D9F9044415F8011D0A22304600F0E5F961
:104AA000BD420444F0D120460DB0F0BD10B5054B19
:104AB0000446112240F8043B002101F0A6FB2046E9
:104AC00010BD00BF74640D000346074A10B543F8DB
:104AD000042B01F1100251F8044B43F8044B9142AE
:104AE000F9D10A781A7010BD74640D0010B59DF8E4
:104AF000084044EA032343EA024242EA01610423F4
:104B00004160037510BD37B50D788B784A78C97848
:104B100000912946FFF7EAFF03B030BD014B024A7E
:104B20001A607047E8E30320F3640D000022114689
:104B30004068FFF76DBE002211464068FFF778BE5F
:104B400000224068FFF76CBE002281F0010140683E
:104B5000FFF756BE00231A4601214068FFF748BE02
:104B600000231A4619464068FFF73ABE0022114654
:104B70004068FFF72DBE002211464068FFF718BEBF
:104B8000002202214068FFF71BBE00231A4640683E
:104B9000FFF706BE38B5054688B104684CB1A36876
:104BA0001BB103222146204698471021204600F0E1
:104BB000AEFC28461421BDE8384000F0A8BC38BD42
:104BC00010B103685B681847704710B50368044666
:104BD000BBB15868FFF798FC78B923685A7C12B9C2
:104BE0005868FFF799FC23685868FFF79DFC206818
:104BF0000023236028B1FFF7CDFF206808B1FFF73D
:104C0000C9FF204610BD38B50446D0F8C40108B12C
:104C1000FFF745FAD4F8C00108B1FFF795FCD4F8C6
:104C2000BC5135B12846FFF7D0FF0421284600F0DB
:104C30006EFC206808B1FFF7C3FF204638BD0000B6
:104C400010B5044B044640F8083BFFF7DCFF204654
:104C500010BD00BF68650D0038B50E4C0E4B2360CB
:104C60000025022304F5E4706360A560C4F8C45114
:104C7000C4F8C851FFF760FC084BC4F8CC5184F865
:104C8000D05123602046064A0649BDE8384000F06E
:104C900039BC00BFECE303209C650D0068650D0086
:104CA000D8E30320414C0D0000231A464068FFF76B
:104CB00077BD002202214068FFF782BD0022114625
:104CC0004068FFF775BD002211464068FFF780BDC0
:104CD00000231A4619464068FFF782BD00231A4692
:104CE00019464068FFF784BD002281F00101406849
:104CF000FFF786BD00224068FFF792BD00221146F3
:104D00004068FFF795BD002211464068FFF780BD5F
:104D10002DE9F043002495B016460D460746FFF7EF
:104D2000C5FE214620220CA8009401F06EFA402313
:104D30000C9321466B460CAA3046FFF78DFC0446C7
:104D4000002844D1024601216868FFF741FD022195
:104D5000804622466868FFF73BFD009E814621465B
:104D6000002E34D0002932D17368022B02D00A2BD6
:104D700009D02AE0B8F1000F27D071693846043114
:104D8000FFF7C1FE20E0B9F1000F1ED074691122B7
:104D900001A801F03AFA06238DF8143001AD04F1B0
:104DA00008031834186859682A4603C20833A34216
:104DB0001546F7D101A906A807ADFFF785FE0FCD6F
:104DC0003C1D0FC42B6823700121F669C8E70098C9
:104DD000FFF73AFC384615B0BDE8F083024B034AB2
:104DE0001A6000225A607047C0E503209C650D00E0
:104DF000F8B506460D468F180024BD420CD0336826
:104E000015F8011B9B6830469847002801DB0444D5
:104E1000F3E7002C08BF04462046F8BD70B50546F0
:104E20000C46084649B101F021FA2B68024621469A
:104E30002846DB68BDE87040184770BD08B5FFF72D
:104E4000EDFF08BD03689B68184708B5FFF7E6FF4C
:104E500008BD38B50D210546FFF7F4FF0A210446C9
:104E60002846FFF7EFFF204438BD30B58BB00B4626
:104E700000218DF82410012A98BF0A220DF1230485
:104E8000B3FBF2F505FB123303F0FF03092B94BFCC
:104E900030333733DBB2214604F801392B46002D7D
:104EA000EED1FFF7BBFF0BB030BD00002DE9F0479E
:104EB00057EC106B82460D4610EE102A3B4610EE62
:104EC000100A394601F0DAF808B14E4912E027F02D
:104ED00000494FF0FF324C4B3046494601F0CEF8C6
:104EE00068B94FF0FF32484B3046494601F0A8F808
:104EF00028B946495046FFF791FFBDE8F0874FF0CB
:104F00006042434B3046394601F0AEF808B14149A2
:104F1000F0E74FF06042404B3046394601F086F8EA
:104F20000028F4D1002200233046394601F07EF8F3
:104F300040B12D215046FFF785FF07F1004304469D
:104F40001F4600E0044635494FF0000800205FFA94
:104F500088F39D4206D90022314B00F01FFF08F173
:104F60000108F4E732463B4600F03CFC0F4606469B
:104F700001F0C2F80A22014680465046FFF775FF4D
:104F80000444E5B3404600F069FD02460B46304656
:104F9000394600F025FC06460F4650462149FFF7EA
:104FA0003DFF044400221E4B3046394600F0CCFD44
:104FB00006460F4601F078F8B0F1000907DA2D2116
:104FC0005046FFF73FFFC9F10001804602E0494625
:104FD0004FF000080A225046FFF747FF40440444C0
:104FE000484600F04BFD02460B463046394600F07D
:104FF000F7FB013D15F0FF0506460F46D2D12046CE
:10500000BDE8F087C8650D00FFFFEF7FD2650D009A
:10501000FFFFEF41CC650D00FFFFEFC10000E03F57
:1050200000002440D0650D0038B5C9B20546FFF731
:105030003DFF04462846FFF70CFF204438BD38B535
:10504000044610EE100A0D4600F02AFD41EC100B4C
:1050500029462046BDE83840FFF7E6BF10B50446B4
:10506000FFF71EFC204610BD0348044A04490023F4
:10507000836000F047BA00BFC8E50320D8E30320EF
:105080005D500D0010B50446006818B1FFF7E0FB55
:105090000023236010BD10B50446FFF7F3FF204640
:1050A00010BD000010B5094C00204FF6FF732060C2
:1050B000A080A07120816381FFF746FB2046044A4F
:1050C0000449BDE8104000F01DBA00BFD8E5032038
:1050D000D8E3032097500D00024B1A68024B1A6068
:1050E000704700BF70E30320E4E50320704741747C
:1050F000704708B5007CFFF7E7FA20EAE07008BDCA
:1051000008B5007CFFF7C0FA20EAE07008BD08B5DA
:10511000007CFFF7C9FA30EA200028BF4FF0FF30CB
:1051200008BD08B5007CFFF7B7FA30EA200028BFB9
:105130004FF0FF3008BD007CFFF7BEBA10B5142158
:10514000044600F0E4F9204610BD70B5457C0446E5
:105150000E4625B9007CFFF7B7FA002805DD314679
:10516000207CBDE87040FFF787BA284670BD00007C
:1051700010B5044608461146002262604FF47A7268
:10518000A260054A22600122207462741A46FFF769
:105190006BFA204610BD00BF08660D0038B50C4DF7
:1051A000296811F0010411D12846FEF77AFF68B191
:1051B000084A094B09482146FFF7DAFF2846FEF75F
:1051C00075FF074A0749054800F09CF9034838BDB8
:1051D00080E6032084E60320FCE50320E8E50320C5
:1051E000D8E30320ED500D0041747047704708B5B7
:1051F0000021007CFFF790FA30EA200028BF4FF032
:10520000FF3008BD08B50121007CFFF785FA30EAC0
:10521000200028BF4FF0FF3008BD08B5007CFFF725
:1052200073FA20EAE07008BD08B5007CFFF764FA65
:1052300020EAE07008BD007CFFF77EBA10B51421AB
:10524000044600F064F9204610BD38B50446007CE1
:105250000D46FFF759FA002801DC607C28B1294689
:10526000207CFFF761FA20EAE07038BD10B50446F3
:10527000002363604FF47A73A360054B236001231E
:105280000846217463741146FFF726FA204610BDC4
:1052900038660D000022007CFFF726BA10B51422F4
:1052A0000446002100F0B1FF204610BD30B50E4D80
:1052B00087B001A8FFF7F2FF296811F0010410D1AF
:1052C0002846FEF7EEFE60B101AA21460748FFF727
:1052D000CDFF2846FEF7EAFE054A0649034800F0DE
:1052E00011F9024807B030BD08E703200CE703209E
:1052F000D8E30320ED510D00002211464068FFF76E
:1053000067BA002211464068FFF782BA00221146B0
:105310004068FFF78DBA00224068FFF781BA00228B
:1053200081F001014068FFF76BBA00231A46194665
:105330004068FFF75DBA00231A4619464068FFF738
:105340004FBA002211464068FFF732BA002202210C
:105350004068FFF735BA00231A464068FFF720BAC5
:10536000024B04225A60024A1A60704720E7032069
:1053700068660D0008B50C4B33B1FFF797FF036863
:105380001B699847002809DC084B63B1FFF706FF4B
:1053900003681B699847002803DC08BDAFF3008051
:1053A000F2E7AFF3008008BD00000000000000003D
:1053B00008B5FFF7DFFFFFF7D7F8014B186008BD0E
:1053C00030E703200248034A0349121A00F012BFD3
:1053D00000F4032004F4032040670D0007B5002308
:1053E00000931A466FF07701FFF7C8F903B05DF834
:1053F00004FB000007B543880A2B08D0502B09D1C5
:10540000094B1B683BB103B05DF804EB1847FFF78D
:10541000E5FF06E0002300931A466FF07701FFF7DF
:10542000ADF903B05DF804FB28E7032038B5104C54
:10543000104D2368AB42104B0CBF012200221A70A2
:1054400002D0FFF7BFFF2560FFF786F8044600F0A3
:10545000E5FE0A4B13B12046AFF300800021074858
:10546000FFF796F900210648BDE83840FFF77CB900
:1054700000F403201E1C279A2CE7032000000000E4
:10548000F5530D0070B5044614252A46094E002137
:1054900000F0BBFE258020253146A5602561284609
:1054A00000F04FF831466060284600F04AF8E060AE
:1054B000204670BD94660D0030B50E4D296811F080
:1054C000010487B013D12846FEF7EBFD78B101A89F
:1054D000FFF7D8FF01AA21460748FFF755FA2846EB
:1054E000FEF7E4FD054A0649034800F00BF80248C0
:1054F00007B030BD34E7032038E70320D8E30320AA
:1055000031490D000B460146184600F065BEFEF716
:10551000C4BD0000024B1868BFF35F8F704700BF27
:105520004CE7032010B5002814BF04460124204690
:10553000FFF786F920B9FFF7EDFF08B18047F6E7DE
:1055400010BDFFF7EFBF0000244B1A68D0075CBF07
:1055500001221A60224B1A68D1075CBF01221A602F
:10556000204B1A68D2075CBF01221A601E4B1A68D2
:10557000D0075CBF01221A601C4B1A68D1075CBFC0
:1055800001221A601A4B1A68D2075CBF01221A6006
:10559000184B1A68D0075CBF01221A60164B1A68B4
:1055A000D1075CBF01221A60144B1A68D2075CBF96
:1055B00001221A60124B1A68D0075CBF01221A60E0
:1055C000104B1A68D1075CBF01221A600E4B1A6893
:1055D000D2075CBF01221A60704700BF7CE703203E
:1055E00078E7032074E7032070E703206CE70320CB
:1055F00068E7032064E7032060E703205CE70320FB
:1056000058E7032054E7032050E70320184B1A689B
:10561000D1075CBF01221A60164B1A68D2075CBF23
:1056200001221A60144B1A68D0075CBF01221A606D
:10563000124B1A68D1075CBF01221A60104B1A681E
:10564000D2075CBF01221A600E4B1A68D0075CBFFC
:1056500001221A600C4B1A68D1075CBF01221A6044
:105660000A4B1A68D2075CBF01221A60704700BF5C
:105670009CE7032098E7032094E7032090E70320AA
:105680008CE7032088E7032084E7032080E70320DA
:10569000184B1A68D1075CBF01221A60164B1A68B2
:1056A000D2075CBF01221A60144B1A68D0075CBF96
:1056B00001221A60124B1A68D1075CBF01221A60DE
:1056C000104B1A68D2075CBF01221A600E4B1A6891
:1056D000D0075CBF01221A600C4B1A68D1075CBF6F
:1056E00001221A600A4B1A68D2075CBF01221A60B5
:1056F000704700BFBCE70320B8E70320B4E70320EE
:10570000B0E70320ACE70320A8E70320A4E70320C9
:10571000A0E70320244B1A68D0075CBF01221A605F
:10572000224B1A68D1075CBF01221A60204B1A680D
:10573000D2075CBF01221A601E4B1A68D0075CBFFB
:1057400001221A601C4B1A68D1075CBF01221A6043
:105750001A4B1A68D2075CBF01221A60184B1A68EC
:10576000D0075CBF01221A60164B1A68D1075CBFD4
:1057700001221A60144B1A68D2075CBF01221A601A
:10578000124B1A68D0075CBF01221A60104B1A68CE
:10579000D1075CBF01221A600E4B1A68D2075CBFAA
:1057A00001221A60704700BFECE70320E8E70320FE
:1057B000E4E70320E0E70320DCE70320D8E7032049
:1057C000D4E70320D0E70320CCE70320C8E7032079
:1057D000C4E70320C0E7032081F0004102E000BFDE
:1057E00083F0004330B54FEA41044FEA430594EAA1
:1057F000050F08BF90EA020F1FBF54EA000C55EADC
:10580000020C7FEA645C7FEA655C00F0E2804FEAAC
:105810005454D4EB5555B8BF6D420CDD2C4480EA8E
:10582000020281EA030382EA000083EA010180EABE
:10583000020281EA0303362D88BF30BD11F0004F0C
:105840004FEA01314FF4801C4CEA113102D0404242
:1058500061EB410113F0004F4FEA03334CEA13337D
:1058600002D0524263EB430394EA050F00F0A78095
:10587000A4F10104D5F1200E0DDB02FA0EFC22FA90
:1058800005F2801841F1000103FA0EF2801843FA84
:1058900005F359410EE0A5F120050EF1200E012A75
:1058A00003FA0EFC28BF4CF0020C43FA05F3C018B3
:1058B00051EBE37101F0004507D54FF0000EDCF12C
:1058C000000C7EEB00006EEB0101B1F5801F1BD3D5
:1058D000B1F5001F0CD349085FEA30004FEA3C0CD9
:1058E00004F101044FEA445212F5800F80F09A80CF
:1058F000BCF1004F08BF5FEA500C50F1000041EBD3
:10590000045141EA050130BD5FEA4C0C404141EBD6
:10591000010111F4801FA4F10104E9D191F0000FFD
:1059200004BF01460020B1FA81F308BF2033A3F180
:105930000B03B3F120020CDA0C3208DD02F1140C77
:10594000C2F10C0201FA0CF021FA02F10CE002F1B2
:105950001402D8BFC2F1200C01FA02F120FA0CFCAB
:10596000DCBF41EA0C019040E41AA2BF01EB0451F4
:10597000294330BD6FEA04041F3C1CDA0C340EDCF2
:1059800004F11404C4F1200220FA04F001FA02F335
:1059900040EA030021FA04F345EA030130BDC4F1F3
:1059A0000C04C4F1200220FA02F001FA04F340EAE8
:1059B0000300294630BD21FA04F0294630BD94F099
:1059C000000F83F4801306BF81F480110134013D80
:1059D0004EE77FEA645C18BF7FEA655C29D094EAF1
:1059E000050F08BF90EA020F05D054EA000C04BF6F
:1059F0001946104630BD91EA030F1EBF002100205A
:105A000030BD5FEA545C05D14000494128BF41F0F8
:105A1000004130BD14F580043CBF01F5801130BD5C
:105A200001F0004545F0FE4141F470014FF00000E7
:105A300030BD7FEA645C1ABF194610467FEA655C98
:105A40001CBF0B46024650EA013406BF52EA03353A
:105A500091EA030F41F4002130BD00BF90F0000F28
:105A600004BF0021704730B54FF4806404F1320464
:105A70004FF000054FF0000150E700BF90F0000F1D
:105A800004BF0021704730B54FF4806404F1320444
:105A900010F0004548BF40424FF000013EE700BF14
:105AA00042004FEAE2014FEA31014FEA02701FBFA4
:105AB00012F07F4393F07F4F81F06051704792F076
:105AC000000F14BF93F07F4F704730B54FF46074F0
:105AD00001F0004521F0004120E700BF50EA01023B
:105AE00008BF704730B54FF000050AE050EA0102E8
:105AF00008BF704730B511F0004502D5404261EB58
:105B000041014FF4806404F132045FEA915C3FF498
:105B1000DCAE4FF003025FEADC0C18BF03325FEA31
:105B2000DC0C18BF033202EBDC02C2F1200300FAE6
:105B300003FC20FA02F001FA03FE40EA0E0021FA0B
:105B400002F11444C1E600BF70B54FF0FF0C4CF4F5
:105B5000E06C1CEA11541DBF1CEA135594EA0C0FAB
:105B600095EA0C0F00F0DEF82C4481EA030621EAE6
:105B70004C5123EA4C5350EA013518BF52EA033521
:105B800041F4801143F4801338D0A0FB02CE4FF0D3
:105B90000005E1FB02E506F00042E0FB03E54FF003
:105BA0000006E1FB03569CF0000F18BF4EF0010EFB
:105BB000A4F1FF04B6F5007F64F5407404D25FEAF7
:105BC0004E0E6D4146EB060642EAC62141EA5551AA
:105BD0004FEAC52040EA5E504FEACE2EB4F1FD0CEC
:105BE00088BFBCF5E06F1ED8BEF1004F08BF5FEA6A
:105BF000500E50F1000041EB045170BD06F000461C
:105C000046EA010140EA020081EA0301B4EB5C04C8
:105C1000C2BFD4EB0C0541EA045170BD41F48011C0
:105C20004FF0000E013C00F3AB8014F1360FDEBFE5
:105C3000002001F0004170BDC4F10004203C35DAC1
:105C40000C341BDC04F11404C4F1200500FA05F344
:105C500020FA04F001FA05F240EA020001F00042E5
:105C600021F0004110EBD37021FA04F642EB06015B
:105C70005EEA430E08BF20EAD37070BDC4F10C0485
:105C8000C4F1200500FA04F320FA05F001FA04F249
:105C900040EA020001F0004110EBD37041F1000135
:105CA0005EEA430E08BF20EAD37070BDC4F1200540
:105CB00000FA05F24EEA020E20FA04F301FA05F2A8
:105CC00043EA020321FA04F001F0004121FA04F250
:105CD00020EA020000EBD3705EEA430E08BF20EA20
:105CE000D37070BD94F0000F0FD101F0004640005A
:105CF00041EB010111F4801F08BF013CF7D041EADC
:105D0000060195F0000F18BF704703F000465200DF
:105D100043EB030313F4801F08BF013DF7D043EAB0
:105D20000603704794EA0C0F0CEA135518BF95EA66
:105D30000C0F0CD050EA410618BF52EA4306D1D1ED
:105D400081EA030101F000414FF0000070BD50EA0C
:105D5000410606BF1046194652EA430619D094EA96
:105D60000C0F02D150EA013613D195EA0C0F05D180
:105D700052EA03361CBF104619460AD181EA0301D4
:105D800001F0004141F0FE4141F470014FF000008C
:105D900070BD41F0FE4141F4780170BD70B54FF027
:105DA000FF0C4CF4E06C1CEA11541DBF1CEA1355A7
:105DB00094EA0C0F95EA0C0F00F0A7F8A4EB050489
:105DC00081EA030E52EA03354FEA013100F0888080
:105DD0004FEA03334FF0805545EA131343EA126349
:105DE0004FEA022245EA111545EA10654FEA0026FE
:105DF0000EF000419D4208BF964244F1FD0404F5B7
:105E0000407402D25B084FEA3202B61A65EB030512
:105E10005B084FEA32024FF480104FF4002CB6EBCF
:105E2000020E75EB030E22BFB61A754640EA0C004F
:105E30005B084FEA3202B6EB020E75EB030E22BF8F
:105E4000B61A754640EA5C005B084FEA3202B6EBD0
:105E5000020E75EB030E22BFB61A754640EA9C008F
:105E60005B084FEA3202B6EB020E75EB030E22BF5F
:105E7000B61A754640EADC0055EA060E18D04FEA1D
:105E8000051545EA16754FEA06164FEAC30343EABD
:105E900052734FEAC2025FEA1C1CC0D111F4801F8A
:105EA0000BD141EA00014FF000004FF0004CB6E783
:105EB00011F4801F04BF01430020B4F1FD0C88BF22
:105EC000BCF5E06F3FF6AFAEB5EB030C04BFB6EB2D
:105ED000020C5FEA500C50F1000041EB045170BD20
:105EE0000EF0004E4EEA113114EB5C04C2BFD4EB4D
:105EF0000C0541EA045170BD41F480114FF0000ED1
:105F0000013C90E645EA060E8DE60CEA135594EA4C
:105F10000C0F08BF95EA0C0F3FF43BAF94EA0C0F4F
:105F20000AD150EA01347FF434AF95EA0C0F7FF4C4
:105F300025AF104619462CE795EA0C0F06D152EA18
:105F400003353FF4FDAE1046194622E750EA4106FC
:105F500018BF52EA43067FF4C5AE50EA41047FF40D
:105F60000DAF52EA43057FF4EBAE12E74FF0FF3C72
:105F700006E000BF4FF0010C02E000BF4FF0010C43
:105F80004DF804CD4FEA410C7FEA6C5C4FEA430CBC
:105F900018BF7FEA6C5C1BD001B050EA410C0CBF0B
:105FA00052EA430C91EA030F02BF90EA020F00206D
:105FB000704710F1000F91EA030F58BF994208BFD4
:105FC00090422CBFD8176FEAE37040F00100704791
:105FD0004FEA410C7FEA6C5C02D150EA013C07D1E8
:105FE0004FEA430C7FEA6C5CD6D152EA033CD3D033
:105FF0005DF8040B704700BF8446104662468C462D
:106000001946634600E000BF01B5FFF7B7FF00285F
:1060100048BF10F1000F01BD4DF808EDFFF7F4FF88
:106020000CBF012000205DF808FB00BF4DF808ED13
:10603000FFF7EAFF34BF012000205DF808FB00BF36
:106040004DF808EDFFF7E0FF94BF012000205DF858
:1060500008FB00BF4DF808EDFFF7CEFF94BF01200D
:1060600000205DF808FB00BF4DF808EDFFF7C4FF06
:1060700034BF012000205DF808FB00BF4FEA410C4F
:106080007FEA6C5C02D150EA013C0AD14FEA430C32
:106090007FEA6C5C02D152EA033C02D14FF000006F
:1060A00070474FF0010070474FEA410212F50012AD
:1060B00015D211D56FF47873B3EB625212D94FEA4F
:1060C000C12343F0004343EA505311F0004F23FA39
:1060D00002F018BF404270474FF00000704750EA8E
:1060E000013005D111F0004008BF6FF0004070474B
:1060F0004FF00000704700BF4A0011D212F50012A5
:1061000011D20DD56FF47873B3EB62520ED44FEA0F
:10611000C12343F0004343EA505323FA02F070478F
:106120004FF00000704750EA013002D14FF0FF30CD
:1061300070474FF0000070474FEA4102B2F1E04370
:1061400024BFB3F5001CDCF1FE5C0DD901F0004C5E
:106150004FEAC0024CEA5070B2F1004F40EB8300AE
:1061600008BF20F00100704711F0804F21D113F1DA
:106170003872BCBF01F00040704741F480114FEA13
:106180005252C2F11802C2F1200C10FA0CF320FA9C
:1061900002F018BF40F001004FEAC1234FEAD323B9
:1061A00003FA0CFC40EA0C0023FA02F34FEA430323
:1061B000CCE77FEA625307D150EA01331EBF4FF0AC
:1061C000FE4040F44000704701F0004040F0FE40C7
:1061D00040F40000704700BF10B5054C13462CB1C9
:1061E0000A4601460220AFF3008010BD204610BDD4
:1061F0000000000010B5431E0A44914204D011F87B
:10620000014B03F8014FF8E710BD024403469342E7
:1062100002D003F8011BFAE77047000038B5124BB3
:106220001C68A36B0546D3B91820FEF709FB43F29F
:106230000E33A06303804AF6CD33438041F234230A
:1062400083804EF26D63C3804DF6EC6303810523BA
:1062500043810B23838101220023C0E90423A36B24
:1062600000221D615A6138BDD4E30320034613F8B0
:10627000012B002AFBD1181A0138704721400D006C
:106280005D400D0089400D008D400D0000000000B4
:1062900043757272656E74203D20004C696E6520F6
:1062A0004672657175656E6379203D2000416E61AF
:1062B0006C6F6720496E70757420566F6C746167DF
:1062C00065203D2000506F77657220466163746FD2
:1062D00072203D200041637469766520506F7765B8
:1062E00072203D2000526561637469766520506FAD
:1062F000776572203D20004170706172656E742078
:10630000506F776572203D200049324320627573DB
:1063100020537461747573205375636365737320C0
:106320003D2000427573792074696D656F75742026
:1063300075706F6E20656E746572696E6720656E2C
:10634000645472616E736D697373696F6E2829206E
:106350003D20005374617274206269742067656E19
:1063600065726174696F6E2074696D656F757420F4
:106370003D2000656E64206F662061646472657301
:1063800073207472616E736D697373696F6E2074BC
:10639000696D656F7574203D2000446174612062F1
:1063A000797465207472616E736665722074696DAC
:1063B000656F7574203D20004461746120627974BA
:1063C00065207472616E73666572207375636365B0
:1063D000656465642C20627573792074696D656FDE
:1063E000757420696D6D6564696174656C7920618F
:1063F00066746572203D2000436865636B73756D3C
:10640000203D200072657476616C203D2000000004
:10641000000000000000000011490D0007490D00B8
:10642000FD480D00F3480D00E7480D00DB480D0066
:10643000CF480D00C7480D00BD480D00B3480D0002
:10644000114D0D00000000000000000031490D005A
:106450007B490D0053490D0033490D005B490D0088
:1064600063490D006B490D0073490D0000000000E9
:1064700000000000494A0D00394A0D003B4A0D005A
:10648000626175640053657269616C00536572697D
:10649000616C31007479706500706172616D0063C8
:1064A0006D6400696400686E64007374726D0066E8
:1064B000696C74006C766C0061646448616E646C35
:1064C00065720072656D6F766548616E646C6572A9
:1064D00000656E756D48616E646C657273004A5339
:1064E0004F4E53747265616D4C6F6748616E646C9A
:1064F00065720061707000253031307520005D20BC
:10650000002564002C200028293A2000205B00632D
:106510006F6465203D200025690064657461696CC5
:1065200073203D20000D0A006C6E00666E00636FE4
:1065300064650064657461696C006E6F6E650074FB
:106540007261636500696E666F007761726E0065E7
:1065500072726F720070616E696300616C6C000032
:1065600000000000000000008B4B0D00814B0D006F
:10657000774B0D006D4B0D00614B0D00554B0D0021
:10658000494B0D00414B0D00374B0D002D4B0D00BD
:10659000114D0D000000000000000000A94C0D008E
:1065A000B34C0D00BD4C0D00C74C0D00D14C0D007F
:1065B000DD4C0D00E94C0D00F54C0D00FD4C0D00BF
:1065C000074D0D00114D0D006E616E006F76660077
:1065D0002E00696E66005A00252B3033643A253050
:1065E00032750025592D256D2D25645425483A25F1
:1065F0004D3A2553257A0061736374696D65000017
:106600000000000000000000ED500D003D510D00A5
:106610004B510D00F14D0D0001510D0023510D00A6
:106620000F510D0037510D00EF500D00F3500D00CC
:106630000000000000000000ED510D003D520D0073
:106640004B520D00F14D0D0029520D00EF510D0080
:1066500005520D0037520D001B520D00E9510D007F
:10666000000000000000000057530D004D530D00C6
:1066700043530D00F9520D0037530D002B530D00FD
:106680001F530D0017530D000D530D0003530D0044
:10669000114D0D000000000000000000000000008F
:1066A00000000000000000000000000000000000EA
:1066B00000000000000000000000000000000000DA
:1066C00000000000000000000000000000000000CA
:1066D00000000000000000000000000000000000BA
:1066E00000000000000000000000000000000000AA
:1066F00000000000000000004300000005450D0000
:1067000079480D001D490D001D4B0D00594C0D0021
:10671000DD4D0D0069500D00A5500D00D9500D0044
:1067200061530D0049550D000D560D0091560D0099
:1067300015570D00000000000000000000000000E0
:046740000000000055
:10674400F7650D000000000098660D00B8660D00A6
:10675400D8660D00000000000000000000000000EA
:1067640000000000F8660D000000000000000000BA
:106774000000000000000000000000000000000015
:106784000000000000000000000000000000000005
:1067940000000000000000000000000000000000F5
:0867A4000000000074E3032073
:1067AC00FFFFFFFF00000102030405060708090AAA
:1067BC000B0C0D0E0F101112131415161718191AA5
:0867CC001B1C1D1E1F202800EC
:0467D40078563412AD
:04000003D0004020C9
:00000001FF
