:02000002D0002C
:1040000000400D00A46C0D00000006000C0005012E
:084010000401E80500000000B6
:0440180044670D00EC
:1040200009480A49884208B505D0094A824202D0A7
:10403000121A02F023FB0748074A0021121A02F065
:1040400028FB014808BD00BF64E30320146C0D0089
:10405000CCE30320CCE30320F0E7032070B501F0AC
:10406000C9FB074C074BE41AA40800251E46A542CD
:1040700004D056F8253098470135F8E770BD00BFE9
:10408000106C0D00D86B0D0000F082B908B500F07F
:1040900061FABDE8084001F06FBB00F0A7BC00F07A
:1040A000A5BC0078B0FA80F0400970470123037086
:1040B00070470000F0B5012185B0064601F09FF978
:1040C000A0F13004072C45D8072303223146684667
:1040D00001F098F92449684601F057F90546684609
:1040E00001F0DFF87DB9062303223146684601F06E
:1040F00089F91E49684601F048F90746684601F00B
:10410000D0F80FB929E001251949684601F010F9E6
:104110006946304601F061F90746684601F0C1F88A
:104120006FB91449684601F003F93046694601F059
:1041300054F90646684601F0B4F88EB10A34A4B2C8
:104140000121204601F0B8FB2046294601F0C5FBBD
:10415000012007E04FF0FF3004E06FF0010001E0C4
:104160006FF0020005B0F0BD58670D005D670D00EF
:1041700061670D0063670D002DE9F84F838807EE36
:10418000903AF8EEE77AF2EE046A87EEA67A0546F0
:104190000C460E264FF0010ADFED3F6A81ED017AF1
:1041A000D0ED037AF8EE677A87EEA67ADFED3B6A08
:1041B00081ED057AC38807EE903AF8EEE77A87EE4C
:1041C000A67A81ED027A03899FED357A07EE903A5F
:1041D000F8EEE77AC7EE876A16EE900A01F0A4FEC1
:1041E0002BA3D3E9002301F0F3FE02F0E9F9E0602C
:1041F000B5F90AB04FEADB7001F084FE02F0E0F995
:1042000080F000470AFA06F000EA0B00304101F0A6
:1042100079FE8046C6F10F000AFA00F0894601F0E7
:1042200071FE02460B464046494601F0FBFF8046C0
:104230003846894601F078FE02460B46404649461C
:1042400001F014FD02F0BCF9013E032E0746D9D15E
:104250002061D5ED047AB8EE677ADFED127AC7EE09
:10426000276AC4ED066A95ED057AB8EE477AC7EE7F
:10427000276AC4ED076A95ED067AB8EE477AC7EE6D
:10428000276AC4ED086ABDE8F88F00BFAFF300806D
:104290006666666666660A4000401C4600007A4410
:1042A00000C07F440000C84210B5044601F0E2F9A6
:1042B0002F4900F0CCFE01F0DDF994ED010A042154
:1042C00000F0BFFF01F0D6F92A4900F0C0FE01F06E
:1042D000D1F994ED050A042100F0B3FF01F0CAF909
:1042E000254900F0B4FE01F0C5F994ED020A04215D
:1042F00000F0A7FF01F0BEF9204900F0A1FE01F097
:10430000B9F994ED030A042100F09BFF01F0B2F922
:104310001B4900F09CFE01F0ADF994ED040A042164
:1043200000F08FFF01F0A6F9164900F090FE01F0B1
:10433000A1F994ED060A042100F083FF01F09AF937
:10434000114900F084FE01F095F994ED070A04216B
:1043500000F077FF01F08EF90C4900F078FE01F0D3
:1043600089F994ED080A0421BDE8104000F069BF06
:104370008F670D0065670D0070670D0082670D0087
:104380009A670D00AA670D00BA670D00CC670D0093
:1043900008B501F06FF94FF4E13101F05FF9054A1A
:1043A0000549064800F071FB01F0CAFABDE8084073
:1043B00000F0FEBBDE670D00B5400D005F4A0D004A
:1043C00038B505461AB903689B68984702E0D2B22F
:1043D00000F04DFE0446284600F03DFE204438BD66
:1043E00010B5044618B901F045F914491CE001283C
:1043F00003D101F03FF9124916E0022803D101F080
:1044000039F9104910E0032803D101F033F90E49BE
:104410000AE0042803D101F02DF90C4904E0052835
:104420000AD101F027F90A4900F00AFE01F022F949
:104430000A222146FFF7C4FF10BD00BFEB670D0045
:1044400004680D0033680D0052680D0078680D0097
:1044500095680D00F7B51E46A5238DF8003008239A
:104460008DF8013041238DF802304E238DF8041071
:104470008DF80530002120238DF8063015468DF883
:1044800003008DF807100B461DF803200133072B9E
:104490001144F9D1CCB28DF8074001F0EBF82A496C
:1044A00000F0CEFD01F0E6F821461022FFF788FF6C
:1044B00001F046FA742100F0B6FB002401F040FA46
:1044C00003681DF804109B6801349847082CF5D147
:1044D00001F036FA012100F0A9FBFFF781FF32203D
:1044E00000F094FA01F02CFA1F22742100F094FBE2
:1044F00001F026FA03681B6998470335A84207466E
:104500001ED13446A31B9F4213DB01F019FA036846
:104510005B699847254604F8010B01F0ABF8297850
:10452000102200F0A4FD01F0A5F8084900F088FD74
:10453000E8E701F09FF8064900F082FD002000E066
:10454000052003B0F0BD00BFD4680D00E1690D0087
:10455000026A0D0030B59BB008AB1C22022100207E
:10456000FFF778FF0446B8B101F084F82F4900F056
:1045700067FD01F07FF8002C054604DA2D2100F0DC
:1045800063FD614200E021460A22284600F06FFDEB
:10459000284600F060FD42E09DF823209DF822307F
:1045A00043EA0223ADF804309DF825209DF824301D
:1045B00043EA0223ADF806309DF827209DF8263007
:1045C00043EA0223ADF808309DF829209DF82830F1
:1045D00043EA0223ADF80A309DF82B209DF82A30DB
:1045E00043EA0223ADF80C309DF92D209DF82C30C4
:1045F00003EB0223ADF80E30DDF82E300493DDF826
:1046000032300593DDF83630069301A8DDF83A30F4
:10461000079311A9FFF7B0FD11A8FFF745FE4FF46E
:104620007A7000F0F3F91BB030BD00BFE0680D00F8
:1046300000F038B808B5024B1B689B68019308BDB1
:104640004802030008B5024B1B681B69019308BDB3
:104650004802030008B5024B1B685B69019308BD63
:104660004802030008B5024B1B685B6C019308BD50
:104670004802030008B5024B1B689B6C019308BD00
:104680004802030008B5024B1B685B68019308BD34
:104690001802030008B5024B1B685B69019308BD53
:1046A0001802030008B5024B1B681B68019308BD84
:1046B0002C02030008B5024B1B689B68019308BDE0
:1046C0002C02030008B5024B1B68DB68019308BD90
:1046D0002C02030008B5024B1B681B69019308BD3F
:1046E0002C02030008B5024B1B68DB68019308BD70
:1046F0002802030008B5024B1B689B69019308BDA3
:104700002802030008B5024B1B68DB69019308BD52
:104710002802030008B5024B1B681B6A019308BD01
:104720002802030008B5024B1B685B6A019308BDB1
:104730002802030008B5024B1B689B6A019308BD61
:104740002802030008B5024B1B68DB6A019308BD11
:104750002802030008B5024B1B681B6B019308BDC0
:104760002802030008B5024B1B685B6B019308BD70
:104770002802030008B5024B1B681B6C019308BD9F
:104780002802030008B5024B1B681B6D019308BD8E
:104790002802030008B5024B1B685B69019308BD42
:1047A0006402030008B5024B1B689B68019308BDB7
:1047B0006802030008B5024B1B68DB68019308BD63
:1047C0006802030008B5024B1B68DB69019308BD52
:1047D0003002030008B5024B1B681B6A019308BD39
:1047E0003002030008B5024B1B681B68019308BD2B
:1047F0003C02030008B5024B1B68DB68019308BD4F
:104800003C02030008B5024B1B681B69019308BDFD
:104810003C02030008B5024B1B685B69019308BDAD
:104820003C02030008B5024B1B689B69019308BD5D
:104830003C02030008B5024B1B68DB69019308BD0D
:104840003C02030008B5024B1B681B6A019308BDBC
:104850003C02030008B5024B1B689B6A019308BD2C
:104860003C02030008B5024B1B681B68019308BD9E
:104870004C02030008B5024B1B685B68019308BD3E
:104880004C02030008B5024B1B681B69019308BD6D
:104890004C02030008B5024B1B685B69019308BD1D
:1048A0004C02030008B5024B1B689B69019308BDCD
:1048B0004C02030008B5024B1B68DB69019308BD7D
:1048C0004C02030008B5024B1B681B6A019308BD2C
:1048D0004C02030008B5024B1B685B68019308BDDE
:1048E0002002030008B5024B1B685B69019308BDF9
:1048F0002002030008B5034B1B68D3F888300193EE
:1049000008BD00002002030008B5034B1B68D3F864
:104910009430019308BD00002002030008B5024B4B
:104920001B685B68019308BD4402030008B5024B95
:104930001B68DB6B019308BD4402030008B5024B02
:104940001B685B68019308BD4002030008B5024B79
:104950001B689B68019308BD4002030008B5024B29
:104960001B68DB68019308BD4002030008B5024BD9
:104970001B681B69019308BD4002030008B5024B88
:104980001B685B69019308BD4002030008B5024B38
:104990001B689B69019308BD4002030008B5024BE8
:1049A0001B68DB69019308BD4002030008B5024B98
:1049B0001B681B6A019308BD4002030008B5024B47
:1049C0001B681B6B019308BD4002030008B5024B36
:1049D0001B685B6B019308BD4002030008B5024BE6
:1049E0001B681B68019308BD1C02030008B5024B3D
:1049F0001B685B68019308BD1C02030008B5024BED
:104A00001B689B68019308BD1C0203000021FFF78F
:104A100069BF10B50446006808B1FFF72BFE2046B9
:104A200010BD000010B5064C002320462360FFF7A0
:104A300019FE2046034A0449BDE8104000F0A6BF15
:104A4000D0E30320CCE30320134A0D0010B58368A4
:104A5000044613B1032201469847204610BD10B505
:104A600088B00446684600F063FC694604A800F07C
:104A700081FC04A8A047044604A800F012FC684684
:104A800000F00FFC204608B010BDF0B5102485B032
:104A900007460E46154600212246684601F0F9FDFC
:104AA000002269461046ADF8004002970396019532
:104AB000FFF734FF05B0F0BD002211464068FFF754
:104AC00075BF002211464068FFF780BF0022406892
:104AD000FFF774BF002281F001014068FFF75EBF5D
:104AE00000231A4619464068FFF750BF00231A46B4
:104AF00019464068FFF742BF002211464068FFF7A1
:104B000035BF002211464068FFF720BF0022022176
:104B10004068FFF723BF00231A464068FFF70EBF27
:104B2000024B03225A60024A1A607047D4E3032002
:104B3000F4680D007047F8B5064615460C468F1808
:104B4000BC4206D0336814F8011B9B683046984776
:104B5000F6E72846F8BD0022007CFFF7DBBD002108
:104B6000007CFFF7DFBD0021007CFFF7E3BD0021E3
:104B7000007CFFF7E7BD0021007CFFF7EBBD10B51F
:104B80001421044600F007FF204610BD10B504466E
:104B9000002363604FF47A73A360044B21740846CA
:104BA00023601146FFF7E6FD204610BD28690D0081
:104BB00000231A461946007CFFF794BD70B50C46D9
:104BC00086B0142506462A46002101A801F061FDA1
:104BD00023788DF8083063680393E3680493002218
:104BE000237A307CADF8045001A90593FFF7CAFD84
:104BF00006B070BD1FB500338DF800104FF0640192
:104C0000039118BF0123694601928DF80830FFF720
:104C1000D5FF05B05DF804FB0123FFF7EBBF0022D1
:104C2000007CFFF767BDC9B2FFF7F9BF0022007C27
:104C3000FFF768BD0021007CFFF794BD704710B5F9
:104C40001821044600F0A7FE204610BDF0B5037DF4
:104C5000062B8DB00E4600F104074FF0000402D081
:104C600000F1080518E00CAD394605F8304D2F234A
:104C70002A460A20FFF78EFD284601F045FD3368DD
:104C80000246DB682946304698470FE024B12E21C2
:104C9000304600F0D9F9044415F8011D0A223046C7
:104CA00000F0E5F9BD420444F0D120460DB0F0BD5E
:104CB00010B5054B0446112240F8043B002101F0D9
:104CC000E8FC204610BD00BF50690D000346074AAE
:104CD00010B543F8042B01F1100251F8044B43F8CE
:104CE000044B9142F9D10A781A7010BD50690D0039
:104CF00010B59DF8084044EA032343EA024242EA21
:104D0000016104234160037510BD37B50D788B78C0
:104D10004A78C97800912946FFF7EAFF03B030BD11
:104D2000014B024A1A607047DCE30320CF690D0093
:104D3000002211464068FFF739BE00221146406844
:104D4000FFF744BE00224068FFF738BE002281F022
:104D500001014068FFF722BE00231A460121406886
:104D6000FFF714BE00231A4619464068FFF706BE37
:104D7000002211464068FFF7F9BD00221146406845
:104D8000FFF7E4BD002202214068FFF7E7BD0023E2
:104D90001A464068FFF7D2BD38B5054688B10468A9
:104DA0004CB1A3681BB1032221462046984710212D
:104DB000204600F0F0FD28461421BDE8384000F000
:104DC000EABD38BD10B103685B681847704710B57D
:104DD00003680446BBB15868FFF72CFC78B9236818
:104DE0005A7C12B95868FFF72DFC23685868FFF702
:104DF00031FC20680023236028B1FFF7CDFF206835
:104E000008B1FFF7C9FF204610BD38B50446D0F8F9
:104E1000C40108B1FFF743F9D4F8C00108B1FFF7A6
:104E200029FCD4F8BC5135B12846FFF7D0FF042146
:104E3000284600F0B0FD206808B1FFF7C3FF204608
:104E400038BD000010B5044B044640F8083BFFF79E
:104E5000DCFF204610BD00BF446A0D0038B50E4C83
:104E60000E4B23600025022304F5E4706360A56007
:104E7000C4F8C451C4F8C851FFF7F4FB084BC4F898
:104E8000CC5184F8D05123602046064A0649BDE83B
:104E9000384000F07BBD00BFE0E30320786A0D00DE
:104EA000446A0D00CCE30320454E0D0000231A4652
:104EB0004068FFF743BD002202214068FFF74EBD66
:104EC000002211464068FFF741BD002211464068AC
:104ED000FFF74CBD00231A4619464068FFF74EBD48
:104EE00000231A4619464068FFF750BD002281F0A2
:104EF00001014068FFF752BD00224068FFF75EBD28
:104F0000002211464068FFF761BD0022114640684B
:104F1000FFF74CBD2DE9F043002495B016460D4631
:104F20000746FFF7C5FE214620220CA8009401F099
:104F3000B0FB40230C9321466B460CAA3046FFF78A
:104F400039FC0446002844D1024601216868FFF775
:104F50000DFD0221804622466868FFF707FD009E8E
:104F600081462146002E34D0002932D17368022BAD
:104F700002D00A2B09D02AE0B8F1000F27D07169BE
:104F800038460431FFF7C1FE20E0B9F1000F1ED012
:104F90007469112201A801F07CFB06238DF81430FE
:104FA00001AD04F108031834186859682A4603C291
:104FB0000833A3421546F7D101A906A807ADFFF7AC
:104FC00085FE0FCD3C1D0FC42B6823700121F669AF
:104FD000C8E70098FFF7E6FB384615B0BDE8F08358
:104FE000024B034A1A6000225A607047B4E503205E
:104FF000786A0D00F8B506460D468F180024BD42AC
:105000000CD0336815F8011B9B6830469847002880
:1050100001DB0444F3E7002C08BF04462046F8BD3A
:1050200070B505460C46084649B101F06DFB2B688A
:10503000024621462846DB68BDE87040184770BD2F
:1050400008B5FFF7EDFF08BD03689B68184708B572
:10505000FFF7E6FF08BD38B50D210546FFF7F4FF61
:105060000A2104462846FFF7EFFF204438BD30B53B
:105070008BB00B4600218DF82410012A98BF0A221C
:105080000DF12304B3FBF2F505FB123303F0FF032C
:10509000092B94BF30333733DBB2214604F8013992
:1050A0002B46002DEED1FFF7BBFF0BB030BD00004B
:1050B0002DE9F04757EC106B82460D4610EE102A92
:1050C0003B4610EE100A394601F01CFA08B14E4971
:1050D00012E027F000494FF0FF324C4B3046494672
:1050E00001F010FA68B94FF0FF32484B304649469C
:1050F00001F0EAF928B946495046FFF791FFBDE8AB
:10510000F0874FF06042434B3046394601F0F0F9EA
:1051100008B14149F0E74FF06042404B3046394614
:1051200001F0C8F90028F4D10022002330463946A6
:1051300001F0C0F940B12D215046FFF785FF07F17E
:10514000004304461F4600E0044635494FF000087E
:1051500000205FFA88F39D4206D90022314B01F00E
:1051600061F808F10108F4E732463B4600F07EFDA5
:105170000F46064601F004FA0A22014680465046D0
:10518000FFF775FF0444E5B3404600F0ABFE02466E
:105190000B463046394600F067FD06460F4650463E
:1051A0002149FFF73DFF044400221E4B304639469B
:1051B00000F00EFF06460F4601F0BAF9B0F1000903
:1051C00007DA2D215046FFF73FFFC9F10001804665
:1051D00002E049464FF000080A225046FFF747FF19
:1051E00040440444484600F08DFE02460B463046DB
:1051F000394600F039FD013D15F0FF0506460F4622
:10520000D2D12046BDE8F087A46A0D00FFFFEF7FF2
:10521000AE6A0D00FFFFEF41A86A0D00FFFFEFC16E
:105220000000E03F00002440AC6A0D0038B5C9B270
:105230000546FFF73DFF04462846FFF70CFF2044D4
:1052400038BD38B5044610EE100A0D4600F06CFE6D
:1052500041EC100B29462046BDE83840FFF7E6BF79
:1052600010B50446FFF7F2FB204610BD0348044A80
:1052700004490023836000F089BB00BFBCE5032024
:10528000CCE3032061520D0010B5044601700846BE
:10529000FFF798FA00236360204610BD0078FFF7FF
:1052A00099BA10B504460068FFF7A0FB204610BD70
:1052B00010B50446006808B1FFF798FB002323608F
:1052C000A360636010BD38B504460D460068013127
:1052D000FFF794FB10B184E82100012038BD10B520
:1052E0000368044613B143688B4207D22046FFF798
:1052F000EAFF20B1A3680BB922681370012010BD2A
:1053000070B50E46114604461546FFF7E8FF18B97A
:105310002046FFF7CDFF09E02A463146A560206808
:1053200001F0ACF92268A3680021D154204670BD79
:1053300038B50023044603604360836003730D4661
:1053400039B1084601F0E0F9294602462046FFF748
:10535000D7FF204638BD884210B50B46044607D01B
:10536000096819B19A68FFF7CBFF01E0FFF7A0FFCA
:10537000204610BD10B500230446036043608360DF
:105380000373FFF7E8FF204610BD08B582680B469F
:1053900012B919B9012008BD11B90368187802E0E3
:1053A000006801F0A7F9B0FA80F0400908BD10B517
:1053B000144683688A689B1AA3420AD3006858B1CE
:1053C000096841B1204401F0A7F9B0FA80F0400922
:1053D00010BD002010BD084610BD82688B689A423F
:1053E00002D30022FFF7E3BF0020704783688B429F
:1053F00003D9006810B1405C704700207047FFF788
:10540000F5BF0000F8B59A420F461D460C4988BF0B
:1054100013461446064684BF2C461D46FFF788FFF8
:10542000BA6894420AD83968954294BFC4EB050221
:10543000C4EB020221443046FFF762FF3046F8BD5C
:10544000036A0D0010B50446006818B1FFF7CEFAE4
:105450000023236010BD10B50446FFF7F3FF20467C
:1054600010BD000010B5094C00204FF6FF732060FE
:10547000A080A07120816381FFF72CFA2046044AA6
:105480000449BDE8104000F081BA00BFCCE503201C
:10549000CCE3032057540D00024B1A68024B1A60EC
:1054A000704700BF64E30320D8E5032070474174D0
:1054B000704708B5007CFFF7CDF920EAE07008BD21
:1054C00008B5007CFFF79EF920EAE07008BD08B53A
:1054D000007CFFF7A7F930EA200028BF4FF0FF302B
:1054E00008BD08B5007CFFF795F930EA200028BF19
:1054F0004FF0FF3008BD007CFFF79CB910B51421B8
:10550000044600F048FA204610BD70B5457C0446BC
:105510000E4625B9007CFFF79DF9002805DD3146D0
:10552000207CBDE87040FFF765B9284670BD0000DB
:1055300010B5044608461146002262604FF47A72A4
:10554000A260054A22600122207462741A46FFF7A5
:1055500049F9204610BD00BFE46A0D00007CFFF74A
:1055600071B9000038B50C4D296811F0010411D152
:105570002846FEF796FD68B1084A094B09482146BE
:10558000FFF7D6FF2846FEF791FD074A0749054871
:1055900000F0FCF9034838BD74E6032078E60320E8
:1055A000F0E50320DCE50320CCE30320AD540D003F
:1055B00041747047704708B50021007CFFF772F90D
:1055C00030EA200028BF4FF0FF3008BD08B50121A8
:1055D000007CFFF767F930EA200028BF4FF0FF306A
:1055E00008BD08B5007CFFF755F920EAE07008BD5A
:1055F00008B5007CFFF746F920EAE07008BD007CA2
:10560000FFF760B910B51421044600F0C4F9204634
:1056100010BD38B50446007C0D46FFF73BF9002865
:1056200001DC607C28B12946207CFFF743F920EAA1
:10563000E07038BD10B50446002363604FF47A7300
:10564000A360054B2360012308462174637411464F
:10565000FFF708F9204610BD146B0D000022007CF6
:10566000FFF708B910B514220446002101F011F823
:10567000204610BD30B50E4D87B001A8FFF7F2FFF0
:10568000296811F0010410D12846FEF70AFD60B127
:1056900001AA21460748FFF7CDFF2846FEF706FD81
:1056A000054A0649034800F071F9024807B030BDC9
:1056B000FCE6032000E70320CCE30320B5550D00F2
:1056C000002211464068FFF751B900221146406898
:1056D000FFF76CB9002211464068FFF777B9002246
:1056E0004068FFF76BB9002281F001014068FFF7C5
:1056F00055B900231A4619464068FFF747B90023F9
:105700001A4619464068FFF739B900221146406829
:10571000FFF71CB9002202214068FFF71FB90023E0
:105720001A464068FFF70AB9024B04225A60024A3F
:105730001A60704714E70320446B0D0008B50C4B4A
:1057400033B1FFF797FF03681B699847002809DC0E
:10575000084B63B1FFF706FF03681B6998470028F1
:1057600003DC08BDAFF30080F2E7AFF3008008BDB3
:10577000000000000000000008B5FFF7DFFFFEF7A3
:1057800089FF014B186008BD30E703200248034A37
:105790000349121A00F072BF00F4032004F403203E
:1057A000106C0D0007B5002300931A466FF07701C7
:1057B000FFF7AAF803B05DF804FB000007B54388C3
:1057C0000A2B08D0502B09D1094B1B683BB103B001
:1057D0005DF804EB1847FFF7E5FF06E000230093B0
:1057E0001A466FF07701FFF78FF803B05DF804FBFE
:1057F0001CE7032038B5104C104D2368AB42104B0A
:105800000CBF012200221A7002D0FFF7BFFF2560F3
:10581000FEF738FF044600F045FF0A4B13B120465F
:10582000AFF3008000210748FFF780F80021064809
:10583000BDE83840FFF75EB800F403201E1C279A2D
:1058400020E7032000000000BD570D0070B5184E82
:10585000316811F0010504460AD13046FEF721FCFB
:1058600030B129461348FFF70FFD3046FEF71EFC06
:105870001048FFF713FD28B1A4F10B03022B01D848
:10588000002070BD00F05CF8FFF7D4F908B1012CDE
:10589000F6D9FFF767FEFFF761FE18B1A4F109031F
:1058A000012BEDD9232C8CBF0020012070BD00BF3F
:1058B00024E7032028E70320232838B504460D46B3
:1058C0000AD8FF2908D0FFF7C1FF28B12946204692
:1058D000BDE83840FEF7EEBE38BD38B504460D468B
:1058E000FEF7F0FEFF2810D0062804D84D2323FA37
:1058F00000F0C30709D42046FFF7A8FF28B12946C6
:105900002046BDE83840FEF7E5BE38BD70B5044618
:1059100014252A46094E002100F0BBFE25802025D3
:105920003146A5602561284600F04FF83146606099
:10593000284600F04AF8E060204670BD706B0D000C
:1059400030B50E4D296811F0010487B013D12846F7
:10595000FEF7A7FB78B101A8FFF7D8FF01AA2146FF
:105960000748FFF713F92846FEF7A0FB054A06494A
:10597000034800F00BF8024807B030BD34E70320BD
:1059800038E70320CCE30320354B0D000B460146DE
:10599000184600F065BEFEF780BB0000024B186899
:1059A000BFF35F8F704700BF4CE7032010B500289E
:1059B00014BF044601242046FFF710F820B9FFF772
:1059C000EDFF08B18047F6E710BDFFF7EFBF00001D
:1059D000244B1A68D0075CBF01221A60224B1A6858
:1059E000D1075CBF01221A60204B1A68D2075CBF46
:1059F00001221A601E4B1A68D0075CBF01221A6090
:105A00001C4B1A68D1075CBF01221A601A4B1A6836
:105A1000D2075CBF01221A60184B1A68D0075CBF1E
:105A200001221A60164B1A68D1075CBF01221A6066
:105A3000144B1A68D2075CBF01221A60124B1A6815
:105A4000D0075CBF01221A60104B1A68D1075CBFF7
:105A500001221A600E4B1A68D2075CBF01221A603D
:105A6000704700BF7CE7032078E7032074E703203A
:105A700070E703206CE7032068E7032064E7032056
:105A800060E703205CE7032058E7032054E7032086
:105A900050E70320184B1A68D1075CBF01221A6037
:105AA000164B1A68D2075CBF01221A60144B1A68A1
:105AB000D0075CBF01221A60124B1A68D1075CBF85
:105AC00001221A60104B1A68D2075CBF01221A60CB
:105AD0000E4B1A68D0075CBF01221A600C4B1A6883
:105AE000D1075CBF01221A600A4B1A68D2075CBF5B
:105AF00001221A60704700BF9CE7032098E703204B
:105B000094E7032090E703208CE7032088E7032035
:105B100084E7032080E70320184B1A68D1075CBF95
:105B200001221A60164B1A68D2075CBF01221A6064
:105B3000144B1A68D0075CBF01221A60124B1A6816
:105B4000D1075CBF01221A60104B1A68D2075CBFF4
:105B500001221A600E4B1A68D0075CBF01221A603E
:105B60000C4B1A68D1075CBF01221A600A4B1A68F5
:105B7000D2075CBF01221A60704700BFBCE7032058
:105B8000B8E70320B4E70320B0E70320ACE7032025
:105B9000A8E70320A4E70320A0E70320244B1A680A
:105BA000D0075CBF01221A60224B1A68D1075CBF84
:105BB00001221A60204B1A68D2075CBF01221A60CA
:105BC0001E4B1A68D0075CBF01221A601C4B1A6872
:105BD000D1075CBF01221A601A4B1A68D2075CBF5A
:105BE00001221A60184B1A68D0075CBF01221A60A4
:105BF000164B1A68D1075CBF01221A60144B1A6851
:105C0000D2075CBF01221A60124B1A68D0075CBF32
:105C100001221A60104B1A68D1075CBF01221A607A
:105C20000E4B1A68D2075CBF01221A60704700BF92
:105C3000ECE70320E8E70320E4E70320E0E70320A4
:105C4000DCE70320D8E70320D4E70320D0E70320D4
:105C5000CCE70320C8E70320C4E70320C0E7032004
:105C600081F0004102E000BF83F0004330B54FEA0D
:105C700041044FEA430594EA050F08BF90EA020F7A
:105C80001FBF54EA000C55EA020C7FEA645C7FEA0D
:105C9000655C00F0E2804FEA5454D4EB5555B8BF30
:105CA0006D420CDD2C4480EA020281EA030382EAA1
:105CB000000083EA010180EA020281EA0303362D33
:105CC00088BF30BD11F0004F4FEA01314FF4801C06
:105CD0004CEA113102D0404261EB410113F0004F18
:105CE0004FEA03334CEA133302D0524263EB4303CF
:105CF00094EA050F00F0A780A4F10104D5F1200E6D
:105D00000DDB02FA0EFC22FA05F2801841F10001C7
:105D100003FA0EF2801843FA05F359410EE0A5F19B
:105D200020050EF1200E012A03FA0EFC28BF4CF0CC
:105D3000020C43FA05F3C01851EBE37101F0004582
:105D400007D54FF0000EDCF1000C7EEB00006EEB8F
:105D50000101B1F5801F1BD3B1F5001F0CD3490819
:105D60005FEA30004FEA3C0C04F101044FEA445270
:105D700012F5800F80F09A80BCF1004F08BF5FEAF7
:105D8000500C50F1000041EB045141EA050130BDD7
:105D90005FEA4C0C404141EB010111F4801FA4F17A
:105DA0000104E9D191F0000F04BF01460020B1FACF
:105DB00081F308BF2033A3F10B03B3F120020CDA07
:105DC0000C3208DD02F1140CC2F10C0201FA0CF0E5
:105DD00021FA02F10CE002F11402D8BFC2F1200C4A
:105DE00001FA02F120FA0CFCDCBF41EA0C01904000
:105DF000E41AA2BF01EB0451294330BD6FEA040449
:105E00001F3C1CDA0C340EDC04F11404C4F1200233
:105E100020FA04F001FA02F340EA030021FA04F345
:105E200045EA030130BDC4F10C04C4F1200220FA9C
:105E300002F001FA04F340EA0300294630BD21FADA
:105E400004F0294630BD94F0000F83F4801306BFA0
:105E500081F480110134013D4EE77FEA645C18BF94
:105E60007FEA655C29D094EA050F08BF90EA020F2B
:105E700005D054EA000C04BF1946104630BD91EA23
:105E8000030F1EBF0021002030BD5FEA545C05D126
:105E90004000494128BF41F0004130BD14F5800465
:105EA0003CBF01F5801130BD01F0004545F0FE41D9
:105EB00041F470014FF0000030BD7FEA645C1ABF0E
:105EC000194610467FEA655C1CBF0B46024650EA45
:105ED000013406BF52EA033591EA030F41F4002171
:105EE00030BD00BF90F0000F04BF0021704730B5F7
:105EF0004FF4806404F132044FF000054FF00001CC
:105F000050E700BF90F0000F04BF0021704730B58C
:105F10004FF4806404F1320410F0004548BF404261
:105F20004FF000013EE700BF42004FEAE2014FEAB6
:105F300031014FEA02701FBF12F07F4393F07F4F91
:105F400081F06051704792F0000F14BF93F07F4FC3
:105F5000704730B54FF4607401F0004521F0004106
:105F600020E700BF50EA010208BF704730B54FF08C
:105F700000050AE050EA010208BF704730B511F091
:105F8000004502D5404261EB41014FF4806404F1C9
:105F900032045FEA915C3FF4DCAE4FF003025FEA4B
:105FA000DC0C18BF03325FEADC0C18BF033202EBD3
:105FB000DC02C2F1200300FA03FC20FA02F001FA2D
:105FC00003FE40EA0E0021FA02F11444C1E600BFCC
:105FD00070B54FF0FF0C4CF4E06C1CEA11541DBF7F
:105FE0001CEA135594EA0C0F95EA0C0F00F0DEF84A
:105FF0002C4481EA030621EA4C5123EA4C5350EA2F
:10600000013518BF52EA033541F4801143F480137F
:1060100038D0A0FB02CE4FF00005E1FB02E506F010
:106020000042E0FB03E54FF00006E1FB03569CF065
:10603000000F18BF4EF0010EA4F1FF04B6F5007F6B
:1060400064F5407404D25FEA4E0E6D4146EB0606DD
:1060500042EAC62141EA55514FEAC52040EA5E5066
:106060004FEACE2EB4F1FD0C88BFBCF5E06F1ED810
:10607000BEF1004F08BF5FEA500E50F1000041EB47
:10608000045170BD06F0004646EA010140EA0200F4
:1060900081EA0301B4EB5C04C2BFD4EB0C0541EA16
:1060A000045170BD41F480114FF0000E013C00F32B
:1060B000AB8014F1360FDEBF002001F0004170BD4F
:1060C000C4F10004203C35DA0C341BDC04F1140468
:1060D000C4F1200500FA05F320FA04F001FA05F2F4
:1060E00040EA020001F0004221F0004110EBD370C1
:1060F00021FA04F642EB06015EEA430E08BF20EAED
:10610000D37070BDC4F10C04C4F1200500FA04F38F
:1061100020FA05F001FA04F240EA020001F0004121
:1061200010EBD37041F100015EEA430E08BF20EA94
:10613000D37070BDC4F1200500FA05F24EEA020EDC
:1061400020FA04F301FA05F243EA020321FA04F00B
:1061500001F0004121FA04F220EA020000EBD370C2
:106160005EEA430E08BF20EAD37070BD94F0000FC2
:106170000FD101F00046400041EB010111F4801FF6
:1061800008BF013CF7D041EA060195F0000F18BFA7
:10619000704703F00046520043EB030313F4801FE3
:1061A00008BF013DF7D043EA0603704794EA0C0F9D
:1061B0000CEA135518BF95EA0C0F0CD050EA4106B3
:1061C00018BF52EA4306D1D181EA030101F0004130
:1061D0004FF0000070BD50EA410606BF1046194658
:1061E00052EA430619D094EA0C0F02D150EA013664
:1061F00013D195EA0C0F05D152EA03361CBF1046A5
:1062000019460AD181EA030101F0004141F0FE4143
:1062100041F470014FF0000070BD41F0FE4141F4C7
:10622000780170BD70B54FF0FF0C4CF4E06C1CEAC7
:1062300011541DBF1CEA135594EA0C0F95EA0C0F7C
:1062400000F0A7F8A4EB050481EA030E52EA033537
:106250004FEA013100F088804FEA03334FF0805558
:1062600045EA131343EA12634FEA022245EA111585
:1062700045EA10654FEA00260EF000419D4208BF36
:10628000964244F1FD0404F5407402D25B084FEAE3
:106290003202B61A65EB03055B084FEA32024FF48F
:1062A00080104FF4002CB6EB020E75EB030E22BFEC
:1062B000B61A754640EA0C005B084FEA3202B6EBAC
:1062C000020E75EB030E22BFB61A754640EA5C005B
:1062D0005B084FEA3202B6EB020E75EB030E22BFEB
:1062E000B61A754640EA9C005B084FEA3202B6EBEC
:1062F000020E75EB030E22BFB61A754640EADC00AB
:1063000055EA060E18D04FEA051545EA16754FEA0C
:1063100006164FEAC30343EA52734FEAC2025FEA2A
:106320001C1CC0D111F4801F0BD141EA00014FF0B9
:1063300000004FF0004CB6E711F4801F04BF01438A
:106340000020B4F1FD0C88BFBCF5E06F3FF6AFAEA6
:10635000B5EB030C04BFB6EB020C5FEA500C50F136
:10636000000041EB045170BD0EF0004E4EEA1131B9
:1063700014EB5C04C2BFD4EB0C0541EA045170BDC0
:1063800041F480114FF0000E013C90E645EA060E04
:106390008DE60CEA135594EA0C0F08BF95EA0C0F32
:1063A0003FF43BAF94EA0C0F0AD150EA01347FF47A
:1063B00034AF95EA0C0F7FF425AF104619462CE751
:1063C00095EA0C0F06D152EA03353FF4FDAE1046B4
:1063D000194622E750EA410618BF52EA43067FF405
:1063E000C5AE50EA41047FF40DAF52EA43057FF495
:1063F000EBAE12E74FF0FF3C06E000BF4FF0010CA0
:1064000002E000BF4FF0010C4DF804CD4FEA410C03
:106410007FEA6C5C4FEA430C18BF7FEA6C5C1BD0D0
:1064200001B050EA410C0CBF52EA430C91EA030F51
:1064300002BF90EA020F0020704710F1000F91EAAE
:10644000030F58BF994208BF90422CBFD8176FEA7C
:10645000E37040F0010070474FEA410C7FEA6C5C4A
:1064600002D150EA013C07D14FEA430C7FEA6C5C51
:10647000D6D152EA033CD3D05DF8040B704700BF7D
:106480008446104662468C461946634600E000BFCB
:1064900001B5FFF7B7FF002848BF10F1000F01BD9D
:1064A0004DF808EDFFF7F4FF0CBF012000205DF868
:1064B00008FB00BF4DF808EDFFF7EAFF34BF0120ED
:1064C00000205DF808FB00BF4DF808EDFFF7E0FF86
:1064D00094BF012000205DF808FB00BF4DF808EDD7
:1064E000FFF7CEFF94BF012000205DF808FB00BF3E
:1064F0004DF808EDFFF7C4FF34BF012000205DF820
:1065000008FB00BF4FEA410C7FEA6C5C02D150EA05
:10651000013C0AD14FEA430C7FEA6C5C02D152EA9B
:10652000033C02D14FF0000070474FF0010070476C
:106530004FEA410212F5001215D211D56FF47873AB
:10654000B3EB625212D94FEAC12343F0004343EA4E
:10655000505311F0004F23FA02F018BF4042704729
:106560004FF00000704750EA013005D111F00040B3
:1065700008BF6FF0004070474FF00000704700BF49
:106580004A0011D212F5001211D20DD56FF47873B2
:10659000B3EB62520ED44FEAC12343F0004343EA07
:1065A000505323FA02F070474FF00000704750EA52
:1065B000013002D14FF0FF3070474FF000007047BC
:1065C0004FEA4102B2F1E04324BFB3F5001CDCF115
:1065D000FE5C0DD901F0004C4FEAC0024CEA50704D
:1065E000B2F1004F40EB830008BF20F0010070477C
:1065F00011F0804F21D113F13872BCBF01F000407F
:10660000704741F480114FEA5252C2F11802C2F1B0
:10661000200C10FA0CF320FA02F018BF40F0010031
:106620004FEAC1234FEAD32303FA0CFC40EA0C00E3
:1066300023FA02F34FEA4303CCE77FEA625307D120
:1066400050EA01331EBF4FF0FE4040F44000704757
:1066500001F0004040F0FE4040F40000704700BFF1
:1066600010B5054C13462CB10A4601460220AFF383
:10667000008010BD204610BD0000000010B5431E74
:106680000A44914204D011F8014B03F8014FF8E796
:1066900010BD02440346934202D003F8011BFAE7FF
:1066A0007047000038B5124B1C68A36B0546D3B980
:1066B0001820FEF793F943F20E33A06303804AF6E5
:1066C000CD33438041F2342383804EF26D63C38027
:1066D0004DF6EC630381052343810B238381012263
:1066E0000023C0E90423A36B00221D615A6138BD59
:1066F000C8E3032010F8012B11F8013B012A28BF41
:106700009A42F7D0D01A7047034613F8012B002A9B
:10671000FBD1181A0138704730B582B1451E0139D6
:1067200015F8013F11F8014FA34206D1EC43144480
:10673000E04201D0002BF3D11C46181B30BD10469F
:1067400030BD000021400D005D400D0089400D006E
:106750008D400D000000000048494748004C4F574D
:10676000004400410043757272656E74203D200044
:106770004C696E65204672657175656E6379203D62
:106780002000416E616C6F6720496E7075742056F1
:106790006F6C74616765203D2000506F77657220D3
:1067A000466163746F72203D2000416374697665B1
:1067B00020506F776572203D2000526561637469D7
:1067C000766520506F776572203D200041707061C2
:1067D00072656E7420506F776572203D2000646989
:1067E000676974616C77726974650049324320622D
:1067F0007573205374617475732053756363657387
:10680000733A3A00427573792074696D656F7574D7
:106810002075706F6E20656E746572696E67206595
:106820006E645472616E736D697373696F6E28293B
:106830003A3A005374617274206269742067656E1D
:1068400065726174696F6E2074696D656F75743AF5
:106850003A00656E64206F662061646472657373CC
:10686000207472616E736D697373696F6E207469E1
:106870006D656F75743A3A00446174612062797491
:1068800065207472616E736665722074696D656FE0
:1068900075743A3A004461746120627974652074B9
:1068A00072616E7366657220737563636565646596
:1068B000642C20627573792074696D656F7574201E
:1068C000696D6D6564696174656C79206166746574
:1068D000723A3A00436865636B73756D203D200022
:1068E00072657476616C203D20000000000000009D
:1068F00000000000174B0D000D4B0D00034B0D0069
:10690000F94A0D00ED4A0D00E14A0D00D54A0D008F
:10691000CD4A0D00C34A0D00B94A0D00154F0D00B8
:106920000000000000000000354B0D007F4B0D0003
:10693000574B0D00374B0D005F4B0D00674B0D00A3
:106940006F4B0D00774B0D000000000000000000B1
:106950004D4C0D003D4C0D003F4C0D0062617564C7
:106960000053657269616C0053657269616C310036
:106970007479706500706172616D00636D640069A7
:106980006400686E64007374726D0066696C7400F4
:106990006C766C0061646448616E646C6572007250
:1069A000656D6F766548616E646C657200656E75C5
:1069B0006D48616E646C657273004A534F4E537438
:1069C0007265616D4C6F6748616E646C65720061E1
:1069D000707000253031307520005D200025640086
:1069E0002C200028293A2000205B00636F6465207A
:1069F0003D200025690064657461696C73203D2049
:106A0000000D0A006C6E00666E00636F64650064C2
:106A1000657461696C006E6F6E65007472616365A8
:106A200000696E666F007761726E006572726F72D8
:106A30000070616E696300616C6C00000000000012
:106A4000000000008F4D0D00854D0D007B4D0D00A9
:106A5000714D0D00654D0D00594D0D004D4D0D0052
:106A6000454D0D003B4D0D00314D0D00154F0D00F6
:106A70000000000000000000AD4E0D00B74E0D00FC
:106A8000C14E0D00CB4E0D00D54E0D00E14E0D0058
:106A9000ED4E0D00F94E0D00014F0D000B4F0D0096
:106AA000154F0D006E616E006F7666002E00696EE8
:106AB00066005A00252B3033643A253032750025A4
:106AC000592D256D2D25645425483A254D3A2553D9
:106AD000257A0061736374696D6500000000000031
:106AE00000000000AD540D00FD540D000B550D00CD
:106AF000F54F0D00C1540D00E3540D00CF540D00AF
:106B0000F7540D00AF540D00B3540D000000000009
:106B100000000000B5550D0005560D0013560D0080
:106B2000F54F0D00F1550D00B7550D00CD550D0079
:106B3000FF550D00E3550D00B1550D00000000009C
:106B4000000000001F570D0015570D000B570D00DA
:106B5000C1560D00FF560D00F3560D00E7560D000F
:106B6000DF560D00D5560D00CB560D00154F0D000C
:106B70000000000000000000000000000000000015
:106B80000000000000000000000000000000000005
:106B900000000000000000000000000000000000F5
:106BA00000000000000000000000000000000000E5
:106BB00000000000000000000000000000000000D5
:106BC00000000000000000000000000000000000C5
:106BD000000000004300000031460D00254A0D0072
:106BE000214B0D00214D0D005D4E0D00E14F0D00BC
:106BF0006D520D0065540D0099540D0029570D007C
:106C0000D1590D00955A0D00195B0D009D5B0D00CB
:046C10000000000080
:106C1400D36A0D0000000000746B0D00946B0D002E
:106C2400B46B0D0000000000000000000000000034
:106C340000000000D46B0D00000000000000000004
:106C44000000000000000000000000000000000040
:106C54000000000000000000000000000000000030
:106C64000000000000000000000000000000000020
:086C74000000000068E30320AA
:106C7C00FFFFFFFF00000102030405060708090AD5
:106C8C000B0C0D0E0F101112131415161718191AD0
:086C9C001B1C1D1E1F20280017
:046CA40078563412D8
:04000003D0004020C9
:00000001FF
