:02000002D0002C
:1040000000400D00F8590D00000006000C000501ED
:084010000401E80500000000B6
:044018007C540D00C7
:10401C0009480A49884208B505D0094A824202D0AB
:10402C00121A01F0E1F90748074A0021121A01F0AF
:10403C00E6F9014808BD00BF38E3032064590D00C0
:10404C00A4E30320A4E30320F0E7032070B500F001
:10405C00E7FF074C074BE41AA40800251E46A542AF
:10406C0004D056F8253098470135F8E770BD00BFED
:10407C0060590D0028590D0000F014B808B500F077
:10408C0079F8BDE8084000F08DBF00F0C5BA00F02B
:10409C00C3BA0078B0FA80F040097047012303706E
:1040AC007047000008B50C48002319461A464068B2
:1040BC0000F082FA00F0F4FE4FF4E13100F0E4FE7F
:1040CC0000F0F4FF054900F055FB00F0EFFFBDE8F0
:1040DC00084000F053BB00BF20E70320A08601007E
:1040EC0038B505461AB903689B68984702E0D2B206
:1040FC0000F08DFD0446284600F073FD204438BDC9
:10410C0010B5044618B900F0CBFE14491CE0012888
:10411C0003D100F0C5FE124916E0022803D100F0CD
:10412C00BFFE104910E0032803D100F0B9FE0E4980
:10413C000AE0042803D100F0B3FE0C4904E0052882
:10414C000AD100F0ADFE0A4900F044FD00F0A8FED3
:10415C000A222146FFF7C4FF10BD00BF09550D0010
:10416C0023550D0053550D0073550D009A550D0038
:10417C00B8550D002DE9F0434A4A4B48A5230221BE
:10418C001370117108234E2153705171412320215A
:10419C009370917100230168D37085B0D37114466C
:1041AC00E25C404E0133072B1144F9D13F4DF171C4
:1041BC002B60016000F074FE3D4900F00BFD00F037
:1041CC006FFEF1793B4E1022FFF78AFF00F06EFF75
:1041DC00317800F0F5FA002337462B602E462B6819
:1041EC00DFF8C880072B0ADC00F060FF3268036838
:1041FC00A15C9B689847336801333360EFE700F0AC
:10420C0055FF012100F0E0FA2B4B1870FFF778FFF7
:10421C00052000F009FA00F049FF3B788DF80030DA
:10422C0001238DF8083064230393694623230193FB
:10423C0000F0AAFA232823D800F038FF03681F4F98
:10424C001B69984700238146C8F8003044462E6805
:10425C00B1451ADB00F02AFF03685B699847B85533
:10426C0000F01EFE23681022F95C00F0D0FC00F078
:10427C0017FE134900F0AEFC236801332360E6E718
:10428C0000F00EFE0F4900F0B8FC00F009FE0E49DC
:10429C0000F0A0FC4FF47A7000F0C6F905B0BDE850
:1042AC00F08300BFD0E30320ACE30320A8E303209A
:1042BC00F8550D0038E30320D8E30320B0E30320C6
:1042CC0039570D0004560D005A570D0000F038B840
:1042DC0008B5024B1B689B68019308BD480203009C
:1042EC0008B5024B1B681B69019308BD480203000B
:1042FC0008B5024B1B685B69019308BD48020300BB
:10430C0008B5024B1B685B6C019308BD48020300A7
:10431C0008B5024B1B689B6C019308BD4802030057
:10432C0008B5024B1B685B68019308BD18020300BB
:10433C0008B5024B1B685B69019308BD18020300AA
:10434C0008B5024B1B681B68019308BD2C020300C7
:10435C0008B5024B1B681B68019308BD28020300BB
:10436C0008B5024B1B68DB68019308BD28020300EB
:10437C0008B5024B1B689B69019308BD280203001A
:10438C0008B5024B1B68DB69019308BD28020300CA
:10439C0008B5024B1B681B6A019308BD2802030079
:1043AC0008B5024B1B685B6A019308BD2802030029
:1043BC0008B5024B1B689B6A019308BD28020300D9
:1043CC0008B5024B1B68DB6A019308BD2802030089
:1043DC0008B5024B1B681B6B019308BD2802030038
:1043EC0008B5024B1B681B6C019308BD2802030027
:1043FC0008B5024B1B681B6D019308BD2802030016
:10440C0008B5024B1B685B69019308BD640203008D
:10441C0008B5024B1B689B68019308BD680203003A
:10442C0008B5024B1B68DB68019308BD68020300EA
:10443C0008B5024B1B681B68019308BD3C020300C6
:10444C0008B5024B1B68DB68019308BD3C020300F6
:10445C0008B5024B1B681B69019308BD3C020300A5
:10446C0008B5024B1B685B69019308BD3C02030055
:10447C0008B5024B1B689B69019308BD3C02030005
:10448C0008B5024B1B68DB69019308BD3C020300B5
:10449C0008B5024B1B689B6A019308BD3C020300E4
:1044AC0008B5024B1B681B68019308BD4C02030046
:1044BC0008B5024B1B685B68019308BD4C020300F6
:1044CC0008B5024B1B681B69019308BD4C02030025
:1044DC0008B5024B1B685B69019308BD4C020300D5
:1044EC0008B5024B1B689B69019308BD4C02030085
:1044FC0008B5024B1B68DB69019308BD4C02030035
:10450C0008B5024B1B681B6A019308BD4C020300E3
:10451C0008B5024B1B685B68019308BD20020300C1
:10452C0008B5024B1B685B69019308BD20020300B0
:10453C0008B5034B1B68D3F88830019308BD000005
:10454C002002030008B5034B1B68D3F89430019389
:10455C0008BD00002002030008B5024B1B68DB6B92
:10456C00019308BD4402030008B5024B1B685B684D
:10457C00019308BD4002030008B5024B1B689B6801
:10458C00019308BD4002030008B5024B1B68DB68B1
:10459C00019308BD4002030008B5024B1B681B6960
:1045AC00019308BD4002030008B5024B1B685B6910
:1045BC00019308BD4002030008B5024B1B689B69C0
:1045CC00019308BD4002030008B5024B1B68DB6970
:1045DC00019308BD4002030008B5024B1B681B6A1F
:1045EC00019308BD4002030008B5024B1B681B6B0E
:1045FC00019308BD4002030008B5024B1B685B6BBE
:10460C00019308BD4002030008B5024B1B681B68F0
:10461C00019308BD1C02030008B5024B1B685B68C4
:10462C00019308BD1C0203000021FFF779BF10B5F0
:10463C000446006808B1FFF76BFE204610BD000071
:10464C0010B5064C002320462360FFF759FE204688
:10465C00034A0449BDE8104000F04EBDDCE30320E2
:10466C00A4E303203B460D0010B58368044613B148
:10467C00032201469847204610BD0022114640688F
:10468C00FFF7AABF002211464068FFF7B5BF002212
:10469C004068FFF7A9BF002281F001014068FFF7D5
:1046AC0093BF00231A4619464068FFF785BF0023C5
:1046BC001A4619464068FFF777BF0022114640683A
:1046CC00FFF76ABF002211464068FFF755BF002272
:1046DC0002214068FFF758BF00231A464068FFF7D5
:1046EC0043BF0000024B03225A60024A1A60704713
:1046FC00E0E303204C560D007047F8B5064615460E
:10470C000C468F18BC4206D0336814F8011B9B680A
:10471C0030469847F6E72846F8BD0022007CFFF7A4
:10472C0037BE0021007CFFF73BBE0021007CFFF769
:10473C003FBE0021007CFFF743BE0021007CFFF749
:10474C0047BE10B51421044600F0DBFC204610BD1A
:10475C0010B50446002363604FF47A73A360044BD6
:10476C002174084623601146FFF73AFE204610BD1F
:10477C0080560D000022007CFFF7EABD00231A468C
:10478C001946007CFFF7ECBD70B50C4686B01425BD
:10479C0006462A46002101A800F031FE23788DF848
:1047AC00083063680393E36804930022237A307C17
:1047BC00ADF8045001A90593FFF71AFE06B070BDC1
:1047CC000022007CFFF7D4BD0022007CFFF7D8BD8F
:1047DC00704710B51821044600F093FC204610BD1C
:1047EC00F0B5037D062B8DB00E4600F104074FF09B
:1047FC00000402D000F1080518E00CAD394605F8AC
:10480C00304D2F232A460A20FFF7FAFD284600F0E8
:10481C0027FE33680246DB682946304698470FE08E
:10482C0024B12E21304600F0D9F9044415F8011DAD
:10483C000A22304600F0EBF9BD420444F0D1204688
:10484C000DB0F0BD10B5054B0446112240F8043BE9
:10485C00002100F0D4FD204610BD00BFA8560D006D
:10486C000346074A10B543F8042B01F1100251F826
:10487C00044B43F8044B9142F9D10A781A7010BDDD
:10488C00A8560D0010B59DF8084044EA032343EAEE
:10489C00024242EA016104234160037510BD37B541
:1048AC000D788B784A78C97800912946FFF7EAFF92
:1048BC0003B030BD014B024A1A607047E8E3032095
:1048CC0027570D00002211464068FFF785BE0022D5
:1048DC0011464068FFF790BE00224068FFF784BE87
:1048EC00002281F001014068FFF76EBE00231A46DA
:1048FC0001214068FFF760BE00231A461946406844
:10490C00FFF752BE002211464068FFF745BE002259
:10491C0011464068FFF730BE002202214068FFF7C5
:10492C0033BE00231A464068FFF71EBE38B5054655
:10493C0088B104684CB1A3681BB103222146204600
:10494C0098471021204600F0DCFB28461421BDE8D6
:10495C00384000F0D6BB38BD10B103685B6818470F
:10496C00704710B503680446BBB15868FFF7B0FC3C
:10497C0078B923685A7C12B95868FFF7B1FC2368E0
:10498C005868FFF7B5FC20680023236028B1FFF7B7
:10499C00CDFF206808B1FFF7C9FF204610BD38B520
:1049AC000446D0F8C40108B1FFF771FBD4F8C0017C
:1049BC0008B1FFF7ADFCD4F8BC5135B12846FFF770
:1049CC00D0FF0421284600F09CFB206808B1FFF7BB
:1049DC00C3FF204638BD000010B5044B044640F818
:1049EC00083BFFF7DCFF204610BD00BFA0570D00B1
:1049FC0038B50E4C0E4B23600025022304F5E470F1
:104A0C006360A560C4F8C451C4F8C851FFF778FCC2
:104A1C00084BC4F8CC5184F8D05123602046064A88
:104A2C000649BDE8384000F067BB00BFECE303204B
:104A3C00D4570D00A0570D00A4E30320E5490D0049
:104A4C0000231A464068FFF78FBD00220221406800
:104A5C00FFF79ABD002211464068FFF78DBD00227A
:104A6C0011464068FFF798BD00231A461946406866
:104A7C00FFF79ABD00231A4619464068FFF79CBD04
:104A8C00002281F001014068FFF79EBD00224068C2
:104A9C00FFF7AABD002211464068FFF7ADBD00220A
:104AAC0011464068FFF798BD2DE9F043002495B0FE
:104ABC0016460D460746FFF7C5FE214620220CA8D8
:104ACC00009400F09CFC40230C9321466B460CAAEE
:104ADC003046FFF7A5FC0446002844D102460121CC
:104AEC006868FFF759FD0221804622466868FFF787
:104AFC0053FD009E81462146002E34D0002932D130
:104B0C007368022B02D00A2B09D02AE0B8F1000FEF
:104B1C0027D0716938460431FFF7C1FE20E0B9F1A6
:104B2C00000F1ED07469112201A800F068FC062346
:104B3C008DF8143001AD04F1080318341868596865
:104B4C002A4603C20833A3421546F7D101A906A889
:104B5C0007ADFFF785FE0FCD3C1D0FC42B682370EE
:104B6C000121F669C8E70098FFF752FC384615B0EA
:104B7C00BDE8F083024B034A1A6000225A6070476A
:104B8C00C0E50320D4570D00F8B506460D468F1826
:104B9C000024BD420CD0336815F8011B9B683046CD
:104BAC009847002801DB0444F3E7002C08BF0446B7
:104BBC002046F8BD70B505460C46084649B100F0D4
:104BCC004FFC2B68024621462846DB68BDE8704046
:104BDC00184770BD08B5FFF7EDFF08BD03689B686B
:104BEC00184738B50D210546FFF7F8FF0A21044692
:104BFC002846FFF7F3FF204438BD38B50546FFF7CC
:104C0C00D9FF04462846FFF7ECFF204438BD30B5E9
:104C1C008BB00B4600218DF82410012A98BF0A2274
:104C2C000DF12304B3FBF2F505FB123303F0FF0384
:104C3C00092B94BF30333733DBB2214604F80139EA
:104C4C002B46002DEED1FFF7B5FF0BB030BD10B5E4
:104C5C000446FFF709FD204610BD00000348044A36
:104C6C0004490023836000F047BA00BFC8E5032065
:104C7C00A4E303205B4C0D0010B50446006818B18A
:104C8C00FFF7CAFC0023236010BD10B50446FFF7E4
:104C9C00F3FF204610BD000010B5094C00204FF664
:104CAC00FF732060A080A07120816381FFF730FC2E
:104CBC002046044A0449BDE8104000F01DBA00BF6C
:104CCC00D8E50320A4E30320974C0D00024B1A688F
:104CDC00024B1A60704700BF3CE30320E4E503205D
:104CEC0070474174704708B5007CFFF7D1FB20EA90
:104CFC00E07008BD08B5007CFFF7AAFB20EAE07065
:104D0C0008BD08B5007CFFF7B3FB30EA200028BFD4
:104D1C004FF0FF3008BD08B5007CFFF7A1FB30EA6F
:104D2C00200028BF4FF0FF3008BD007CFFF7A8BB68
:104D3C0010B51421044600F0E4F9204610BD70B5FE
:104D4C00457C04460E4625B9007CFFF7A1FB0028E4
:104D5C0005DD3146207CBDE87040FFF771BB28466D
:104D6C0070BD000010B50446084611460022626072
:104D7C004FF47A72A260054A226001222074627498
:104D8C001A46FFF755FB204610BD00BF34580D00E6
:104D9C0038B50C4D296811F0010411D12846FFF7E4
:104DAC0078F968B1084A094B09482146FFF7DAFF40
:104DBC002846FFF773F9074A0749054800F09CF9A4
:104DCC00034838BD80E6032084E60320FCE503207D
:104DDC00E8E50320A4E30320ED4C0D00417470477B
:104DEC00704708B50021007CFFF77AFB30EA200001
:104DFC0028BF4FF0FF3008BD08B50121007CFFF73C
:104E0C006FFB30EA200028BF4FF0FF3008BD08B51B
:104E1C00007CFFF75DFB20EAE07008BD08B5007C64
:104E2C00FFF74EFB20EAE07008BD007CFFF768BB83
:104E3C0010B51421044600F064F9204610BD38B5B5
:104E4C000446007C0D46FFF743FB002801DC607C28
:104E5C0028B12946207CFFF74BFB20EAE07038BDD7
:104E6C0010B50446002363604FF47A73A360054BBE
:104E7C00236001230846217463741146FFF710FB6D
:104E8C00204610BD64580D000022007CFFF710BBBB
:104E9C0010B514220446002100F0B1FA204610BDD2
:104EAC0030B50E4D87B001A8FFF7F2FF296811F05D
:104EBC00010410D12846FFF7ECF860B101AA214695
:104ECC000748FFF7CDFF2846FFF7E8F8054A0649E3
:104EDC00034800F011F9024807B030BD08E7032081
:104EEC000CE70320A4E30320ED4D0D000022114636
:104EFC004068FFF751BB002211464068FFF76CBBBE
:104F0C00002211464068FFF777BB00224068FFF78C
:104F1C006BBB002281F001014068FFF755BB0023F9
:104F2C001A4619464068FFF747BB00231A46194634
:104F3C004068FFF739BB002211464068FFF71CBBE5
:104F4C00002202214068FFF71FBB00231A4640686D
:104F5C00FFF70ABB024B04225A60024A1A607047E0
:104F6C0020E7032094580D0008B50C4B33B1FFF724
:104F7C0097FF03681B699847002809DC084B63B14D
:104F8C00FFF706FF03681B699847002803DC08BD80
:104F9C00AFF30080F2E7AFF3008008BD0000000023
:104FAC000000000008B5FFF7DFFFFFF7C1F9014B68
:104FBC00186008BD30E703200248034A0349121A5F
:104FCC0000F012BA00F4032004F4032060590D0021
:104FDC0007B5002300931A466FF07701FFF7B2FA7A
:104FEC0003B05DF804FB000007B543880A2B08D01A
:104FFC00502B09D1094B1B683BB103B05DF804EB96
:10500C001847FFF7E5FF06E0002300931A466FF000
:10501C007701FFF797FA03B05DF804FB28E703204C
:10502C0038B5104C104D2368AB42104B0CBF01220D
:10503C0000221A7002D0FFF7BFFF2560FFF770F94E
:10504C00044600F0E5F90A4B13B12046AFF300809B
:10505C0000210748FFF780FA00210648BDE83840D8
:10506C00FFF766BA00F403201E1C279A2CE70320D6
:10507C0000000000F54F0D0070B5044614252A46BB
:10508C00094E002100F0BBF9258020253146A56092
:10509C002561284600F04FF831466060284600F044
:1050AC004AF8E060204670BDC0580D0030B50E4D7A
:1050BC00296811F0010487B013D12846FEF7E9FFE7
:1050CC0078B101A8FFF7D8FF01AA21460748FFF7DE
:1050DC003FFB2846FEF7E2FF054A0649034800F06D
:1050EC000BF8024807B030BD34E7032038E7032043
:1050FC00A4E3032005470D000B460146184600F0BB
:10510C0065B9FEF7C2BF0000024B1868BFF35F8F92
:10511C00704700BF4CE7032010B5002814BF0446AD
:10512C0001242046FFF770FA20B9FFF7EDFF08B114
:10513C008047F6E710BDFFF7EFBF0000244B1A685D
:10514C00D0075CBF01221A60224B1A68D1075CBFE2
:10515C0001221A60204B1A68D2075CBF01221A6028
:10516C001E4B1A68D0075CBF01221A601C4B1A68D0
:10517C00D1075CBF01221A601A4B1A68D2075CBFB8
:10518C0001221A60184B1A68D0075CBF01221A6002
:10519C00164B1A68D1075CBF01221A60144B1A68AF
:1051AC00D2075CBF01221A60124B1A68D0075CBF91
:1051BC0001221A60104B1A68D1075CBF01221A60D9
:1051CC000E4B1A68D2075CBF01221A60704700BFF1
:1051DC007CE7032078E7032074E7032070E70320C3
:1051EC006CE7032068E7032064E7032060E70320F3
:1051FC005CE7032058E7032054E7032050E7032023
:10520C00184B1A68D1075CBF01221A60164B1A683A
:10521C00D2075CBF01221A60144B1A68D0075CBF1E
:10522C0001221A60124B1A68D1075CBF01221A6066
:10523C00104B1A68D2075CBF01221A600E4B1A6819
:10524C00D0075CBF01221A600C4B1A68D1075CBFF7
:10525C0001221A600A4B1A68D2075CBF01221A603D
:10526C00704700BF9CE7032098E7032094E70320D6
:10527C0090E703208CE7032088E7032084E70320D2
:10528C0080E70320184B1A68D1075CBF01221A6013
:10529C00164B1A68D2075CBF01221A60144B1A68AD
:1052AC00D0075CBF01221A60124B1A68D1075CBF91
:1052BC0001221A60104B1A68D2075CBF01221A60D7
:1052CC000E4B1A68D0075CBF01221A600C4B1A688F
:1052DC00D1075CBF01221A600A4B1A68D2075CBF67
:1052EC0001221A60704700BFBCE70320B8E7032017
:1052FC00B4E70320B0E70320ACE70320A8E70320C2
:10530C00A4E70320A0E70320244B1A68D0075CBF56
:10531C0001221A60224B1A68D1075CBF01221A6065
:10532C00204B1A68D2075CBF01221A601E4B1A6808
:10533C00D0075CBF01221A601C4B1A68D1075CBFF6
:10534C0001221A601A4B1A68D2075CBF01221A603C
:10535C00184B1A68D0075CBF01221A60164B1A68EA
:10536C00D1075CBF01221A60144B1A68D2075CBFCC
:10537C0001221A60124B1A68D0075CBF01221A6016
:10538C00104B1A68D1075CBF01221A600E4B1A68C9
:10539C00D2075CBF01221A60704700BFECE7032004
:1053AC00E8E70320E4E70320E0E70320DCE7032041
:1053BC00D8E70320D4E70320D0E70320CCE7032071
:1053CC00C8E70320C4E70320C0E7032010B5054C51
:1053DC0013462CB10A4601460220AFF3008010BDE3
:1053EC00204610BD0000000010B5431E0A44914237
:1053FC0004D011F8014B03F8014FF8E710BD02443B
:10540C000346934202D003F8011BFAE770470000F1
:10541C0038B5124B1C68A36B0546D3B91820FFF79F
:10542C00F3F843F20E33A06303804AF6CD33438086
:10543C0041F2342383804EF26D63C3804DF6EC63EE
:10544C000381052343810B23838101220023C0E9BF
:10545C000423A36B00221D615A6138BDA0E3032015
:10546C00034613F8012B002AFBD1181A0138704798
:10547C001D400D0059400D0085400D0089400D0068
:10548C000000000043757272656E74203D20004C64
:10549C00696E65204672657175656E6379203D2075
:1054AC0000416E616C6F6720496E70757420566F89
:1054BC006C74616765203D2000506F7765722046E3
:1054CC006163746F72203D200041637469766520BE
:1054DC00506F776572203D20005265616374697668
:1054EC006520506F776572203D20004170706172AD
:1054FC00656E7420506F776572203D2000493243F1
:10550C0020627573205374617475732053756363D3
:10551C00657373203D2000427573792074696D6545
:10552C006F75742075706F6E20656E746572696E20
:10553C006720656E645472616E736D697373696F05
:10554C006E2829203D2000537461727420626974A6
:10555C002067656E65726174696F6E2074696D6524
:10556C006F7574203D2000656E64206F6620616449
:10557C006472657373207472616E736D6973736991
:10558C006F6E2074696D656F7574203D20004461E9
:10559C0074612062797465207472616E73666572D1
:1055AC002074696D656F7574203D200044617461D1
:1055BC002062797465207472616E736665722073F3
:1055CC0075636365656465642C20627573792074FA
:1055DC00696D656F757420696D6D6564696174655D
:1055EC006C79206166746572203D200043686563A8
:1055FC006B73756D203D2000493243204275666601
:10560C00657220697320736D616C6C6572207468AF
:10561C00616E206E756D626572206F6620627974A2
:10562C0065732074686174206E65656420746F20E6
:10563C0062652072656164000000000000000000DB
:10564C00E5460D00DB460D00D1460D00C7460D00AA
:10565C00BB460D00AF460D00A3460D009B460D004A
:10566C0091460D0087460D00B54A0D000000000064
:10567C000000000005470D004F470D0027470D00A7
:10568C0007470D002F470D0037470D003F470D0012
:10569C0047470D000000000000000000ED470D0022
:1056AC00DD470D00DF470D006261756400536572C4
:1056BC0069616C0053657269616C31007479706555
:1056CC0000706172616D00636D6400696400686EE6
:1056DC0064007374726D0066696C74006C766C0097
:1056EC0061646448616E646C65720072656D6F769E
:1056FC006548616E646C657200656E756D48616EAF
:10570C00646C657273004A534F4E53747265616DCD
:10571C004C6F6748616E646C657200617070002537
:10572C003031307520005D20002564002C200028CD
:10573C00293A2000205B00636F6465203D20002522
:10574C00690064657461696C73203D20000D0A006A
:10575C0066006C6E00666E00636F64650064657451
:10576C0061696C006E6F6E650074726163650069CF
:10577C006E666F007761726E006572726F72007088
:10578C00616E696300616C6C000000000000000039
:10579C00000000002F490D0025490D001B490D008C
:1057AC0011490D0005490D00F9480D00ED480D009B
:1057BC00E5480D00DB480D00D1480D00B54A0D0041
:1057CC0000000000000000004D4A0D00574A0D007B
:1057DC00614A0D006B4A0D00754A0D00814A0D009F
:1057EC008D4A0D00994A0D00A14A0D00AB4A0D00DF
:1057FC00B54A0D005A00252B3033643A25303275EA
:10580C000025592D256D2D25645425483A254D3AF2
:10581C002553257A0061736374696D65000000007F
:10582C000000000000000000ED4C0D003D4D0D008F
:10583C004B4D0D00954B0D00014D0D00234D0D00F2
:10584C000F4D0D00374D0D00EF4C0D00F34C0D00BE
:10585C000000000000000000ED4D0D003D4E0D005D
:10586C004B4E0D00954B0D00294E0D00EF4D0D00CC
:10587C00054E0D00374E0D001B4E0D00E94D0D0071
:10588C000000000000000000574F0D004D4F0D00B0
:10589C00434F0D00F94E0D00374F0D002B4F0D00EF
:1058AC001F4F0D00174F0D000D4F0D00034F0D0036
:1058BC00B54A0D00000000000000000000000000D0
:1058CC0000000000000000000000000000000000CC
:1058DC0000000000000000000000000000000000BC
:1058EC0000000000000000000000000000000000AC
:1058FC00000000000000000000000000000000009C
:10590C00000000000000000000000000000000008B
:10591C00000000000000000043000000D9420D0010
:10592C004D460D00F1460D00C1480D00FD490D001E
:10593C00814B0D00694C0D00A54C0D00D94C0D0090
:10594C00614F0D0049510D000D520D0091520D008B
:04595C0015530D00D2
:045960000000000043
:105964007400000021580D0000000000C4580D0010
:10597400E4580D0004590D00000000000000000070
:10598400000000000000000024590D000000000089
:105994000000000000000000000000000000000003
:1059A40000000000000000000000000000000000F3
:1059B40000000000000000000000000000000000E3
:0C59C400000000000000000040E3032091
:1059D000FFFFFFFF00000102030405060708090A94
:1059E0000B0C0D0E0F101112131415161718191A8F
:0859F0001B1C1D1E1F202800D6
:0459F8007856341297
:04000003D000401CCD
:00000001FF
