:02000002D0002C
:1040000000400D0018590D00000006000C000501CD
:084010000401E80500000000B6
:0440180058540D00EB
:10401C0009480A49884208B505D0094A824202D0AB
:10402C00121A01F0CFF90748074A0021121A01F0C1
:10403C00D4F9014808BD00BF38E3032084580D00B3
:10404C00A4E30320A4E30320F0E7032070B500F001
:10405C00D5FF074C074BE41AA40800251E46A542C1
:10406C0004D056F8253098470135F8E770BD00BFED
:10407C0074580D003C580D0000F014B808B500F051
:10408C007DF8BDE8084000F07BBF00F0B9BA00F045
:10409C00B7BA0078B0FA80F040097047012303707A
:1040AC007047000008B50E48002319461A464068B0
:1040BC0000F076FA00F0E2FE4FF4E13100F0D2FEAF
:1040CC0000F0E2FF074900F049FB00F0DDFF0121A1
:1040DC0000F048FB00F0D8FFBDE8084000F046BBFC
:1040EC0020E70320A086010038B505461AB90368FD
:1040FC009B68984702E0D2B200F077FD0446284650
:10410C0000F067FD204438BD10B5044618B900F026
:10411C00B5FE14491CE0012803D100F0AFFE124992
:10412C0016E0022803D100F0A9FE104910E0032884
:10413C0003D100F0A3FE0E490AE0042803D100F0DD
:10414C009DFE0C4904E005280AD100F097FE0A49AF
:10415C0000F038FD00F092FE0A222146FFF7C4FF62
:10416C0010BD00BF6C540D0077540D00A7540D000A
:10417C00C7540D00EE540D000C550D00F0B5414B1D
:10418C0041480221A52219714E211A705971082239
:10419C0020215A70997141225E219A70D9710022A6
:1041AC000168DA7085B01C46A35C364E0132072AD2
:1041BC001944F9D1354DF1712A600160344F00F08A
:1041CC005DFE344900F0FEFC00F058FEF1790A2245
:1041DC00FFF78AFF00F058FF397800F0E9FA002366
:1041EC002B602E463368072B0ADC00F04DFF2A6843
:1041FC000368A15C9B6898472B6801332B60F1E73F
:10420C0000F042FF012100F0D7FA234B1870FFF7A2
:10421C007BFF1E2000F0FCF900F036FF3B788DF898
:10422C00003001238DF808306423039369461F2363
:10423C00019300F0A1FA1F2818D1184E002400F0A9
:10424C0023FF03681B699847651C78B100F01CFFBD
:10425C0003685B699847E4B2305500F00FFEEBB28F
:10426C000A22F15C00F0C1FC2C46E8E700F006FEE7
:10427C000B4900F0A7FC4FF47A7000F0C9F905B0B7
:10428C00F0BD00BFD0E30320ACE30320A8E3032080
:10429C0038E303204C550D00D8E30320B0E3032092
:1042AC006E560D0000F038B808B5024B1B689B68C1
:1042BC00019308BD4802030008B5024B1B681B693B
:1042CC00019308BD4802030008B5024B1B685B69EB
:1042DC00019308BD4802030008B5024B1B685B6CD8
:1042EC00019308BD4802030008B5024B1B689B6C88
:1042FC00019308BD4802030008B5024B1B685B68BC
:10430C00019308BD1802030008B5024B1B685B69DA
:10431C00019308BD1802030008B5024B1B681B680B
:10432C00019308BD2C02030008B5024B1B681B68E7
:10433C00019308BD2802030008B5024B1B689B685B
:10434C00019308BD2802030008B5024B1B68DB680B
:10435C00019308BD2802030008B5024B1B689B693A
:10436C00019308BD2802030008B5024B1B68DB69EA
:10437C00019308BD2802030008B5024B1B681B6A99
:10438C00019308BD2802030008B5024B1B685B6A49
:10439C00019308BD2802030008B5024B1B689B6AF9
:1043AC00019308BD2802030008B5024B1B68DB6AA9
:1043BC00019308BD2802030008B5024B1B681B6B58
:1043CC00019308BD2802030008B5024B1B681B6C47
:1043DC00019308BD2802030008B5024B1B681B6D36
:1043EC00019308BD2802030008B5024B1B685B69EA
:1043FC00019308BD6402030008B5024B1B689B685F
:10440C00019308BD6802030008B5024B1B68DB680A
:10441C00019308BD6802030008B5024B1B681B68BA
:10442C00019308BD3C02030008B5024B1B68DB6816
:10443C00019308BD3C02030008B5024B1B681B69C5
:10444C00019308BD3C02030008B5024B1B685B6975
:10445C00019308BD3C02030008B5024B1B689B6925
:10446C00019308BD3C02030008B5024B1B68DB69D5
:10447C00019308BD3C02030008B5024B1B689B6A04
:10448C00019308BD3C02030008B5024B1B681B6876
:10449C00019308BD4C02030008B5024B1B685B6816
:1044AC00019308BD4C02030008B5024B1B681B6945
:1044BC00019308BD4C02030008B5024B1B685B69F5
:1044CC00019308BD4C02030008B5024B1B689B69A5
:1044DC00019308BD4C02030008B5024B1B68DB6955
:1044EC00019308BD4C02030008B5024B1B681B6A04
:1044FC00019308BD4C02030008B5024B1B685B68B6
:10450C00019308BD2002030008B5024B1B685B69D0
:10451C00019308BD2002030008B5034B1B68D3F8B8
:10452C008830019308BD00002002030008B5034B3E
:10453C001B68D3F89430019308BD000020020300DF
:10454C0008B5024B1B68DB6B019308BD44020300EA
:10455C0008B5024B1B685B68019308BD4002030061
:10456C0008B5024B1B689B68019308BD4002030011
:10457C0008B5024B1B68DB68019308BD40020300C1
:10458C0008B5024B1B681B69019308BD4002030070
:10459C0008B5024B1B685B69019308BD4002030020
:1045AC0008B5024B1B689B69019308BD40020300D0
:1045BC0008B5024B1B68DB69019308BD4002030080
:1045CC0008B5024B1B681B6A019308BD400203002F
:1045DC0008B5024B1B681B6B019308BD400203001E
:1045EC0008B5024B1B685B6B019308BD40020300CE
:1045FC0008B5024B1B681B68019308BD1C02030025
:10460C0008B5024B1B685B68019308BD1C020300D4
:10461C000021FFF779BF10B50446006808B1FFF719
:10462C0063FE204610BD000010B5064C002320464A
:10463C002360FFF751FE2046034A0449BDE81040B1
:10464C0000F048BDDCE30320A4E3032023460D0067
:10465C0010B58368044613B10322014698472046DF
:10466C0010BD002211464068FFF7AABF0022114678
:10467C004068FFF7B5BF00224068FFF7A9BF0022D2
:10468C0081F001014068FFF793BF00231A461946D9
:10469C004068FFF785BF00231A4619464068FFF7AC
:1046AC0077BF002211464068FFF76ABF002211460F
:1046BC004068FFF755BF002202214068FFF758BF42
:1046CC0000231A464068FFF743BF0000024B032249
:1046DC005A60024A1A607047E0E3032060550D00EF
:1046EC007047F8B5064615460C468F18BC4206D0E6
:1046FC00336814F8011B9B6830469847F6E7284648
:10470C00F8BD0022007CFFF737BE0021007CFFF7CC
:10471C003BBE0021007CFFF73FBE0021007CFFF771
:10472C0043BE0021007CFFF747BE10B514210446A0
:10473C0000F0D5FC204610BD10B504460023636084
:10474C004FF47A73A360044B21740846236011461E
:10475C00FFF73AFE204610BD94550D000022007C58
:10476C00FFF7E2BD0022007CFFF7E6BD00231A46EE
:10477C001946007CFFF7E8BD70B50C4686B01425D1
:10478C0006462A46002101A800F027FE23788DF862
:10479C00083063680393E36804930022237A307C27
:1047AC00ADF8045001A90593FFF716FE06B070BDD5
:1047BC000022007CFFF7D0BD0022007CFFF7D4BDA7
:1047CC00704710B51821044600F089FC204610BD36
:1047DC00F0B5037D062B8DB00E4600F104074FF0AB
:1047EC00000402D000F1080518E00CAD394605F8BC
:1047FC00304D2F232A460A20FFF7F6FD284600F0FD
:10480C001DFE33680246DB682946304698470FE0A8
:10481C0024B12E21304600F0D9F9044415F8011DBD
:10482C000A22304600F0E1F9BD420444F0D12046A2
:10483C000DB0F0BD10B5054B0446112240F8043BF9
:10484C00002100F0CAFD204610BD00BFBC550D0074
:10485C000346074A10B543F8042B01F1100251F836
:10486C00044B43F8044B9142F9D10A781A7010BDED
:10487C00BC550D0010B59DF8084044EA032343EAEB
:10488C00024242EA016104234160037510BD37B551
:10489C000D788B784A78C97800912946FFF7EAFFA2
:1048AC0003B030BD014B024A1A607047E8E30320A5
:1048BC003B560D00002211464068FFF781BE0022D6
:1048CC0011464068FFF78CBE00224068FFF780BE9F
:1048DC00002281F001014068FFF76ABE00231A46EE
:1048EC0001214068FFF75CBE00231A461946406858
:1048FC00FFF74EBE002211464068FFF741BE002272
:10490C0011464068FFF72CBE002202214068FFF7D9
:10491C002FBE00231A464068FFF71ABE38B505466D
:10492C0088B104684CB1A3681BB103222146204610
:10493C0098471021204600F0D2FB28461421BDE8F0
:10494C00384000F0CCBB38BD10B103685B68184729
:10495C00704710B503680446BBB15868FFF7A4FC58
:10496C0078B923685A7C12B95868FFF7A5FC2368FC
:10497C005868FFF7A9FC20680023236028B1FFF7D3
:10498C00CDFF206808B1FFF7C9FF204610BD38B530
:10499C000446D0F8C40108B1FFF779FBD4F8C00184
:1049AC0008B1FFF7A1FCD4F8BC5135B12846FFF78C
:1049BC00D0FF0421284600F092FB206808B1FFF7D5
:1049CC00C3FF204638BD000010B5044B044640F828
:1049DC00083BFFF7DCFF204610BD00BFB4560D00AE
:1049EC0038B50E4C0E4B23600025022304F5E47001
:1049FC006360A560C4F8C451C4F8C851FFF76CFCDF
:104A0C00084BC4F8CC5184F8D05123602046064A98
:104A1C000649BDE8384000F05DBB00BFECE3032065
:104A2C00E8560D00B4560D00A4E30320D5490D0043
:104A3C0000231A464068FFF78BBD00220221406814
:104A4C00FFF796BD002211464068FFF789BD002292
:104A5C0011464068FFF794BD00231A46194640687A
:104A6C00FFF796BD00231A4619464068FFF798BD1C
:104A7C00002281F001014068FFF79ABD00224068D6
:104A8C00FFF7A6BD002211464068FFF7A9BD002222
:104A9C0011464068FFF794BD2DE9F043002495B012
:104AAC0016460D460746FFF7C5FE214620220CA8E8
:104ABC00009400F092FC40230C9321466B460CAA08
:104ACC003046FFF7A1FC0446002844D102460121E0
:104ADC006868FFF755FD0221804622466868FFF79B
:104AEC004FFD009E81462146002E34D0002932D144
:104AFC007368022B02D00A2B09D02AE0B8F1000F00
:104B0C0027D0716938460431FFF7C1FE20E0B9F1B6
:104B1C00000F1ED07469112201A800F05EFC062360
:104B2C008DF8143001AD04F1080318341868596875
:104B3C002A4603C20833A3421546F7D101A906A899
:104B4C0007ADFFF785FE0FCD3C1D0FC42B682370FE
:104B5C000121F669C8E70098FFF74EFC384615B0FE
:104B6C00BDE8F083024B034A1A6000225A6070477A
:104B7C00C0E50320E8560D00F8B506460D468F1823
:104B8C000024BD420CD0336815F8011B9B683046DD
:104B9C009847002801DB0444F3E7002C08BF0446C7
:104BAC002046F8BD70B505460C46084649B100F0E4
:104BBC0045FC2B68024621462846DB68BDE8704060
:104BCC00184770BD08B5FFF7EDFF08BD03689B687B
:104BDC00184738B50D210546FFF7F8FF0A210446A2
:104BEC002846FFF7F3FF204438BD30B58BB00B4699
:104BFC0000218DF82410012A98BF0A220DF12304FC
:104C0C00B3FBF2F505FB123303F0FF03092B94BF42
:104C1C0030333733DBB2214604F801392B46002DF3
:104C2C00EED1FFF7BFFF0BB030BD10B50446FFF758
:104C3C000FFD204610BD00000348044A0449002320
:104C4C00836000F047BA00BFC8E50320A4E303204B
:104C5C00374C0D0010B50446006818B1FFF7D0FCB6
:104C6C000023236010BD10B50446FFF7F3FF204668
:104C7C0010BD000010B5094C00204FF6FF732060EA
:104C8C00A080A07120816381FFF736FC2046044A86
:104C9C000449BDE8104000F01DBA00BFD8E5032060
:104CAC00A4E30320734C0D00024B1A68024B1A60EC
:104CBC00704700BF3CE30320E4E5032070474174D8
:104CCC00704708B5007CFFF7D7FB20EAE07008BD01
:104CDC0008B5007CFFF7B0FB20EAE07008BD08B512
:104CEC00007CFFF7B9FB30EA200028BF4FF0FF3003
:104CFC0008BD08B5007CFFF7A7FB30EA200028BFF1
:104D0C004FF0FF3008BD007CFFF7AEBB10B514218F
:104D1C00044600F0E4F9204610BD70B5457C04460D
:104D2C000E4625B9007CFFF7A7FB002805DD3146B0
:104D3C00207CBDE87040FFF777BB284670BD0000B3
:104D4C0010B5044608461146002262604FF47A7290
:104D5C00A260054A22600122207462741A46FFF791
:104D6C005BFB204610BD00BF48570D0038B50C4DFD
:104D7C00296811F0010411D12846FFF78AF968B1AE
:104D8C00084A094B09482146FFF7DAFF2846FFF786
:104D9C0085F9074A0749054800F09CF9034838BDD6
:104DAC0080E6032084E60320FCE50320E8E50320ED
:104DBC00A4E30320C94C0D0041747047704708B53B
:104DCC000021007CFFF780FB30EA200028BF4FF069
:104DDC00FF3008BD08B50121007CFFF775FB30EAF8
:104DEC00200028BF4FF0FF3008BD08B5007CFFF74E
:104DFC0063FB20EAE07008BD08B5007CFFF754FBAC
:104E0C0020EAE07008BD007CFFF76EBB10B51421E2
:104E1C00044600F064F9204610BD38B50446007C09
:104E2C000D46FFF749FB002801DC607C28B12946C0
:104E3C00207CFFF751FB20EAE07038BD10B504462A
:104E4C00002363604FF47A73A360054B2360012346
:104E5C000846217463741146FFF716FB204610BDFB
:104E6C0078570D000022007CFFF716BB10B51422FA
:104E7C000446002100F0B1FA204610BD30B50E4DAD
:104E8C0087B001A8FFF7F2FF296811F0010410D1D7
:104E9C002846FFF7FEF860B101AA21460748FFF744
:104EAC00CDFF2846FFF7FAF8054A0649034800F0FB
:104EBC0011F9024807B030BD08E703200CE70320C6
:104ECC00A4E30320C94D0D00002211464068FFF7F2
:104EDC0057BB002211464068FFF772BB00221146F7
:104EEC004068FFF77DBB00224068FFF771BB0022D2
:104EFC0081F001014068FFF75BBB00231A4619469D
:104F0C004068FFF74DBB00231A4619464068FFF76F
:104F1C003FBB002211464068FFF722BB0022022152
:104F2C004068FFF725BB00231A464068FFF710BB0B
:104F3C00024B04225A60024A1A60704720E7032091
:104F4C00A8570D0008B50C4B33B1FFF797FF03685A
:104F5C001B699847002809DC084B63B1FFF706FF73
:104F6C0003681B699847002803DC08BDAFF3008079
:104F7C00F2E7AFF3008008BD000000000000000065
:104F8C0008B5FFF7DFFFFFF7BFF9014B186008BD4D
:104F9C0030E703200248034A0349121A00F012BA00
:104FAC0000F4032004F4032080580D0007B50023FF
:104FBC0000931A466FF07701FFF7B8FA03B05DF86B
:104FCC0004FB000007B543880A2B08D0502B09D1ED
:104FDC00094B1B683BB103B05DF804EB1847FFF7B6
:104FEC00E5FF06E0002300931A466FF07701FFF708
:104FFC009DFA03B05DF804FB28E7032038B5104C8C
:10500C00104D2368AB42104B0CBF012200221A70CA
:10501C0002D0FFF7BFFF2560FFF76EF9044600F0E2
:10502C00E5F90A4B13B12046AFF300800021074885
:10503C00FFF786FA00210648BDE83840FFF76CBA46
:10504C0000F403201E1C279A2CE70320000000000C
:10505C00D14F0D0070B5044614252A46094E002187
:10506C0000F0BBF9258020253146A5602561284636
:10507C0000F04FF831466060284600F04AF8E060D6
:10508C00204670BDD4570D0030B50E4D296811F077
:10509C00010487B013D12846FEF7FBFF78B101A8B5
:1050AC00FFF7D8FF01AA21460748FFF745FB284622
:1050BC00FEF7F4FF054A0649034800F00BF80248D6
:1050CC0007B030BD34E7032038E70320A4E3032006
:1050DC00ED460D000B460146184600F065B9FEF78B
:1050EC00D4BF0000024B1868BFF35F8F704700BF3E
:1050FC004CE7032010B5002814BF044601242046B9
:10510C00FFF776FA20B9FFF7EDFF08B18047F6E715
:10511C0010BDFFF7EFBF0000244B1A68D0075CBF2F
:10512C0001221A60224B1A68D1075CBF01221A6057
:10513C00204B1A68D2075CBF01221A601E4B1A68FA
:10514C00D0075CBF01221A601C4B1A68D1075CBFE8
:10515C0001221A601A4B1A68D2075CBF01221A602E
:10516C00184B1A68D0075CBF01221A60164B1A68DC
:10517C00D1075CBF01221A60144B1A68D2075CBFBE
:10518C0001221A60124B1A68D0075CBF01221A6008
:10519C00104B1A68D1075CBF01221A600E4B1A68BB
:1051AC00D2075CBF01221A60704700BF7CE7032066
:1051BC0078E7032074E7032070E703206CE70320F3
:1051CC0068E7032064E7032060E703205CE7032023
:1051DC0058E7032054E7032050E70320184B1A68C4
:1051EC00D1075CBF01221A60164B1A68D2075CBF4C
:1051FC0001221A60144B1A68D0075CBF01221A6096
:10520C00124B1A68D1075CBF01221A60104B1A6846
:10521C00D2075CBF01221A600E4B1A68D0075CBF24
:10522C0001221A600C4B1A68D1075CBF01221A606C
:10523C000A4B1A68D2075CBF01221A60704700BF84
:10524C009CE7032098E7032094E7032090E70320D2
:10525C008CE7032088E7032084E7032080E7032002
:10526C00184B1A68D1075CBF01221A60164B1A68DA
:10527C00D2075CBF01221A60144B1A68D0075CBFBE
:10528C0001221A60124B1A68D1075CBF01221A6006
:10529C00104B1A68D2075CBF01221A600E4B1A68B9
:1052AC00D0075CBF01221A600C4B1A68D1075CBF97
:1052BC0001221A600A4B1A68D2075CBF01221A60DD
:1052CC00704700BFBCE70320B8E70320B4E7032016
:1052DC00B0E70320ACE70320A8E70320A4E70320F2
:1052EC00A0E70320244B1A68D0075CBF01221A6088
:1052FC00224B1A68D1075CBF01221A60204B1A6836
:10530C00D2075CBF01221A601E4B1A68D0075CBF23
:10531C0001221A601C4B1A68D1075CBF01221A606B
:10532C001A4B1A68D2075CBF01221A60184B1A6814
:10533C00D0075CBF01221A60164B1A68D1075CBFFC
:10534C0001221A60144B1A68D2075CBF01221A6042
:10535C00124B1A68D0075CBF01221A60104B1A68F6
:10536C00D1075CBF01221A600E4B1A68D2075CBFD2
:10537C0001221A60704700BFECE70320E8E7032026
:10538C00E4E70320E0E70320DCE70320D8E7032071
:10539C00D4E70320D0E70320CCE70320C8E70320A1
:1053AC00C4E70320C0E7032010B5054C13462CB10D
:1053BC000A4601460220AFF3008010BD204610BD06
:1053CC000000000010B5431E0A44914204D011F8AD
:1053DC00014B03F8014FF8E710BD0244034693421A
:1053EC0002D003F8011BFAE77047000038B5124BE6
:1053FC001C68A36B0546D3B91820FFF7F9F843F2E4
:10540C000E33A06303804AF6CD33438041F234233C
:10541C0083804EF26D63C3804DF6EC6303810523EC
:10542C0043810B23838101220023C0E90423A36B56
:10543C0000221D615A6138BDA0E30320034613F816
:10544C00012B002AFBD1181A013870471D400D00A2
:10545C0059400D0085400D0089400D0000000000F2
:10546C0073756363657373203D20004275737920F7
:10547C0074696D656F75742075706F6E20656E74D0
:10548C006572696E6720656E645472616E736D69C6
:10549C007373696F6E2829203D2000535441525478
:1054AC00206269742067656E65726174696F6E2025
:1054BC0074696D656F7574203D2000656E64206F96
:1054CC00662061646472657373207472616E736DAF
:1054DC00697373696F6E2074696D656F7574203DA7
:1054EC002000446174612062797465207472616E6D
:1054FC00736665722074696D656F7574203D20004C
:10550C00446174612062797465207472616E736693
:10551C006572207375636365656465642C206275C0
:10552C0073792074696D656F757420696D6D656430
:10553C00696174656C79206166746572203D200028
:10554C00436865636B73756D203D2000000000009F
:10555C0000000000CD460D00C3460D00B9460D00FD
:10556C00AF460D00A3460D0097460D008B460D006F
:10557C0083460D0079460D006F460D00A54A0D00BF
:10558C000000000000000000ED460D0037470D0044
:10559C000F470D00EF460D0017470D001F470D007C
:1055AC0027470D002F470D000000000000000000F1
:1055BC00DD470D00CD470D00CF470D0062617564CE
:1055CC000053657269616C0053657269616C3100DE
:1055DC007479706500706172616D00636D6400694F
:1055EC006400686E64007374726D0066696C74009C
:1055FC006C766C0061646448616E646C65720072F8
:10560C00656D6F766548616E646C657200656E756C
:10561C006D48616E646C657273004A534F4E5374DF
:10562C007265616D4C6F6748616E646C6572006188
:10563C00707000253031307520005D20002564002D
:10564C002C200028293A2000205B00636F64652021
:10565C003D200025690064657461696C73203D20F0
:10566C00000D0A0066006C6E00666E00636F646568
:10567C000064657461696C006E6F6E6500747261B4
:10568C00636500696E666F007761726E0065727299
:10569C006F720070616E696300616C6C00000000D9
:1056AC0000000000000000001F490D0015490D000E
:1056BC000B490D0001490D00F5480D00E9480D009E
:1056CC00DD480D00D5480D00CB480D00C1480D003C
:1056DC00A54A0D0000000000000000003D4A0D002E
:1056EC00474A0D00514A0D005B4A0D00654A0D00FA
:1056FC00714A0D007D4A0D00894A0D00914A0D003A
:10570C009B4A0D00A54A0D005A00252B3033643AF4
:10571C00253032750025592D256D2D2564542548CD
:10572C003A254D3A2553257A0061736374696D658A
:10573C00000000000000000000000000C94C0D003B
:10574C00194D0D00274D0D00854B0D00DD4C0D0046
:10575C00FF4C0D00EB4C0D00134D0D00CB4C0D0010
:10576C00CF4C0D000000000000000000C94D0D00E2
:10577C00194E0D00274E0D00854B0D00054E0D00EA
:10578C00CB4D0D00E14D0D00134E0D00F74D0D00EE
:10579C00C54D0D000000000000000000334F0D004F
:1057AC00294F0D001F4F0D00D54E0D00134F0D004E
:1057BC00074F0D00FB4E0D00F34E0D00E94E0D0092
:1057CC00DF4E0D00A54A0D00000000000000000097
:1057DC0000000000000000000000000000000000BD
:1057EC0000000000000000000000000000000000AD
:1057FC00000000000000000000000000000000009D
:10580C00000000000000000000000000000000008C
:10581C00000000000000000000000000000000007C
:10582C000000000000000000000000004300000029
:10583C00B1420D0035460D00D9460D00B1480D00A2
:10584C00ED490D00714B0D00454C0D00814C0D00C8
:10585C00B54C0D003D4F0D0025510D00E9510D00CB
:10586C006D520D00F1520D00000000000000000010
:04587C000000000028
:045880000000000024
:105884007400000035570D0000000000D8570D00CB
:10589400F8570D0018580D0000000000000000002B
:1058A400000000000000000038580D000000000057
:1058B40000000000000000000000000000000000E4
:1058C40000000000000000000000000000000000D4
:1058D40000000000000000000000000000000000C4
:0C58E400000000000000000040E3032072
:1058F000FFFFFFFF00000102030405060708090A75
:105900000B0C0D0E0F101112131415161718191A6F
:085910001B1C1D1E1F202800B6
:045918007856341277
:04000003D000401CCD
:00000001FF
