:02000002D0002C
:1040000000400D00A4560D00000006000C00050144
:0840100004017E050000000020
:04401800C4520D0081
:10401C0009480A49884208B505D0094A824202D0AB
:10402C00121A01F005F90748074A0021121A01F08B
:10403C000AF9014808BD00BF58E3032010560D00D3
:10404C00C4E30320C4E30320F0E7032070B500F0C1
:10405C0035FF074C074BE41AA40800251E46A54261
:10406C0004D056F8253098470135F8E770BD00BFED
:10407C0004560D00C8550D0000F014B808B500F03A
:10408C002FF8BDE8084000F0E7BE00F02BBA00F0B6
:10409C0029BA0078B0FA80F0400970470123037008
:1040AC007047000008B50C48002319461A464068B2
:1040BC0000F0E8F900F04EFE4FF4E13100F03EFE66
:1040CC0000F016FF054900F0A7FA00F011FFBDE85B
:1040DC00084000F0A5BA00BF08E70320A086010045
:1040EC0070B58CB0A52302228DF8043008238DF80E
:1040FC0005308DF8082041234E228DF806308DF8BE
:10410C000920002320228DF80A208DF807308DF825
:10411C000B301A4601AE995D0133072B0A44FAD1D4
:10412C00184C8DF80B2000F0E3FE216800F090FA9B
:10413C00002500F0DDFE0368715D9B680135984732
:10414C00082DF6D100F0D4FE00F089FA642000F0BE
:10415C00D1F900F0CDFE21681F2200F070FA00F0BA
:10416C00C7FE03681B699847044600F0C1FEA2B263
:10417C0003A900F0E4FC4FF47A7000F0BBF90CB02A
:10418C0070BD00BF58E3032000F038B808B5024BEF
:10419C001B689B68019308BD4802030008B5024BDD
:1041AC001B681B69019308BD4802030008B5024B4C
:1041BC001B685B69019308BD4802030008B5024BFC
:1041CC001B681B6B019308BD4802030008B5024B2A
:1041DC001B685B6C019308BD4802030008B5024BD9
:1041EC001B685B68019308BD1802030008B5024BFD
:1041FC001B685B69019308BD1802030008B5024BEC
:10420C001B681B68019308BD2C02030008B5024B08
:10421C001B681B68019308BD2802030008B5024BFC
:10422C001B68DB68019308BD2802030008B5024B2C
:10423C001B685B69019308BD2802030008B5024B9B
:10424C001B689B69019308BD2802030008B5024B4B
:10425C001B68DB69019308BD2802030008B5024BFB
:10426C001B681B6A019308BD2802030008B5024BAA
:10427C001B685B6A019308BD2802030008B5024B5A
:10428C001B689B6A019308BD2802030008B5024B0A
:10429C001B68DB6A019308BD2802030008B5024BBA
:1042AC001B681B6B019308BD2802030008B5024B69
:1042BC001B681B6C019308BD2802030008B5024B58
:1042CC001B685B69019308BD6402030008B5024BCF
:1042DC001B689B68019308BD6802030008B5024B7C
:1042EC001B68DB68019308BD6802030008B5024B2C
:1042FC001B68DB69019308BD3002030008B5024B53
:10430C001B681B68019308BD3C02030008B5024BF7
:10431C001B68DB68019308BD3C02030008B5024B27
:10432C001B681B69019308BD3C02030008B5024BD6
:10433C001B685B69019308BD3C02030008B5024B86
:10434C001B689B69019308BD3C02030008B5024B36
:10435C001B68DB69019308BD3C02030008B5024BE6
:10436C001B689B6A019308BD3C02030008B5024B15
:10437C001B681B68019308BD4C02030008B5024B77
:10438C001B685B68019308BD4C02030008B5024B27
:10439C001B681B69019308BD4C02030008B5024B56
:1043AC001B685B69019308BD4C02030008B5024B06
:1043BC001B689B69019308BD4C02030008B5024BB6
:1043CC001B68DB69019308BD4C02030008B5024B66
:1043DC001B681B6A019308BD4C02030008B5024B15
:1043EC001B685B68019308BD2002030008B5024BF3
:1043FC001B685B69019308BD2002030008B5034BE1
:10440C001B68D3F88830019308BD0000200203001C
:10441C0008B5034B1B68D3F89430019308BD00001A
:10442C002002030008B5024B1B68DB6B019308BD2F
:10443C004402030008B5024B1B685B68019308BD7E
:10444C004002030008B5024B1B689B68019308BD32
:10445C004002030008B5024B1B68DB68019308BDE2
:10446C004002030008B5024B1B681B69019308BD91
:10447C004002030008B5024B1B685B69019308BD41
:10448C004002030008B5024B1B689B69019308BDF1
:10449C004002030008B5024B1B68DB69019308BDA1
:1044AC004002030008B5024B1B681B6A019308BD50
:1044BC004002030008B5024B1B681B6B019308BD3F
:1044CC004002030008B5024B1B685B6B019308BDEF
:1044DC004002030008B5024B1B681B68019308BD22
:1044EC001C02030008B5024B1B685B68019308BDF6
:1044FC001C0203000021FFF779BF000002480023D3
:10450C000360FFF763BE00BFC8E3032010B58368E8
:10451C00044613B1032201469847204610BD0022E1
:10452C0011464068FFF7BEBF002211464068FFF7F6
:10453C00C9BF00224068FFF7BDBF002281F0010116
:10454C004068FFF7A7BF00231A4619464068FFF7DB
:10455C0099BF00231A4619464068FFF78BBF00220B
:10456C0011464068FFF77EBF002211464068FFF7F6
:10457C0069BF002202214068FFF76CBF00231A4676
:10458C004068FFF757BF0000024B03225A60024AF3
:10459C001A607047CCE30320E0520D007047F8B569
:1045AC00064615460C468F18BC4206D0336814F8E4
:1045BC00011B9B6830469847F6E72846F8BD002259
:1045CC00007CFFF74BBE0021007CFFF74FBE0021A3
:1045DC00007CFFF753BE0021007CFFF757BE002183
:1045EC00007CFFF75BBE10B51421044600F0C7FC3D
:1045FC00204610BD10B504464FF47A730846A360EC
:10460C000021044B207461602360FFF74FFE2046AD
:10461C0010BD00BF14530D000022007CFFF7F6BD47
:10462C0000231A461946007CFFF7F8BD13B5002489
:10463C00007C0094FFF7FAFDC0B202B010BD01235C
:10464C00D2B2C9B2FFF7F2BF0022007CFFF7F6BD71
:10465C00C9B2FFF7F9BF0022007CFFF7F7BD0121BB
:10466C00FFF7F9BF704710B51821044600F087FC1E
:10467C00204610BDF0B5037D062B8DB00E4600F123
:10468C0004074FF0000402D000F1080518E00CAD4F
:10469C00394605F8304D2F232A460A20FFF70EFE27
:1046AC00284600F001FE33680246DB682946304696
:1046BC0098470FE024B12E21304600F0C9F904448C
:1046CC0015F8011D0A22304600F0F2F9BD420444EF
:1046DC00F0D120460DB0F0BD10B5054B04461122AB
:1046EC0040F8043B002100F0AEFD204610BD00BF99
:1046FC003C530D000346074A10B543F8042B01F157
:10470C00100251F8044B43F8044B9142F9D10A784A
:10471C001A7010BD3C530D0010B59DF8084044EACA
:10472C00032343EA024242EA016104234160037518
:10473C0010BD37B50D788B784A78C9780091294629
:10474C00FFF7EAFF03B030BD014B024A1A60704715
:10475C00D4E30320BB530D00002211464068FFF741
:10476C00A1BE002211464068FFF7ACBE0022406893
:10477C00FFF7A0BE002281F001014068FFF78ABE5E
:10478C0000231A4601214068FFF77CBE00231A461D
:10479C0019464068FFF76EBE002211464068FFF7CD
:1047AC0061BE002211464068FFF74CBE0022022178
:1047BC004068FFF74FBE00231A464068FFF73ABE29
:1047CC0038B5054688B104684CB1A3681BB1032207
:1047DC002146204698471021204600F0D0FB284661
:1047EC001421BDE8384000F0CABB38BD10B10368D5
:1047FC005B681847704710B503680446BBB158682E
:10480C00FFF7C4FC78B923685A7C12B95868FFF7D3
:10481C00C5FC23685868FFF7C9FC20680023236097
:10482C0028B1FFF7CDFF206808B1FFF7C9FF20467C
:10483C0010BD000038B50C4B03600446D0F8CC0119
:10484C0008B1FFF724FCD4F8C45135B12846FFF762
:10485C00D2FF0421284600F092FBA06808B1FFF7B4
:10486C00C5FF204638BD00BF34540D0038B50E4C82
:10487C000E4B23600025022304F5E4706360A560F1
:10488C00C4F8C451C4F8C851FFF7A0FC084BC4F8D5
:10489C00CC5184F8D05123602046064A0649BDE825
:1048AC00384000F067BB00BFD8E3032068540D000C
:1048BC0034540D00C4E3032041480D0000231A4674
:1048CC004068FFF7B7BD002202214068FFF7C2BD68
:1048DC00002211464068FFF7B5BD00221146406822
:1048EC00FFF7C0BD00231A4619464068FFF7C2BD4A
:1048FC0000231A4619464068FFF7C4BD002281F018
:10490C0001014068FFF7C6BD00224068FFF7D2BD29
:10491C00002211464068FFF7D5BD002211464068C1
:10492C00FFF7C0BD2DE9F043002495B016460D46A7
:10493C000746FFF7D1FE214620220CA8009400F078
:10494C0082FC40230C9321466B460CAA3046FFF7A1
:10495C00C5FC0446002844D1024601216868FFF7D3
:10496C0081FD0221804622466868FFF77BFD009E90
:10497C0081462146002E34D0002932D17368022B97
:10498C0002D00A2B09D02AE0B8F1000F27D07169A8
:10499C0038460431FFF7CDFE20E0B9F1000F1ED0F0
:1049AC007469112201A800F04EFC06238DF8143016
:1049BC0001AD04F108031834186859682A4603C27B
:1049CC000833A3421546F7D101A906A807ADFFF796
:1049DC0091FE0FCD3C1D0FC42B6823700121F6698D
:1049EC00C8E70098FFF772FC384615B0BDE8F083B5
:1049FC00024B034A1A6000225A607047ACE5032050
:104A0C0068540D00F8B506460D468F180024BD42BB
:104A1C000CD0336815F8011B9B683046984700286A
:104A2C0001DB0444F3E7002C08BF04462046F8BD24
:104A3C0070B505460C46084649B100F035FC2B68AC
:104A4C00024621462846DB68BDE87040184770BD19
:104A5C0003689B68184730B58BB00B4600218DF866
:104A6C002410012A98BF0A220DF12304B3FBF2F59E
:104A7C0005FB123303F0FF03092B94BF303337339C
:104A8C00DBB2214604F801392B46002DEED1FFF79D
:104A9C00CFFF0BB030BD10B42AB903685DF8044BDE
:104AAC009B68C9B21847D2B25DF8044BFFF7D3BF6D
:104ABC00FFF7F1BF10B50446FFF728FD204610BDE7
:104ACC000348044A04490023836000F053BA00BF32
:104ADC00B4E50320C4E30320C14A0D00704710B5B0
:104AEC001021044600F04BFA204610BD70B5084B5F
:104AFC000360044600250E4640F80C5FFFF75EFB92
:104B0C0030462671FFF7F2FBA560204670BD00BF52
:104B1C009C540D0010B50446FFF768FBE060236859
:104B2C0020465B699847002808DAFFF75FFBE368CB
:104B3C00C01AA3689842F2D34FF0FF3010BD2DE994
:104B4C00F04180460D468F180C46BC42A4EB05067E
:104B5C0007D04046FFF7DEFF002802DB04F8010B0C
:104B6C00F3E73046BDE8F081044B00204FF6FF72AE
:104B7C00187058809A80FFF731BC00BFC4E5032041
:104B8C00024B1A68024B1A60704700BF5CE30320AB
:104B9C00CCE5032070474174704708B5007CFFF7E3
:104BAC00DDFB20EAE07008BD08B5007CFFF7B6FB22
:104BBC0020EAE07008BD08B5007CFFF7BFFB30EAC7
:104BCC00200028BF4FF0FF3008BD08B5007CFFF770
:104BDC00ADFB30EA200028BF4FF0FF3008BD007C51
:104BEC00FFF7B4BB10B51421044600F0C8F92046F9
:104BFC0010BD70B5457C04460E4625B9007CFFF708
:104C0C00ADFB002805DD3146207CBDE87040FFF788
:104C1C007DBB284670BD000010B504460846114601
:104C2C00002262604FF47A72A260054A226001226F
:104C3C00207462741A46FFF761FB204610BD00BF5A
:104C4C00D8540D0038B50C4D296811F0010411D160
:104C5C002846FFF71EFA68B1084A094B0948214655
:104C6C00FFF7DAFF2846FFF719FA074A0749054804
:104C7C0000F080F9034838BD68E603206CE6032099
:104C8C00E4E50320D0E50320C4E30320A14B0D0091
:104C9C0041747047704708B50021007CFFF786FB14
:104CAC0030EA200028BF4FF0FF3008BD08B50121C5
:104CBC00007CFFF77BFB30EA200028BF4FF0FF3071
:104CCC0008BD08B5007CFFF769FB20EAE07008BD61
:104CDC0008B5007CFFF75AFB20EAE07008BD007CA9
:104CEC00FFF774BB10B51421044600F048F92046B8
:104CFC0010BD38B50446007C0D46FFF74FFB00286D
:104D0C0001DC607C28B12946207CFFF757FB20EAA8
:104D1C00E07038BD10B50446002363604FF47A731D
:104D2C00A360054B2360012308462174637411466C
:104D3C00FFF71CFB204610BD08550D000022007C1F
:104D4C00FFF71CBB10B514220446002100F07BFABF
:104D5C00204610BD30B50E4D87B001A8FFF7F2FF0D
:104D6C00296811F0010410D12846FFF792F960B1BF
:104D7C0001AA21460748FFF7CDFF2846FFF78EF919
:104D8C00054A0649034800F0F5F8024807B030BD63
:104D9C00F0E60320F4E60320C4E30320A14C0D004D
:104DAC00002211464068FFF75DBB002211464068A7
:104DBC00FFF778BB002211464068FFF783BB002247
:104DCC004068FFF777BB002281F001014068FFF7D4
:104DDC0061BB00231A4619464068FFF753BB0023FA
:104DEC001A4619464068FFF745BB00221146406839
:104DFC00FFF728BB002202214068FFF72BBB0023E2
:104E0C001A464068FFF716BB024B04225A60024A4E
:104E1C001A60704708E7032038550D0008B50C4B95
:104E2C0033B1FFF797FF03681B699847002809DC2B
:104E3C00084B63B1FFF706FF03681B69984700280E
:104E4C0003DC08BDAFF30080F2E7AFF3008008BDD0
:104E5C00000000000000000008B5FFF7DFFFFFF7BF
:104E6C00C5F9014B186008BD14E7032007B50023F2
:104E7C0000931A466FF07701FFF7CAFA03B05DF89A
:104E8C0004FB000007B543880A2B08D0502B09D12E
:104E9C00094B1B683BB103B05DF804EB1847FFF7F7
:104EAC00E5FF06E0002300931A466FF07701FFF749
:104EBC00AFFA03B05DF804FB10E7032010B5FFF761
:104ECC008DF9044600F0C8F9074B13B12046AFF337
:104EDC00008000210448FFF7A5FA00210348BDE833
:104EEC001040FFF78BBA00BF00000000914E0D0080
:104EFC0038B50B4D296811F001040FD12846FFF786
:104F0C00C8F858B121460748FFF774FB2846FFF74D
:104F1C00C5F8054A0549034800F02CF8014838BD8E
:104F2C0018E703201CE70320C4E30320A9450D0068
:104F3C0070B50C4C0C4E0D4D00212046FFF7D6FDE4
:104F4C0020460B4C3246294600F014F8012120462D
:104F5C00FFF7CCFD324629462046BDE8704000F0F4
:104F6C0009B800BF30E70320C4E30320E94A0D0071
:104F7C0040E703200B460146184600F04BB9FFF7FB
:104F8C0084B80000244B1A68D0075CBF01221A6059
:104F9C00224B1A68D1075CBF01221A60204B1A6899
:104FAC00D2075CBF01221A601E4B1A68D0075CBF87
:104FBC0001221A601C4B1A68D1075CBF01221A60CF
:104FCC001A4B1A68D2075CBF01221A60184B1A6878
:104FDC00D0075CBF01221A60164B1A68D1075CBF60
:104FEC0001221A60144B1A68D2075CBF01221A60A6
:104FFC00124B1A68D0075CBF01221A60104B1A685A
:10500C00D1075CBF01221A600E4B1A68D2075CBF35
:10501C0001221A60704700BF7CE7032078E7032069
:10502C0074E7032070E703206CE7032068E7032094
:10503C0064E7032060E703205CE7032058E70320C4
:10504C0054E7032050E70320184B1A68D1075CBFC4
:10505C0001221A60164B1A68D2075CBF01221A6033
:10506C00144B1A68D0075CBF01221A60124B1A68E5
:10507C00D1075CBF01221A60104B1A68D2075CBFC3
:10508C0001221A600E4B1A68D0075CBF01221A600D
:10509C000C4B1A68D1075CBF01221A600A4B1A68C4
:1050AC00D2075CBF01221A60704700BF9CE7032047
:1050BC0098E7032094E7032090E703208CE7032074
:1050CC0088E7032084E7032080E70320184B1A6845
:1050DC00D1075CBF01221A60164B1A68D2075CBF5D
:1050EC0001221A60144B1A68D0075CBF01221A60A7
:1050FC00124B1A68D1075CBF01221A60104B1A6858
:10510C00D2075CBF01221A600E4B1A68D0075CBF35
:10511C0001221A600C4B1A68D1075CBF01221A607D
:10512C000A4B1A68D2075CBF01221A60704700BF95
:10513C00BCE70320B8E70320B4E70320B0E7032063
:10514C00ACE70320A8E70320A4E70320A0E7032093
:10515C00244B1A68D0075CBF01221A60224B1A68D4
:10516C00D1075CBF01221A60204B1A68D2075CBFC2
:10517C0001221A601E4B1A68D0075CBF01221A600C
:10518C001C4B1A68D1075CBF01221A601A4B1A68B3
:10519C00D2075CBF01221A60184B1A68D0075CBF9B
:1051AC0001221A60164B1A68D1075CBF01221A60E3
:1051BC00144B1A68D2075CBF01221A60124B1A6892
:1051CC00D0075CBF01221A60104B1A68D1075CBF74
:1051DC0001221A600E4B1A68D2075CBF01221A60BA
:1051EC00704700BFECE70320E8E70320E4E7032067
:1051FC00E0E70320DCE70320D8E70320D4E7032013
:10520C00D0E70320CCE70320C8E70320C4E7032042
:10521C00C0E7032010B5054C13462CB10A460146D5
:10522C000220AFF3008010BD204610BD000000002E
:10523C0010B5431E0A44914204D011F8014B03F8F7
:10524C00014FF8E710BD02440346934202D003F825
:10525C00011BFAE77047000038B5124B1C68A36BB2
:10526C000546D3B91820FFF735F943F20E33A06386
:10527C0003804AF6CD33438041F2342383804EF2CF
:10528C006D63C3804DF6EC630381052343810B23CF
:10529C00838101220023C0E90423A36B00221D613A
:1052AC005A6138BDC0E30320034613F8012B002AD2
:1052BC00FBD1181A013870471D400D0059400D00E4
:1052CC0085400D0089400D0000000000000000002A
:1052DC000000000089450D007F450D0075450D004F
:1052EC006B450D005F450D0053450D0047450D0006
:1052FC003F450D0035450D002B450D0031490D0086
:10530C000000000000000000A9450D00F3450D0051
:10531C00CB450D00AB450D00D3450D00DB450D0015
:10532C00E3450D00EB450D000000000000000000FF
:10533C0081460D0071460D0073460D006261756467
:10534C000053657269616C0053657269616C310060
:10535C007479706500706172616D00636D640069D1
:10536C006400686E64007374726D0066696C74001E
:10537C006C766C0061646448616E646C657200727A
:10538C00656D6F766548616E646C657200656E75EF
:10539C006D48616E646C657273004A534F4E537462
:1053AC007265616D4C6F6748616E646C657200610B
:1053BC00707000253031307520005D2000256400B0
:1053CC002C200028293A2000205B00636F646520A4
:1053DC003D200025690064657461696C73203D2073
:1053EC00000D0A0066006C6E00666E00636F6465EB
:1053FC000064657461696C006E6F6E650074726137
:10540C00636500696E666F007761726E006572721B
:10541C006F720070616E696300616C6C000000005B
:10542C000000000000000000C3470D00B9470D004C
:10543C00AF470D00A5470D0099470D008D470D0096
:10544C0081470D0079470D006F470D0065470D0032
:10545C0031490D000000000000000000C9480D009B
:10546C00D3480D00DD480D00E7480D00F1480D0054
:10547C00FD480D0009490D0015490D001D490D0091
:10548C0027490D0031490D0000000000000000000C
:10549C00E94A0D00EB4A0D005A00252B3033643AD3
:1054AC00253032750025592D256D2D256454254840
:1054BC003A254D3A2553257A0061736374696D65FD
:1054CC00000000000000000000000000A14B0D00D7
:1054DC00F14B0D00FF4B0D00114A0D00B54B0D00AB
:1054EC00D74B0D00C34B0D00EB4B0D00A34B0D0028
:1054FC00A74B0D000000000000000000A14C0D00A7
:10550C00F14C0D00FF4C0D00114A0D00DD4C0D004F
:10551C00A34C0D00B94C0D00EB4C0D00CF4C0D0005
:10552C009D4C0D0000000000000000000B4E0D0013
:10553C00014E0D00F74D0D00AD4D0D00EB4D0D0066
:10554C00DF4D0D00D34D0D00CB4D0D00C14D0D00A9
:10555C00B74D0D0031490D000000000000000000A7
:10556C00000000000000000000000000000000002F
:10557C00000000000000000000000000000000001F
:10558C00000000000000000000000000000000000F
:10559C0000000000000000000000000000000000FF
:1055AC0000000000000000000000000000000000EF
:1055BC0000000000000000004300000095410D00B9
:1055CC0009450D0095450D0055470D0079480D0016
:1055DC00FD490D00CD4A0D00754B0D008D4B0D0096
:1055EC00154E0D003D4F0D00914F0D0055500D0007
:1055FC00D9500D005D510D000000000000000000AE
:04560C00000000009A
:1056100074000000C5540D000000000064550D002A
:1056200084550D00A4550D0000000000000000008E
:105630000000000000000000C4550D000000000044
:10564000000000000000000000000000000000005A
:10565000000000000000000000000000000000004A
:10566000000000000000000000000000000000003A
:0C567000000000000000000060E30320C8
:10567C00FFFFFFFF00000102030405060708090AEB
:10568C000B0C0D0E0F101112131415161718191AE6
:08569C001B1C1D1E1F2028002D
:0456A40078563412EE
:04000003D000401CCD
:00000001FF
