:02000004080AE8
:1000000000000A08142A0A0800000600060005017C
:080010000402E80500000000F5
:0400180030250A087D
:1000200009480A4908B5884205D0094A824202D0E7
:10003000121A02F039FA0748074A0021121A02F090
:100040003EFA064808BD00BF0000002084290A08C7
:100050006800002068000020DC050020DC0500208E
:1000600070B501F0C7F8074B074C1E46E41AA40808
:100070000025A54204D056F8253098470135F8E709
:1000800070BD00BF44290A0874290A0800F002B9AB
:1000900008B500F0D7F9BDE8084001F06DB800F0F0
:1000A000A9BB0078B0FA80F04009704701230370C3
:1000B00070470000000000002DE9F84F05468088D9
:1000C0000C4602F03FF8384902F044F96060E868F5
:1000D00002F034F8354902F03DF96061E88802F039
:1000E00031F8334902F036F9A060288902F02AF885
:1000F000304902F02FF901F0CFFB29A3D3E9002307
:1001000001F01EFC01F014FFE060B5F90AB00E2604
:100110004FEADB7001F0AEFB01F00AFF4FF0010A7D
:1001200000F100470AFA06F000EA0B00304101F046
:10013000A1FB8046C6F10F000AFA00F0894601F0E3
:1001400099FB02460B464046494601F023FD804696
:100150003846894601F0A0FB02460B464046494618
:1001600001F03CFA01F0E4FE013E032E0746D9D12E
:100170002061286901F0E2FF0F4902F0EBF8A0616D
:10018000686901F0DBFF0C4902F0E4F8E061A8695E
:1001900001F0D4FF084902F0DDF82062BDE8F88FD5
:1001A0006666666666660A400000204100401C469E
:1001B00000007A4400C07F440000C84210B50446E5
:1001C00000F0E6FE2B4900F0A8FC00F0E1FE04225E
:1001D000616800F099FD00F0DBFE274900F09DFC0E
:1001E00000F0D6FE0422616900F08EFD00F0D0FE22
:1001F000224900F092FC00F0CBFE0422A16800F03E
:1002000083FD00F0C5FE1E4900F080FC00F0C0FE3A
:100210000422E16800F078FD00F0BAFE194900F010
:100220007CFC00F0B5FE0422216900F06DFD00F0B9
:10023000AFFE154900F071FC00F0AAFE0422A1698E
:1002400000F062FD00F0A4FE104900F066FC00F032
:100250009FFE0422E16900F057FD00F099FE0C4971
:1002600000F05BFC00F094FE216A0422BDE810401F
:1002700000F04ABD6E250A0844250A084F250A08E1
:1002800061250A0879250A0889250A0899250A0896
:10029000AB250A0808B500F07BFE4FF4E13100F011
:1002A0005DFE00F0EDFFBDE8084000F0F5BA38B59E
:1002B00005461AB903689B68984702E0D2B200F07D
:1002C0003CFC0446284600F02CFC204438BD0000CD
:1002D00010B5044618B900F05BFE14491CE0012873
:1002E00003D100F055FE124916E0022803D100F0B8
:1002F0004FFE104910E0032803D100F049FE0E49DB
:100300000AE0042803D100F043FE0C4904E005286C
:100310000AD100F03DFE0A4900F0F8FB00F038FE7B
:100320000A222146FFF7C3FF10BD00BFBD250A0802
:10033000D6250A0805260A0824260A084A260A0895
:1003400067260A08F7B51E46A5238DF80030082356
:100350008DF8013041238DF802304E238DF80410C2
:100360008DF80530002120238DF8063015460B4608
:100370008DF803008DF807101DF803200133072BBB
:100380001144F9D1CCB28DF8074000F001FE2A49A2
:1003900000F0BCFB00F0FCFD21461022FFF787FFB8
:1003A00000F06EFF742100F0B2FA002400F068FF44
:1003B00003681DF804109B6801349847082CF5D198
:1003C00000F05EFF012100F0A5FAFFF781FF322067
:1003D00000F018FA00F054FF1F22742100F090FA88
:1003E00000F04EFF036803351B699847A842074693
:1003F0001ED13446A31B9F4213DB00F041FF03686C
:1004000025465B69984704F8010B00F0C1FD297887
:10041000102200F092FB00F0BBFD084900F076FBD3
:10042000E8E700F0B5FD064900F070FB002000E0B1
:10043000052003B0F0BD00BFA6260A0880270A08E1
:10044000A1270A0830B59BB008AB1C22022100206E
:10045000FFF778FF0446B8B100F09AFD2F4900F08D
:1004600055FB00F095FD002C054604DA2D2100F027
:1004700051FB614200E021460A22284600F05DFB64
:10048000284600F04EFB42E09DF823209DF82230E4
:1004900001A843EA0223ADF804309DF825209DF819
:1004A000243011A943EA0223ADF806309DF8272035
:1004B0009DF8263043EA0223ADF808309DF8292044
:1004C0009DF8283043EA0223ADF80A309DF82B202E
:1004D0009DF82A3043EA0223ADF80C309DF92D2017
:1004E0009DF82C3003EB0223ADF80E30DDF82E30F2
:1004F0000493DDF832300593DDF836300693DDF8ED
:100500003A300793FFF7D8FD11A8FFF757FE4FF4D5
:100510007A7000F077F91BB030BD00BFB2260A0830
:1005200000F010B808B5024B1B685B68019308BD6A
:100530009C01060808B5024B1B685B69019308BD66
:100540009C01060808B5024B1B681B68019308BD97
:10055000B001060808B5024B1B68DB6C019308BDAF
:10056000AC01060808B5024B1B689B6D019308BDE2
:10057000AC01060808B5024B1B68DB6D019308BD92
:10058000AC01060808B5024B1B681B6E019308BD41
:10059000AC01060808B5024B1B685B6E019308BDF1
:1005A000AC01060808B5024B1B689B6E019308BDA1
:1005B000AC01060808B5024B1B68DB6E019308BD51
:1005C000AC01060808B5024B1B681B6F019308BD00
:1005D000AC01060808B5034B1B68D3F880300193C3
:1005E00008BD0000AC01060808B5034B1B68D3F832
:1005F0009030019308BD0000AC01060808B5024B1D
:100600001B689B69019308BDC401060808B5024B2D
:100610001B685B6A019308BDC401060808B5024B5C
:100620001B689B6A019308BDC401060808B5024B0C
:100630001B68DB6A019308BDC401060808B5024BBC
:100640001B681B6B019308BDC401060808B5024B6B
:100650001B685B6B019308BDC401060808B5024B1B
:100660001B681B6C019308BDC401060808B5024B4A
:100670001B681B68019308BDD801060808B5024B2A
:100680001B685B68019308BDD801060808B5024BDA
:100690001B681B69019308BDD801060808B5024B09
:1006A0001B685B69019308BDD801060808B5024BB9
:1006B0001B689B69019308BDD801060808B5024B69
:1006C0001B68DB69019308BDD801060808B5024B19
:1006D0001B681B6A019308BDD801060808B5024BC8
:1006E0001B689B6C019308BDC001060808B5024B4E
:1006F0001B685B68019308BDA401060808B5024B9E
:100700001B685B69019308BDA401060808B5034B8B
:100710001B68D3F89030019308BD0000A4010608BF
:1007200008B5034B1B68D3F89C30019308BD00004B
:10073000A401060808B5024B1B68DB6B019308BDDA
:10074000CC01060808B5024B1B685B68019308BD25
:10075000C801060808B5024B1B689B68019308BDD9
:10076000C801060808B5024B1B68DB68019308BD89
:10077000C801060808B5024B1B681B69019308BD38
:10078000C801060808B5024B1B685B69019308BDE8
:10079000C801060808B5024B1B689B69019308BD98
:1007A000C801060808B5024B1B68DB69019308BD48
:1007B000C801060808B5024B1B681B6A019308BDF7
:1007C000C801060808B5024B1B681B6B019308BDE6
:1007D000C801060808B5024B1B685B6B019308BD96
:1007E000C801060808B5024B1B681B68019308BDC9
:1007F000A001060808B5024B1B685B68019308BDA1
:10080000A00106080021FFF779BF10B583680446F0
:1008100013B1032201469847204610BD7047F8B532
:10082000064615460C468F18BC4206D0336814F8AD
:10083000011B9B6830469847F6E72846F8BD002222
:10084000007CFFF79FBE0021007CFFF7A3BE0021C4
:10085000007CFFF7A7BE0021007CFFF7ABBE0021A4
:10086000007CFFF7AFBE10B50446142100F04BFD2D
:10087000204610BD10B50446002363604FF47A7320
:10088000A360044B2174084623601146FFF7A2FEC3
:10089000204610BDC4260A0800231A461946007CCB
:1008A000FFF758BE70B50C46064686B014252A469A
:1008B000002101A801F003FE237800228DF8083002
:1008C000636801A90393E368307C0493237AADF84D
:1008D00004500593FFF788FE06B070BD1FB50033C6
:1008E0008DF800104FF06401039118BF0123694691
:1008F00001928DF80830FFF7D5FF05B05DF804FBD5
:100900000123FFF7EBBF0022007CFFF72BBEC9B22B
:10091000FFF7F9BF0022007CFFF72CBE704710B52F
:100920000446182100F0EFFC204610BDF8B50F4634
:1009300000F10806051D002416F8011D0A2238469C
:1009400000F0FBF8AE42044407D0002CF4D02E2176
:10095000384600F0DFF80444EEE72046F8BD00001A
:1009600010B50446044B112240F8043B002101F06D
:10097000A6FD204610BD00BFEC260A080346074A24
:1009800010B543F8042B01F1100251F8044B9142C9
:1009900043F8044BF9D10A781A7010BDEC260A0806
:1009A000024A41600260042202757047EC260A0880
:1009B00010B59DF8084044EA032343EA024242EAA4
:1009C000016104234160037510BD000037B5044D7B
:1009D00005609DF818500095FFF7EAFF03B030BDA1
:1009E000EC260A08014A024B1A6070476E270A0873
:1009F0006C00002000231A464068FFF7A3BE0022C7
:100A000002214068FFF7AEBE002211464068FFF7A2
:100A1000A1BE002211464068FFF7ACBE00231A4673
:100A200019464068FFF7AEBE00231A4619464068D3
:100A3000FFF7B0BE002281F001014068FFF7B2BEAF
:100A400000224068FFF7BEBE002211464068FFF753
:100A5000C1BE002211464068FFF7ACBE70B5164615
:100A60008EB0044608A8FFF77BFF1122002103A8DF
:100A700001F025FD304601F053FD00250A4B00959D
:100A800081B25B6803AA3046FFF728FE20B12946F1
:100A90002046FFF785FF03E003A92046FFF76EFF1E
:100AA00020460EB070BD00BFF4040020024B034A84
:100AB0001A6000225A60704770000020E4270A087C
:100AC000F8B506460D468F180024BD420CD0336899
:100AD00015F8011B9B6830469847002801DB044449
:100AE000F3E7002C08BF04462046F8BD70B5054664
:100AF0000C46084649B101F013FD2B680246214619
:100B00002846BDE87040DB68184770BD08B5FFF7A0
:100B1000EDFF08BD03689B68184708B5FFF7E6FFBF
:100B200008BD38B50D210546FFF7F4FF0A2104463C
:100B30002846FFF7EFFF204438BD012A98BF0A225C
:100B400030B50B468BB000218DF824100DF1230435
:100B5000B3FBF2F505FB1233DBB2092B94BF303344
:100B60003733DBB2214604F801392B46002DEFD193
:100B7000FFF7BCFF0BB030BD2DE9F04719468046AA
:100B8000104617461E469DF8205001F073F908B133
:100B90004D4912E026F000444FF0FF324B4B3846EF
:100BA000214601F067F968B94FF0FF32474B3846EC
:100BB000214601F041F928B945494046FFF796FF23
:100BC000BDE8F0874FF06042424B3846314601F0B5
:100BD00047F908B14049F0E74FF060423F4B3846D3
:100BE000314601F01FF90028F4D1002200233846D5
:100BF000314601F017F938B12D214046FFF78AFF41
:100C000006F10046044600E0044635494FF000096D
:100C100000205FFA89F39D4206D90022314B00F093
:100C2000B9FF09F10109F4E73A46334600F0D6FC72
:100C30000F46064601F05CF90A220146814640460D
:100C4000FFF77BFF0444E5B3484600F003FE02468D
:100C50000B463046394600F0BFFC06460F4640467C
:100C60002149FFF743FF044400221E4B304639461A
:100C700000F066FE06460F4601F012F9B0F1000AD8
:100C800007DA2D214046FFF745FFCAF100018146F2
:100C900002E051464FF000090A224046FFF74DFF9F
:100CA00048440444504600F0E5FD02460B463046F9
:100CB000394600F091FC013D15F0FF0506460F4650
:100CC000D2D12046BDE8F08710280A08FFFFEF7F49
:100CD0001A280A08FFFFEF4114280A08FFFFEFC196
:100CE0000000E03F0000244018280A0837B59DF8AE
:100CF000181005460091FFF73FFF04462846FFF70E
:100D000010FF204403B030BD37B5044608461546F1
:100D100000F0C2FD009502460B462046FFF7E6FFB5
:100D200003B030BD10B50446FFF76FFD204610BD7F
:100D3000034800238360034A034900F0DFBA00BF81
:100D40007800002068000020250D0A0810B5044630
:100D5000006818B1FFF74EFD0023236010BD10B5E9
:100D60000446FFF7F3FF204610BD00004FF6FF7367
:100D700010B5084C00202060A080A0712081638104
:100D8000FFF7B4FC2046BDE81040034A034900F0D9
:100D9000B5BA00BF88000020680000205F0D0A0877
:100DA000024B1A68024B1A60704700BF0000002017
:100DB0009400002070474174704708B5007CFFF72D
:100DC0004DFC20EAE07008BD08B5007CFFF726FC6A
:100DD00020EAE07008BD08B5007CFFF72FFC30EA80
:100DE000200028BF4FF0FF3008BD08B5007CFFF79A
:100DF0001DFC30EA200028BF4FF0FF3008BD007C0A
:100E0000FFF724BC10B50446142100F07CFA2046FC
:100E100010BD70B5457C04460E4625B9007CFFF731
:100E20001DFC002805DD3146207CBDE87040FFF741
:100E3000EDBB284670BD000010B5044608461146BB
:100E4000002262604FF47A72A260054A2074226028
:100E5000012262741A46FFF7D1FB204610BD00BF85
:100E600050280A0838B50C4D296811F0010411D139
:100E70002846FFF716F968B1084A2146084B094889
:100E8000FFF7DAFF2846FFF711F9074A0749054837
:100E900000F034FA034838BD30010020340100204E
:100EA000AC0000209800002068000020B50D0A0862
:100EB00041747047704708B50021007CFFF7F6FBCE
:100EC00030EA200028BF4FF0FF3008BD08B50121EF
:100ED000007CFFF7EBFB30EA200028BF4FF0FF302B
:100EE00008BD08B5007CFFF7D9FB20EAE07008BD1B
:100EF00008B5007CFFF7CAFB20EAE07008BD007C63
:100F0000FFF7E4BB10B50446142100F0FCF92046BD
:100F100010BD38B50446007C0D46FFF7BFFB002826
:100F200001DC607C28B12946207CFFF7C7FB20EA62
:100F3000E07038BD10B50446002363604FF47A7347
:100F4000A360054B08462360012321746374114696
:100F5000FFF78CFB204610BD80280A080022007C89
:100F6000FFF78CBB10B504461422002101F0A7FA4C
:100F7000054B20466360054BE36040F2011323817B
:100F80008123238210BD00BF3D020020BC01002050
:100F900030B50E4D87B001A8FFF7E4FF296811F0C6
:100FA000010410D12846FFF77CF860B101AA214660
:100FB0000748FFF7BFFF2846FFF778F8054A0649BC
:100FC000034800F09BF9024807B030BDB80100208B
:100FD0004003002068000020B50E0A0810B5044642
:100FE0001422002101F06BFA054B20466360054B8B
:100FF000E36040F2011323818123238210BD00BFEF
:10100000F00300205803002010B50E4C86B001A854
:10101000FFF7E4FF2368DB0710D42046FFF741F811
:1010200060B101AA01210848FFF784FF2046FFF7BD
:101030003DF8064A0649044800F060F9024806B047
:1010400010BD00BF54030020DC0300206800002016
:10105000B50E0A08002211464068FFF78BBBF0B5B9
:10106000164689B011220F460446002103A801F05C
:1010700026FA304601F054FA0025009581B27B68CB
:1010800003AA3046FFF72AFB20B129462046FFF786
:1010900087FC03E003A92046FFF770FC204609B057
:1010A000F0BD002211464068FFF784BB00221146C4
:1010B0004068FFF78FBB00224068FFF783BB002228
:1010C00081F001014068FFF76DBB00231A46194605
:1010D0004068FFF75FBB00231A4619464068FFF7D8
:1010E00051BB002211464068FFF734BB00220221A9
:1010F0004068FFF737BB00231A464068FFF722BB62
:10110000024B04225A60024A1A607047F40400201D
:10111000B0280A0808B5144B33B1FFF739FF03684C
:101120001B699847002816DC104B33B1FFF79AFE75
:1011300003681B699847002810DC0D4B0BB1AFF317
:1011400000800C4B7BB1FFF75FFF03681B6998477A
:10115000002806DC08BDAFF30080E5E7AFF30080B0
:10116000EBE7AFF3008008BD0000000000000000C6
:10117000000000000000000008B5FFF7CBFFFFF7FC
:10118000D9F9014B186008BD040500200248034A44
:101190000349121A01F088B900400240044002409D
:1011A00080290A0807B5002300931A466FF07701DB
:1011B000FFF7B6FA03B05DF804FB000007B54388FB
:1011C0000A2B08D0502B09D1094B1B683BB103B047
:1011D0005DF804EB1847FFF7E5FF06E000230093F6
:1011E0001A466FF07701FFF79BFA03B05DF804FB36
:1011F000FC04002038B5104C104D2368AB42104B56
:101200000CBF012200221A7002D0FFF7BFFF256039
:10121000FFF788F9044601F05BF90A4B13B1204649
:10122000AFF3008000210748FFF784FABDE838409B
:1012300000210548FFF76ABA004002401E1C279AA9
:101240000005002000000000BD110A0870B504462A
:1012500014252A46094E002101F031F92580202568
:101260003146A5602561284600F067F83146606088
:10127000284600F062F8E060204670BDDC280A08CD
:1012800030B50E4D87B0296811F0010413D12846FE
:10129000FEF707FF78B101A8FFF7D8FF01AA2146A2
:1012A0000748FFF7E7FA2846FEF700FF054A064918
:1012B000034800F023F8024807B030BD08050020BD
:1012C0000C050020680000201D080A0813B5084C12
:1012D00000231A46194600932046FFF777FB204665
:1012E000044A054902B0BDE8104000F007B800BF4D
:1012F00020050020680000201D090A080B46014651
:10130000184601F0C3B8FEF7CABE0000024B1868C9
:10131000BFF35F8F704700BF3805002010B500286D
:1013200014BF044601242046FFF75CFA20B9FFF7FA
:10133000EDFF08B18047F6E710BDFFF7EFBF0000F3
:10134000244B1A68D0075CBF01221A60224B1A682E
:10135000D1075CBF01221A60204B1A68D2075CBF1C
:1013600001221A601E4B1A68D0075CBF01221A6066
:101370001C4B1A68D1075CBF01221A601A4B1A680D
:10138000D2075CBF01221A60184B1A68D0075CBFF5
:1013900001221A60164B1A68D1075CBF01221A603D
:1013A000144B1A68D2075CBF01221A60124B1A68EC
:1013B000D0075CBF01221A60104B1A68D1075CBFCE
:1013C00001221A600E4B1A68D2075CBF01221A6014
:1013D000704700BF680500206405002060050020FC
:1013E0005C05002058050020540500205005002011
:1013F0004C05002048050020440500204005002041
:101400003C050020184B1A68D1075CBF01221A6006
:10141000164B1A68D2075CBF01221A60144B1A6877
:10142000D0075CBF01221A60124B1A68D1075CBF5B
:1014300001221A60104B1A68D2075CBF01221A60A1
:101440000E4B1A68D0075CBF01221A600C4B1A6859
:10145000D1075CBF01221A600A4B1A68D2075CBF31
:1014600001221A60704700BF880500208405002013
:10147000800500207C0500207805002074050020F0
:10148000700500206C050020184B1A68D1075CBF5E
:1014900001221A60164B1A68D2075CBF01221A603B
:1014A000144B1A68D0075CBF01221A60124B1A68ED
:1014B000D1075CBF01221A60104B1A68D2075CBFCB
:1014C00001221A600E4B1A68D0075CBF01221A6015
:1014D0000C4B1A68D1075CBF01221A600A4B1A68CC
:1014E000D2075CBF01221A60704700BFA805002028
:1014F000A4050020A00500209C05002098050020E0
:1015000094050020900500208C050020244B1A68CB
:10151000D0075CBF01221A60224B1A68D1075CBF5A
:1015200001221A60204B1A68D2075CBF01221A60A0
:101530001E4B1A68D0075CBF01221A601C4B1A6848
:10154000D1075CBF01221A601A4B1A68D2075CBF30
:1015500001221A60184B1A68D0075CBF01221A607A
:10156000164B1A68D1075CBF01221A60144B1A6827
:10157000D2075CBF01221A60124B1A68D0075CBF09
:1015800001221A60104B1A68D1075CBF01221A6051
:101590000E4B1A68D2075CBF01221A60704700BF69
:1015A000D8050020D4050020D0050020CC0500205F
:1015B000C8050020C4050020C0050020BC0500208F
:1015C000B8050020B4050020B0050020AC050020BF
:1015D00081F0004102E000BF83F0004330B54FEAE4
:1015E00041044FEA430594EA050F08BF90EA020F51
:1015F0001FBF54EA000C55EA020C7FEA645C7FEAE4
:10160000655C00F0E2804FEA5454D4EB5555B8BF06
:101610006D420CDD2C4480EA020281EA030382EA77
:10162000000083EA010180EA020281EA0303362D09
:1016300088BF30BD11F0004F4FEA01314FF4801CDC
:101640004CEA113102D0404261EB410113F0004FEE
:101650004FEA03334CEA133302D0524263EB4303A5
:1016600094EA050F00F0A780A4F10104D5F1200E43
:101670000DDB02FA0EFC22FA05F2801841F100019E
:1016800003FA0EF2801843FA05F359410EE0A5F172
:1016900020050EF1200E012A03FA0EFC28BF4CF0A3
:1016A000020C43FA05F3C01851EBE37101F0004559
:1016B00007D54FF0000EDCF1000C7EEB00006EEB66
:1016C0000101B1F5801F1BD3B1F5001F0CD34908F0
:1016D0005FEA30004FEA3C0C04F101044FEA445247
:1016E00012F5800F80F09A80BCF1004F08BF5FEACE
:1016F000500C50F1000041EB045141EA050130BDAE
:101700005FEA4C0C404141EB010111F4801FA4F150
:101710000104E9D191F0000F04BF01460020B1FAA5
:1017200081F308BF2033A3F10B03B3F120020CDADD
:101730000C3208DD02F1140CC2F10C0201FA0CF0BB
:1017400021FA02F10CE002F11402D8BFC2F1200C20
:1017500001FA02F120FA0CFCDCBF41EA0C019040D6
:10176000E41AA2BF01EB0451294330BD6FEA04041F
:101770001F3C1CDA0C340EDC04F11404C4F120020A
:1017800020FA04F001FA02F340EA030021FA04F31C
:1017900045EA030130BDC4F10C04C4F1200220FA73
:1017A00002F001FA04F340EA0300294630BD21FAB1
:1017B00004F0294630BD94F0000F83F4801306BF77
:1017C00081F480110134013D4EE77FEA645C18BF6B
:1017D0007FEA655C29D094EA050F08BF90EA020F02
:1017E00005D054EA000C04BF1946104630BD91EAFA
:1017F000030F1EBF0021002030BD5FEA545C05D1FD
:101800004000494128BF41F0004130BD14F580043B
:101810003CBF01F5801130BD01F0004545F0FE41AF
:1018200041F470014FF0000030BD7FEA645C1ABFE4
:10183000194610467FEA655C1CBF0B46024650EA1B
:10184000013406BF52EA033591EA030F41F4002147
:1018500030BD00BF90F0000F04BF0021704730B5CD
:101860004FF4806404F132044FF000054FF00001A2
:1018700050E700BF90F0000F04BF0021704730B563
:101880004FF4806404F1320410F0004548BF404238
:101890004FF000013EE700BF42004FEAE2014FEA8D
:1018A00031014FEA02701FBF12F07F4393F07F4F68
:1018B00081F06051704792F0000F14BF93F07F4F9A
:1018C000704730B54FF4607401F0004521F00041DD
:1018D00020E700BF50EA010208BF704730B54FF063
:1018E00000050AE050EA010208BF704730B511F068
:1018F000004502D5404261EB41014FF4806404F1A0
:1019000032045FEA915C3FF4DCAE4FF003025FEA21
:10191000DC0C18BF03325FEADC0C18BF033202EBA9
:10192000DC02C2F1200300FA03FC20FA02F001FA03
:1019300003FE40EA0E0021FA02F11444C1E600BFA2
:1019400070B54FF0FF0C4CF4E06C1CEA11541DBF55
:101950001CEA135594EA0C0F95EA0C0F00F0DEF820
:101960002C4481EA030621EA4C5123EA4C5350EA05
:10197000013518BF52EA033541F4801143F4801356
:1019800038D0A0FB02CE4FF00005E1FB02E506F0E7
:101990000042E0FB03E54FF00006E1FB03569CF03C
:1019A000000F18BF4EF0010EA4F1FF04B6F5007F42
:1019B00064F5407404D25FEA4E0E6D4146EB0606B4
:1019C00042EAC62141EA55514FEAC52040EA5E503D
:1019D0004FEACE2EB4F1FD0C88BFBCF5E06F1ED8E7
:1019E000BEF1004F08BF5FEA500E50F1000041EB1E
:1019F000045170BD06F0004646EA010140EA0200CB
:101A000081EA0301B4EB5C04C2BFD4EB0C0541EAEC
:101A1000045170BD41F480114FF0000E013C00F301
:101A2000AB8014F1360FDEBF002001F0004170BD25
:101A3000C4F10004203C35DA0C341BDC04F114043E
:101A4000C4F1200500FA05F320FA04F001FA05F2CA
:101A500040EA020001F0004221F0004110EBD37097
:101A600021FA04F642EB06015EEA430E08BF20EAC3
:101A7000D37070BDC4F10C04C4F1200500FA04F366
:101A800020FA05F001FA04F240EA020001F00041F8
:101A900010EBD37041F100015EEA430E08BF20EA6B
:101AA000D37070BDC4F1200500FA05F24EEA020EB3
:101AB00020FA04F301FA05F243EA020321FA04F0E2
:101AC00001F0004121FA04F220EA020000EBD37099
:101AD0005EEA430E08BF20EAD37070BD94F0000F99
:101AE0000FD101F00046400041EB010111F4801FCD
:101AF00008BF013CF7D041EA060195F0000F18BF7E
:101B0000704703F00046520043EB030313F4801FB9
:101B100008BF013DF7D043EA0603704794EA0C0F73
:101B20000CEA135518BF95EA0C0F0CD050EA410689
:101B300018BF52EA4306D1D181EA030101F0004106
:101B40004FF0000070BD50EA410606BF104619462E
:101B500052EA430619D094EA0C0F02D150EA01363A
:101B600013D195EA0C0F05D152EA03361CBF10467B
:101B700019460AD181EA030101F0004141F0FE411A
:101B800041F470014FF0000070BD41F0FE4141F49E
:101B9000780170BD70B54FF0FF0C4CF4E06C1CEA9E
:101BA00011541DBF1CEA135594EA0C0F95EA0C0F53
:101BB00000F0A7F8A4EB050481EA030E52EA03350E
:101BC0004FEA013100F088804FEA03334FF080552F
:101BD00045EA131343EA12634FEA022245EA11155C
:101BE00045EA10654FEA00260EF000419D4208BF0D
:101BF000964244F1FD0404F5407402D25B084FEABA
:101C00003202B61A65EB03055B084FEA32024FF465
:101C100080104FF4002CB6EB020E75EB030E22BFC2
:101C2000B61A754640EA0C005B084FEA3202B6EB82
:101C3000020E75EB030E22BFB61A754640EA5C0031
:101C40005B084FEA3202B6EB020E75EB030E22BFC1
:101C5000B61A754640EA9C005B084FEA3202B6EBC2
:101C6000020E75EB030E22BFB61A754640EADC0081
:101C700055EA060E18D04FEA051545EA16754FEAE3
:101C800006164FEAC30343EA52734FEAC2025FEA01
:101C90001C1CC0D111F4801F0BD141EA00014FF090
:101CA00000004FF0004CB6E711F4801F04BF014361
:101CB0000020B4F1FD0C88BFBCF5E06F3FF6AFAE7D
:101CC000B5EB030C04BFB6EB020C5FEA500C50F10D
:101CD000000041EB045170BD0EF0004E4EEA113190
:101CE00014EB5C04C2BFD4EB0C0541EA045170BD97
:101CF00041F480114FF0000E013C90E645EA060EDB
:101D00008DE60CEA135594EA0C0F08BF95EA0C0F08
:101D10003FF43BAF94EA0C0F0AD150EA01347FF450
:101D200034AF95EA0C0F7FF425AF104619462CE727
:101D300095EA0C0F06D152EA03353FF4FDAE10468A
:101D4000194622E750EA410618BF52EA43067FF4DB
:101D5000C5AE50EA41047FF40DAF52EA43057FF46B
:101D6000EBAE12E74FF0FF3C06E000BF4FF0010C76
:101D700002E000BF4FF0010C4DF804CD4FEA410CDA
:101D80007FEA6C5C4FEA430C18BF7FEA6C5C1BD0A7
:101D900001B050EA410C0CBF52EA430C91EA030F28
:101DA00002BF90EA020F0020704710F1000F91EA85
:101DB000030F58BF994208BF90422CBFD8176FEA53
:101DC000E37040F0010070474FEA410C7FEA6C5C21
:101DD00002D150EA013C07D14FEA430C7FEA6C5C28
:101DE000D6D152EA033CD3D05DF8040B704700BF54
:101DF0008446104662468C461946634600E000BFA2
:101E000001B5FFF7B7FF002848BF10F1000F01BD73
:101E10004DF808EDFFF7F4FF0CBF012000205DF83E
:101E200008FB00BF4DF808EDFFF7EAFF34BF0120C3
:101E300000205DF808FB00BF4DF808EDFFF7E0FF5C
:101E400094BF012000205DF808FB00BF4DF808EDAD
:101E5000FFF7CEFF94BF012000205DF808FB00BF14
:101E60004DF808EDFFF7C4FF34BF012000205DF8F6
:101E700008FB00BF4FEA410C7FEA6C5C02D150EADC
:101E8000013C0AD14FEA430C7FEA6C5C02D152EA72
:101E9000033C02D14FF0000070474FF00100704743
:101EA0004FEA410212F5001215D211D56FF4787382
:101EB000B3EB625212D94FEAC12343F0004343EA25
:101EC000505311F0004F23FA02F018BF4042704700
:101ED0004FF00000704750EA013005D111F000408A
:101EE00008BF6FF0004070474FF00000704700BF20
:101EF0004A0011D212F5001211D20DD56FF4787389
:101F0000B3EB62520ED44FEAC12343F0004343EADD
:101F1000505323FA02F070474FF00000704750EA28
:101F2000013002D14FF0FF3070474FF00000704792
:101F30004FEA4102B2F1E04324BFB3F5001CDCF1EB
:101F4000FE5C0DD901F0004C4FEAC0024CEA507023
:101F5000B2F1004F40EB830008BF20F00100704752
:101F600011F0804F21D113F13872BCBF01F0004055
:101F7000704741F480114FEA5252C2F11802C2F187
:101F8000200C10FA0CF320FA02F018BF40F0010008
:101F90004FEAC1234FEAD32303FA0CFC40EA0C00BA
:101FA00023FA02F34FEA4303CCE77FEA625307D1F7
:101FB00050EA01331EBF4FF0FE4040F4400070472E
:101FC00001F0004040F0FE4040F40000704700BFC8
:101FD00080F0004002E000BF81F0004142001FBFDE
:101FE0005FEA410392EA030F7FEA226C7FEA236CE7
:101FF0006AD04FEA1262D2EB1363C1BFD2184140DC
:1020000048404140B8BF5B42192B88BF704710F071
:10201000004F40F4000020F07F4018BF404211F014
:10202000004F41F4000121F07F4118BF494292EA7C
:10203000030F3FD0A2F1010241FA03FC10EB0C00A8
:10204000C3F1200301FA03F100F0004302D5494235
:1020500060EB4000B0F5000F13D3B0F1807F06D3E2
:1020600040084FEA310102F10102FE2A51D2B1F1DA
:10207000004F40EBC25008BF20F0010040EA0300CF
:102080007047490040EB000010F4000FA2F101027C
:10209000EDD1B0FA80FCACF1080CB2EB0C0200FA06
:1020A0000CF0AABF00EBC25052421843BCBFD04054
:1020B0001843704792F0000F81F4000106BF80F4CE
:1020C00000000132013BB5E74FEA41037FEA226C91
:1020D00018BF7FEA236C21D092EA030F04D092F05C
:1020E000000F08BF0846704790EA010F1CBF002090
:1020F000704712F07F4F04D1400028BF40F00040ED
:10210000704712F100723CBF00F50000704700F00C
:10211000004343F0FE4040F4000070477FEA226233
:1021200016BF08467FEA23630146420206BF5FEA04
:10213000412390EA010F40F4800070474FF0000304
:1021400004E000BF10F0004348BF40425FEA000CCB
:1021500008BF704743F0964301464FF000001CE073
:1021600050EA010208BF70474FF000030AE000BFC9
:1021700050EA010208BF704711F0004302D5404207
:1021800061EB41015FEA010C02BF84460146002079
:1021900043F0B64308BFA3F18053A3F50003BCFA94
:1021A0008CF2083AA3EBC25310DB01FA02FC634441
:1021B00000FA02FCC2F12002BCF1004F20FA02F248
:1021C00043EB020008BF20F00100704702F120023B
:1021D00001FA02FCC2F1200250EA4C0021FA02F29C
:1021E00043EB020008BF20EADC7070474FF0FF0CA1
:1021F0001CEAD0521EBF1CEAD15392EA0C0F93EA9C
:102200000C0F6FD01A4480EA010C400218BF5FEA3D
:1022100041211ED04FF0006343EA501043EA5111B0
:10222000A0FB01310CF00040B1F5000F3EBF4900AA
:1022300041EAD3715B0040EA010062F17F02FD2AAE
:102240001DD8B3F1004F40EBC25008BF20F0010091
:10225000704790F0000F0CF0004C08BF49024CEAA8
:10226000502040EA51207F3AC2BFD2F1FF0340EA3A
:10227000C250704740F400004FF00003013A5DDCAB
:1022800012F1190FDCBF00F000407047C2F10002EC
:10229000410021FA02F1C2F1200200FA02FC5FEAD9
:1022A000310040F1000053EA4C0308BF20EADC7023
:1022B000704792F0000F00F0004C02BF400010F495
:1022C000000F013AF9D040EA0C0093F0000F01F042
:1022D000004C02BF490011F4000F013BF9D041EA64
:1022E0000C018FE70CEAD15392EA0C0F18BF93EA66
:1022F0000C0F0AD030F0004C18BF31F0004CD8D190
:1023000080EA010000F00040704790F0000F17BF16
:1023100090F0004F084691F0000F91F0004F14D05C
:1023200092EA0C0F01D142020FD193EA0C0F03D1B4
:102330004B0218BF084608D180EA010000F00040B7
:1023400040F0FE4040F40000704740F0FE4040F492
:10235000400070474FF0FF0C1CEAD0521EBF1CEA31
:10236000D15392EA0C0F93EA0C0F69D0A2EB03024F
:1023700080EA010C49024FEA402037D04FF08053E9
:1023800043EA111143EA10130CF000408B4238BFAE
:102390005B0042F17D024FF4000C8B4224BF5B1ABC
:1023A00040EA0C00B3EB510F24BFA3EB510340EA0A
:1023B0005C00B3EB910F24BFA3EB910340EA9C00B8
:1023C000B3EBD10F24BFA3EBD10340EADC001B0128
:1023D00018BF5FEA1C1CE0D1FD2A3FF650AF8B42CC
:1023E00040EBC25008BF20F0010070470CF0004CD9
:1023F0004CEA50207F32C2BFD2F1FF0340EAC25004
:10240000704740F400004FF00003013A37E792F0C4
:10241000000F00F0004C02BF400010F4000F013A22
:10242000F9D040EA0C0093F0000F01F0004C02BF1D
:10243000490011F4000F013BF9D041EA0C0195E786
:102440000CEAD15392EA0C0F08D142027FF47DAF1F
:1024500093EA0C0F7FF470AF084676E793EA0C0F0F
:1024600004D14B023FF44CAF08466EE730F0004C0D
:1024700018BF31F0004CCAD130F000427FF45CAF9D
:1024800031F000437FF43CAF5FE700BF10B5054C6F
:1024900013462CB10A4601460220AFF3008010BD5E
:1024A000204610BD0000000010B5431E0A449142B2
:1024B00004D011F8014B03F8014FF8E710BD0346B3
:1024C0000244934202D003F8011BFAE77047000070
:1024D00038B5124B05461C68A36BD3B91820FEF71C
:1024E00081F943F20E33A06303804AF6CD33438073
:1024F00041F2342383804EF26D63C3804DF6EC636A
:102500000381052343810B23838101220023C0E93A
:102510000423A36B00221D615A6138BD64000020B2
:10252000034613F8012B002AFBD1181A0138704713
:1025300021000A0861000A088D000A0891000A08B3
:102540000000000043757272656E74203D20004CDF
:10255000696E65204672657175656E6379203D20F0
:1025600000416E616C6F6720496E70757420566F04
:102570006C74616765203D2000506F77657220465E
:102580006163746F72203D20004163746976652039
:10259000506F776572203D200052656163746976E3
:1025A0006520506F776572203D2000417070617228
:1025B000656E7420506F776572203D20004932436C
:1025C000206275732053746174757320537563634F
:1025D0006573733A3A00427573792074696D656F5B
:1025E00075742075706F6E20656E746572696E67A4
:1025F00020656E645472616E736D697373696F6E7A
:1026000028293A3A00537461727420626974206711
:10261000656E65726174696F6E2074696D656F7542
:10262000743A3A00656E64206F6620616464726576
:102630007373207472616E736D697373696F6E204A
:1026400074696D656F75743A3A0044617461206213
:10265000797465207472616E736665722074696D39
:10266000656F75743A3A00446174612062797465EB
:10267000207472616E73666572207375636365653D
:102680006465642C20627573792074696D656F755B
:102690007420696D6D6564696174656C792061662B
:1026A0007465723A3A00436865636B73756D203DDB
:1026B000200072657476616C203D200000000000EF
:1026C000000000001D080A0867080A083F080A08F9
:1026D0001F080A0847080A084F080A0857080A0886
:1026E0005F080A0800000000000000002D090A0829
:1026F0001D090A081F090A086261756400536572A2
:1027000069616C0055534253657269616C310074A4
:1027100079706500706172616D00636D6400696459
:1027200000686E64007374726D0066696C74006C8E
:10273000766C0061646448616E646C6572007265F9
:102740006D6F766548616E646C657200656E756D5F
:1027500048616E646C657273004A534F4E537472D5
:1027600065616D4C6F6748616E646C657200617085
:102770007000253031307520005D20002564002C6C
:10278000200028293A2000205B00636F6465203D0B
:10279000200025690064657461696C73203D200028
:1027A0000D0A006C6E00666E00636F646500646500
:1027B0007461696C006E6F6E6500747261636500B0
:1027C000696E666F007761726E006572726F72007B
:1027D00070616E696300616C6C00000000000000B5
:1027E00000000000F5090A08FF090A08090A0A089A
:1027F000130A0A081D0A0A08290A0A08350A0A08DB
:10280000410A0A08490A0A08530A0A085D0A0A081E
:102810006E616E006F7666002E00696E66005A006B
:10282000252B3033643A253032750025592D256D1E
:102830002D25645425483A254D3A2553257A0061C3
:10284000736374696D650000000000000000000003
:10285000B50D0A08050E0A08130E0A08C10A0A086F
:10286000C90D0A08EB0D0A08D70D0A08FF0D0A0862
:10287000B70D0A08BB0D0A080000000000000000A8
:10288000B50E0A08050F0A08130F0A08C10A0A083C
:10289000F10E0A08B70E0A08CD0E0A08FF0E0A0844
:1028A000E30E0A08B10E0A08000000000000000054
:1028B000F7100A08ED100A08E3100A0855100A0874
:1028C000D7100A08CB100A08BF100A08B7100A0868
:1028D000AD100A08A3100A085F100A0800000000E3
:1028E00000000000000000000000000000000000E8
:1028F00000000000000000000000000000000000D8
:1029000000000000000000000000000000000000C7
:1029100000000000000000000000000000000000B7
:1029200000000000000000000000000000000000A7
:102930000000000000000000000000000000000097
:102940004300000021050A08E5090A08AD0A0A0843
:10295000310D0A086D0D0A08A10D0A0801110A08B7
:10296000CD120A0841130A0805140A0889140A0836
:102970000D150A0800000000000000000000000023
:042980000000000053
:102984003F280A0800000000E0280A0800290A0875
:1029940020290A08000000000000000000000000D8
:1029A4000000000040290A080000000000000000A8
:1029B4000000000000000000000000000000000013
:1029C4000000000000000000000000000000000003
:1029D40000000000000000000000000000000000F3
:0829E4000000000004000020C7
:1029EC00FFFFFFFF00000102030405060708090AA8
:1029FC000B0C0D0E0F101112131415161718191AA3
:082A0C001B1C1D1E1F202800E9
:042A140078563412AA
:04000005080A0020C5
:00000001FF
