:02000002D0002C
:1040000000400D0034560D00000006000C000501B4
:08401000040179050000000025
:0440180058520D00ED
:10401C0009480A49884208B505D0094A824202D0AB
:10402C00121A01F0CFF80748074A0021121A01F0C2
:10403C00D4F8014808BD00BF58E30320A0550D007B
:10404C00C4E30320C4E30320F0E7032070B500F0C1
:10405C00FFFE074C074BE41AA40800251E46A54298
:10406C0004D056F8253098470135F8E770BD00BFED
:10407C0098550D005C550D0000F014B808B500F013
:10408C002FF8BDE8084000F0B1BE00F01FBA00F0F8
:10409C001DBA0078B0FA80F0400970470123037014
:1040AC007047000008B50C48002319461A464068B2
:1040BC0000F0DCF900F018FE4FF4E13100F008FEDE
:1040CC0000F0E0FE054900F09BFA00F0DBFEBDE8D5
:1040DC00084000F099BA00BF08E70320A086010051
:1040EC0037B5A52302228DF8003008238DF8013056
:1040FC008DF8042041234E228DF802308DF80520D6
:10410C00002320228DF806208DF803308DF807301F
:10411C001A461DF803100133072B0A44F9D1134C2E
:10412C008DF8072000F0AEFE216800F085FA00251E
:10413C0000F0A8FE03681DF805109B680135984730
:10414C00082DF5D100F09EFE00F07DFA642000F001
:10415C00C5F900F097FE2022216800F064FA4FF4B4
:10416C007A7003B0BDE8304000F0B8B958E30320D2
:10417C0000F038B808B5024B1B689B68019308BD6A
:10418C004802030008B5024B1B681B69019308BD6C
:10419C004802030008B5024B1B685B69019308BD1C
:1041AC004802030008B5024B1B681B6B019308BD4A
:1041BC004802030008B5024B1B685B6C019308BDF9
:1041CC004802030008B5024B1B685B68019308BDED
:1041DC001802030008B5024B1B685B69019308BD0C
:1041EC001802030008B5024B1B681B68019308BD3D
:1041FC002C02030008B5024B1B681B68019308BD19
:10420C002802030008B5024B1B68DB68019308BD4C
:10421C002802030008B5024B1B685B69019308BDBB
:10422C002802030008B5024B1B689B69019308BD6B
:10423C002802030008B5024B1B68DB69019308BD1B
:10424C002802030008B5024B1B681B6A019308BDCA
:10425C002802030008B5024B1B685B6A019308BD7A
:10426C002802030008B5024B1B689B6A019308BD2A
:10427C002802030008B5024B1B68DB6A019308BDDA
:10428C002802030008B5024B1B681B6B019308BD89
:10429C002802030008B5024B1B681B6C019308BD78
:1042AC002802030008B5024B1B685B69019308BD2B
:1042BC006402030008B5024B1B689B68019308BDA0
:1042CC006802030008B5024B1B68DB68019308BD4C
:1042DC006802030008B5024B1B68DB69019308BD3B
:1042EC003002030008B5024B1B681B68019308BD24
:1042FC003C02030008B5024B1B68DB68019308BD48
:10430C003C02030008B5024B1B681B69019308BDF6
:10431C003C02030008B5024B1B685B69019308BDA6
:10432C003C02030008B5024B1B689B69019308BD56
:10433C003C02030008B5024B1B68DB69019308BD06
:10434C003C02030008B5024B1B689B6A019308BD35
:10435C003C02030008B5024B1B681B68019308BDA7
:10436C004C02030008B5024B1B685B68019308BD47
:10437C004C02030008B5024B1B681B69019308BD76
:10438C004C02030008B5024B1B685B69019308BD26
:10439C004C02030008B5024B1B689B69019308BDD6
:1043AC004C02030008B5024B1B68DB69019308BD86
:1043BC004C02030008B5024B1B681B6A019308BD35
:1043CC004C02030008B5024B1B685B68019308BDE7
:1043DC002002030008B5024B1B685B69019308BD02
:1043EC002002030008B5034B1B68D3F888300193F7
:1043FC0008BD00002002030008B5034B1B68D3F86E
:10440C009430019308BD00002002030008B5024B54
:10441C001B68DB6B019308BD4402030008B5024B1B
:10442C001B685B68019308BD4002030008B5024B92
:10443C001B689B68019308BD4002030008B5024B42
:10444C001B68DB68019308BD4002030008B5024BF2
:10445C001B681B69019308BD4002030008B5024BA1
:10446C001B685B69019308BD4002030008B5024B51
:10447C001B689B69019308BD4002030008B5024B01
:10448C001B68DB69019308BD4002030008B5024BB1
:10449C001B681B6A019308BD4002030008B5024B60
:1044AC001B681B6B019308BD4002030008B5024B4F
:1044BC001B685B6B019308BD4002030008B5024BFF
:1044CC001B681B68019308BD1C02030008B5024B56
:1044DC001B685B68019308BD1C0203000021FFF7F9
:1044EC0079BF0000024800230360FFF763BE00BFE2
:1044FC00C8E3032010B58368044613B103220146B8
:10450C009847204610BD002211464068FFF7BEBFF9
:10451C00002211464068FFF7C9BF00224068FFF730
:10452C00BDBF002281F001014068FFF7A7BF002347
:10453C001A4619464068FFF799BF00231A461946D8
:10454C004068FFF78BBF002211464068FFF77EBF23
:10455C00002211464068FFF769BF00220221406823
:10456C00FFF76CBF00231A464068FFF757BF0000E7
:10457C00024B03225A60024A1A607047CCE30320B4
:10458C0074520D007047F8B5064615460C468F1848
:10459C00BC4206D0336814F8011B9B683046984720
:1045AC00F6E72846F8BD0022007CFFF74BBE002141
:1045BC00007CFFF74FBE0021007CFFF753BE0021AB
:1045CC00007CFFF757BE0021007CFFF75BBE10B5E7
:1045DC001421044600F09DFC204610BD10B5044685
:1045EC004FF47A730846A3600021044B2074616079
:1045FC002360FFF74FFE204610BD00BFA8520D00F0
:10460C000022007CFFF7F6BD00231A461946007CF9
:10461C00FFF7F8BD13B50024007C0094FFF7FAFDFA
:10462C00C0B202B010BD0123D2B2C9B2FFF7F2BFC3
:10463C000022007CFFF7F6BDC9B2FFF7F9BF0022DC
:10464C00007CFFF7F7BD0121FFF7F9BF704710B5EC
:10465C001821044600F05DFC204610BDF0B5037D2A
:10466C00062B8DB00E4600F104074FF0000402D06B
:10467C0000F1080518E00CAD394605F8304D2F2334
:10468C002A460A20FFF70EFE284600F0D7FD3368B5
:10469C000246DB682946304698470FE024B12E21AC
:1046AC00304600F0C9F9044415F8011D0A223046C1
:1046BC0000F0F2F9BD420444F0D120460DB0F0BD3B
:1046CC0010B5054B0446112240F8043B002100F0C4
:1046DC0084FD204610BD00BFD0520D000346074A92
:1046EC0010B543F8042B01F1100251F8044B43F8B8
:1046FC00044B9142F9D10A781A7010BDD0520D00BA
:10470C0010B59DF8084044EA032343EA024242EA0A
:10471C00016104234160037510BD37B50D788B78AA
:10472C004A78C97800912946FFF7EAFF03B030BDFB
:10473C00014B024A1A607047D4E303204F530D001B
:10474C00002211464068FFF7A1BE002211464068C6
:10475C00FFF7ACBE00224068FFF7A0BE002281F03C
:10476C0001014068FFF78ABE00231A460121406808
:10477C00FFF77CBE00231A4619464068FFF76EBE51
:10478C00002211464068FFF761BE002211464068C6
:10479C00FFF74CBE002202214068FFF74FBE0023FA
:1047AC001A464068FFF73ABE38B5054688B104682A
:1047BC004CB1A3681BB10322214620469847102117
:1047CC00204600F0A6FB28461421BDE8384000F036
:1047DC00A0BB38BD10B103685B681847704710B5B3
:1047EC0003680446BBB15868FFF7C4FC78B923686A
:1047FC005A7C12B95868FFF7C5FC23685868FFF754
:10480C00C9FC20680023236028B1FFF7CDFF206886
:10481C0008B1FFF7C9FF204610BD000038B50C4B9E
:10482C0003600446D0F8CC0108B1FFF730FCD4F893
:10483C00C45135B12846FFF7D2FF0421284600F0B9
:10484C0068FBA06808B1FFF7C5FF204638BD00BF64
:10485C00C8530D0038B50E4C0E4B236000250223B7
:10486C0004F5E4706360A560C4F8C451C4F8C85181
:10487C00FFF7A0FC084BC4F8CC5184F8D05123604E
:10488C002046064A0649BDE8384000F03DBB00BF53
:10489C00D8E30320FC530D00C8530D00C4E30320E0
:1048AC0029480D0000231A464068FFF7B7BD0022C7
:1048BC0002214068FFF7C2BD002211464068FFF795
:1048CC00B5BD002211464068FFF7C0BD00231A4653
:1048DC0019464068FFF7C2BD00231A4619464068C6
:1048EC00FFF7C4BD002281F001014068FFF7C6BD8F
:1048FC0000224068FFF7D2BD002211464068FFF746
:10490C00D5BD002211464068FFF7C0BD2DE9F0432C
:10491C00002495B016460D460746FFF7D1FE2146FA
:10492C0020220CA8009400F058FC40230C93214644
:10493C006B460CAA3046FFF7C5FC0446002844D150
:10494C00024601216868FFF781FD0221804622465C
:10495C006868FFF77BFD009E81462146002E34D00F
:10496C00002932D17368022B02D00A2B09D02AE01D
:10497C00B8F1000F27D0716938460431FFF7CDFE2E
:10498C0020E0B9F1000F1ED07469112201A800F0CB
:10499C0024FC06238DF8143001AD04F108031834FF
:1049AC00186859682A4603C20833A3421546F7D142
:1049BC0001A906A807ADFFF791FE0FCD3C1D0FC452
:1049CC002B6823700121F669C8E70098FFF772FC89
:1049DC00384615B0BDE8F083024B034A1A6000223A
:1049EC005A607047ACE50320FC530D00F8B5064641
:1049FC000D468F180024BD420CD0336815F8011BEE
:104A0C009B6830469847002801DB0444F3E7002CF0
:104A1C0008BF04462046F8BD70B505460C4608464E
:104A2C0049B100F00BFC2B68024621462846DB6896
:104A3C00BDE87040184770BD03689B68184730B5D7
:104A4C008BB00B4600218DF82410012A98BF0A2246
:104A5C000DF12304B3FBF2F505FB123303F0FF0356
:104A6C00092B94BF30333733DBB2214604F80139BC
:104A7C002B46002DEED1FFF7CFFF0BB030BD10B49D
:104A8C002AB903685DF8044B9B68C9B21847D2B2C7
:104A9C005DF8044BFFF7D3BFFFF7F1BF10B5044629
:104AAC00FFF728FD204610BD0348044A04490023A3
:104ABC00836000F029BA00BFB4E50320C4E30320EF
:104ACC00A94A0D00704710B51021044600F021FAD8
:104ADC00204610BD70B5084B0360044600250E46F9
:104AEC0040F80C5FFFF75EFB30462671FFF7F2FBD8
:104AFC00A560204670BD00BF30540D00044B002053
:104B0C004FF6FF72187058809A80FFF75BBC00BF9D
:104B1C00C4E50320024B1A68024B1A60704700BFB1
:104B2C005CE30320CCE5032070474174704708B563
:104B3C00007CFFF707FC20EAE07008BD08B5007C9C
:104B4C00FFF7E0FB20EAE07008BD08B5007CFFF73A
:104B5C00E9FB30EA200028BF4FF0FF3008BD08B554
:104B6C00007CFFF7D7FB30EA200028BF4FF0FF3066
:104B7C0008BD007CFFF7DEBB10B51421044600F025
:104B8C00C8F9204610BD70B5457C04460E4625B9C3
:104B9C00007CFFF7D7FB002805DD3146207CBDE803
:104BAC007040FFF7A7BB284670BD000010B5044647
:104BBC0008461146002262604FF47A72A260054AE0
:104BCC0022600122207462741A46FFF78BFB204688
:104BDC0010BD00BF6C540D0038B50C4D296811F098
:104BEC00010411D12846FFF754FA68B1084A094B61
:104BFC0009482146FFF7DAFF2846FFF74FFA074A24
:104C0C000749054800F080F9034838BD68E60320E1
:104C1C006CE60320E4E50320D0E50320C4E3032085
:104C2C00354B0D0041747047704708B50021007C6E
:104C3C00FFF7B0FB30EA200028BF4FF0FF3008BD73
:104C4C0008B50121007CFFF7A5FB30EA200028BF46
:104C5C004FF0FF3008BD08B5007CFFF793FB20EA4E
:104C6C00E07008BD08B5007CFFF784FB20EAE0701B
:104C7C0008BD007CFFF79EBB10B51421044600F064
:104C8C0048F9204610BD38B50446007C0D46FFF7A8
:104C9C0079FB002801DC607C28B12946207CFFF7D9
:104CAC0081FB20EAE07038BD10B504460023636038
:104CBC004FF47A73A360054B2360012308462174DB
:104CCC0063741146FFF746FB204610BD9C540D0043
:104CDC000022007CFFF746BB10B5142204460021CD
:104CEC0000F07BFA204610BD30B50E4D87B001A800
:104CFC00FFF7F2FF296811F0010410D12846FFF7E5
:104D0C00C8F960B101AA21460748FFF7CDFF284634
:104D1C00FFF7C4F9054A0649034800F0F5F80248C4
:104D2C0007B030BDF0E60320F4E60320C4E3032013
:104D3C00354C0D00002211464068FFF787BB00225E
:104D4C0011464068FFF7A2BB002211464068FFF7EE
:104D5C00ADBB00224068FFF7A1BB002281F001012E
:104D6C004068FFF78BBB00231A4619464068FFF7D3
:104D7C007DBB00231A4619464068FFF76FBB002223
:104D8C0011464068FFF752BB002202214068FFF732
:104D9C0055BB00231A464068FFF740BB024B042268
:104DAC005A60024A1A60704708E70320CC540D0081
:104DBC0008B50C4B33B1FFF797FF03681B69984795
:104DCC00002809DC084B63B1FFF706FF03681B6979
:104DDC009847002803DC08BDAFF30080F2E7AFF37F
:104DEC00008008BD000000000000000008B5FFF7BF
:104DFC00DFFFFFF7EFF9014B186008BD14E7032044
:104E0C0007B5002300931A466FF07701FFF7F4FA09
:104E1C0003B05DF804FB000007B543880A2B08D0EB
:104E2C00502B09D1094B1B683BB103B05DF804EB67
:104E3C001847FFF7E5FF06E0002300931A466FF0D2
:104E4C007701FFF7D9FA03B05DF804FB10E70320F4
:104E5C0010B5FFF7B7F9044600F0C8F9074B13B1CA
:104E6C002046AFF3008000210448FFF7CFFA002161
:104E7C000348BDE81040FFF7B5BA00BF00000000C2
:104E8C00254E0D0038B50B4D296811F001040FD1DA
:104E9C002846FFF7FEF858B121460748FFF79EFB5E
:104EAC002846FFF7FBF8054A0549034800F02CF8A3
:104EBC00014838BD18E703201CE70320C4E3032096
:104ECC0091450D0070B50C4C0C4E0D4D002120463B
:104EDC00FFF700FE20460B4C3246294600F014F832
:104EEC0001212046FFF7F6FD324629462046BDE853
:104EFC00704000F009B800BF30E70320C4E3032082
:104F0C00D14A0D0040E703200B460146184600F03D
:104F1C004BB9FFF7BAB80000244B1A68D0075CBF36
:104F2C0001221A60224B1A68D1075CBF01221A6059
:104F3C00204B1A68D2075CBF01221A601E4B1A68FC
:104F4C00D0075CBF01221A601C4B1A68D1075CBFEA
:104F5C0001221A601A4B1A68D2075CBF01221A6030
:104F6C00184B1A68D0075CBF01221A60164B1A68DE
:104F7C00D1075CBF01221A60144B1A68D2075CBFC0
:104F8C0001221A60124B1A68D0075CBF01221A600A
:104F9C00104B1A68D1075CBF01221A600E4B1A68BD
:104FAC00D2075CBF01221A60704700BF7CE7032068
:104FBC0078E7032074E7032070E703206CE70320F5
:104FCC0068E7032064E7032060E703205CE7032025
:104FDC0058E7032054E7032050E70320184B1A68C6
:104FEC00D1075CBF01221A60164B1A68D2075CBF4E
:104FFC0001221A60144B1A68D0075CBF01221A6098
:10500C00124B1A68D1075CBF01221A60104B1A6848
:10501C00D2075CBF01221A600E4B1A68D0075CBF26
:10502C0001221A600C4B1A68D1075CBF01221A606E
:10503C000A4B1A68D2075CBF01221A60704700BF86
:10504C009CE7032098E7032094E7032090E70320D4
:10505C008CE7032088E7032084E7032080E7032004
:10506C00184B1A68D1075CBF01221A60164B1A68DC
:10507C00D2075CBF01221A60144B1A68D0075CBFC0
:10508C0001221A60124B1A68D1075CBF01221A6008
:10509C00104B1A68D2075CBF01221A600E4B1A68BB
:1050AC00D0075CBF01221A600C4B1A68D1075CBF99
:1050BC0001221A600A4B1A68D2075CBF01221A60DF
:1050CC00704700BFBCE70320B8E70320B4E7032018
:1050DC00B0E70320ACE70320A8E70320A4E70320F4
:1050EC00A0E70320244B1A68D0075CBF01221A608A
:1050FC00224B1A68D1075CBF01221A60204B1A6838
:10510C00D2075CBF01221A601E4B1A68D0075CBF25
:10511C0001221A601C4B1A68D1075CBF01221A606D
:10512C001A4B1A68D2075CBF01221A60184B1A6816
:10513C00D0075CBF01221A60164B1A68D1075CBFFE
:10514C0001221A60144B1A68D2075CBF01221A6044
:10515C00124B1A68D0075CBF01221A60104B1A68F8
:10516C00D1075CBF01221A600E4B1A68D2075CBFD4
:10517C0001221A60704700BFECE70320E8E7032028
:10518C00E4E70320E0E70320DCE70320D8E7032073
:10519C00D4E70320D0E70320CCE70320C8E70320A3
:1051AC00C4E70320C0E7032010B5054C13462CB10F
:1051BC000A4601460220AFF3008010BD204610BD08
:1051CC000000000010B5431E0A44914204D011F8AF
:1051DC00014B03F8014FF8E710BD0244034693421C
:1051EC0002D003F8011BFAE77047000038B5124BE8
:1051FC001C68A36B0546D3B91820FFF75FF943F27F
:10520C000E33A06303804AF6CD33438041F234233E
:10521C0083804EF26D63C3804DF6EC6303810523EE
:10522C0043810B23838101220023C0E90423A36B58
:10523C0000221D615A6138BDC0E30320034613F8F8
:10524C00012B002AFBD1181A013870471D400D00A4
:10525C0059400D0085400D0089400D0000000000F4
:10526C00000000000000000071450D0067450D00B6
:10527C005D450D0053450D0047450D003B450D00A8
:10528C002F450D0027450D001D450D0013450D0044
:10529C0019490D00000000000000000091450D00B0
:1052AC00DB450D00B3450D0093450D00BB450D00CE
:1052BC00C3450D00CB450D00D3450D00000000008B
:1052CC000000000069460D0059460D005B460D00BC
:1052DC00626175640053657269616C005365726933
:1052EC00616C31007479706500706172616D00637E
:1052FC006D6400696400686E64007374726D00669E
:10530C00696C74006C766C0061646448616E646CEA
:10531C0065720072656D6F766548616E646C65725E
:10532C0000656E756D48616E646C657273004A53EE
:10533C004F4E53747265616D4C6F6748616E646C4F
:10534C0065720061707000253031307520005D2071
:10535C00002564002C200028293A2000205B0063E3
:10536C006F6465203D200025690064657461696C7B
:10537C0073203D20000D0A0066006C6E00666E0006
:10538C00636F64650064657461696C006E6F6E6553
:10539C0000747261636500696E666F007761726E8E
:1053AC00006572726F720070616E696300616C6C83
:1053BC00000000000000000000000000AB470D00E2
:1053CC00A1470D0097470D008D470D0081470D003B
:1053DC0075470D0069470D0061470D0057470D00DB
:1053EC004D470D0019490D000000000000000000A1
:1053FC00B1480D00BB480D00C5480D00CF480D004D
:10540C00D9480D00E5480D00F1480D00FD480D0090
:10541C0005490D000F490D0019490D000000000051
:10542C0000000000D14A0D00D34A0D005A00252B74
:10543C003033643A253032750025592D256D2D25D4
:10544C00645425483A254D3A2553257A00617363F7
:10545C0074696D6500000000000000000000000091
:10546C00354B0D00854B0D00934B0D00F9490D008C
:10547C00494B0D006B4B0D00574B0D007F4B0D0036
:10548C00374B0D003B4B0D000000000000000000EE
:10549C00354C0D00854C0D00934C0D00F9490D0059
:1054AC00714C0D00374C0D004D4C0D007F4C0D0018
:1054BC00634C0D00314C0D0000000000000000009A
:1054CC009F4D0D00954D0D008B4D0D00414D0D0068
:1054DC007F4D0D00734D0D00674D0D005F4D0D00A0
:1054EC00554D0D004B4D0D0019490D0000000000ED
:1054FC0000000000000000000000000000000000A0
:10550C00000000000000000000000000000000008F
:10551C00000000000000000000000000000000007F
:10552C00000000000000000000000000000000006F
:10553C00000000000000000000000000000000005F
:10554C00000000000000000000000000430000000C
:10555C007D410D00F1440D007D450D003D470D00D2
:10556C0061480D00E5490D00B54A0D00094B0D00D1
:10557C00214B0D00A94D0D00D14E0D00254F0D00F6
:10558C00E94F0D006D500D00F1500D0000000000B2
:04559C00000000000B
:1055A0007400000059540D0000000000F8540D0074
:1055B00018550D0038550D000000000000000000D7
:1055C000000000000000000058550D000000000021
:1055D00000000000000000000000000000000000CB
:1055E00000000000000000000000000000000000BB
:1055F00000000000000000000000000000000000AB
:0C560000000000000000000060E3032038
:10560C00FFFFFFFF00000102030405060708090A5B
:10561C000B0C0D0E0F101112131415161718191A56
:08562C001B1C1D1E1F2028009D
:04563400785634125E
:04000003D000401CCD
:00000001FF
