:02000002D0002C
:1040000000400D00146E0D00000006000C000501BC
:084010000401DE0500000000C0
:044018004C680D00E3
:1040200009480A49884208B505D0094A824202D0A7
:10403000121A02F0A7FB0748074A0021121A02F0E1
:10404000ACFB014808BD00BF50E30320846D0D00A8
:10405000B8E30320B8E30320F0E7032070B501F0D4
:1040600041FC074C074BE41AA40800251E46A54254
:1040700004D056F8253098470135F8E770BD00BFE9
:10408000786D0D003C6D0D0000F08AB908B500F0A8
:1040900089FABDE8084001F0E7BB00F021BD00F05F
:1040A0001FBD0078B0FA80F040097047012303700B
:1040B00070470000F0B5012185B0064601F027FAEF
:1040C000A0F13004072C45D8072303223146684667
:1040D00001F020FA2449684601F0DFF905466846F8
:1040E00001F067F97DB9062303223146684601F0E5
:1040F00011FA1E49684601F0D0F90746684601F0FA
:1041000058F90FB929E001251949684601F098F9D5
:104110006946304601F0E9F90746684601F049F979
:104120006FB91449684601F08BF93046694601F0D1
:10413000DCF90646684601F03CF98EB10A34A4B2B7
:104140000121204601F01CFC2046294601F029FCF3
:10415000012007E04FF0FF3004E06FF0010001E0C4
:104160006FF0020005B0F0BD60680D0065680D00DD
:1041700069680D006B680D0010B50446006808B151
:1041800000F0AEFC204610BD2DE9F84F838807EE05
:10419000903AF8EEE77AF2EE046A87EEA67A0546E0
:1041A0000C460E264FF0010ADFED3F6A81ED017AE1
:1041B000D0ED037AF8EE677A87EEA67ADFED3B6AF8
:1041C00081ED057AC38807EE903AF8EEE77A87EE3C
:1041D000A67A81ED027A03899FED357A07EE903A4F
:1041E000F8EEE77AC7EE876A16EE900A01F020FF34
:1041F0002BA3D3E9002301F06FFF02F065FAE06022
:10420000B5F90AB04FEADB7001F000FF02F05CFA8A
:1042100080F000470AFA06F000EA0B00304101F096
:10422000F5FE8046C6F10F000AFA00F0894601F05B
:10423000EDFE02460B464046494602F077F88046BE
:104240003846894601F0F4FE02460B464046494690
:1042500001F090FD02F038FA013E032E0746D9D155
:104260002061D5ED047AB8EE677ADFED127AC7EEF9
:10427000276AC4ED066A95ED057AB8EE477AC7EE6F
:10428000276AC4ED076A95ED067AB8EE477AC7EE5D
:10429000276AC4ED086ABDE8F88F00BFAFF300805D
:1042A0006666666666660A4000401C4600007A4400
:1042B00000C07F440000C84210B5044601F052FA25
:1042C0002F4900F040FF01F04DFA94ED010A04215E
:1042D00001F033F801F046FA2A4900F034FF01F00A
:1042E00041FA94ED050A042101F027F801F03AFAA9
:1042F000254900F028FF01F035FA94ED020A042167
:1043000001F01BF801F02EFA204900F015FF01F032
:1043100029FA94ED030A042101F00FF801F022FAC2
:104320001B4900F010FF01F01DFA94ED040A04216E
:1043300001F003F801F016FA164900F004FF01F04D
:1043400011FA94ED060A042100F0F7FF01F00AFAD1
:10435000114900F0F8FE01F005FA94ED070A042176
:1043600000F0EBFF01F0FEF90C4900F0ECFE01F06B
:10437000F9F994ED080A0421BDE8104000F0DDBF12
:1043800097680D006D680D0078680D008A680D0053
:10439000A2680D00B2680D00C2680D00D4680D005F
:1043A00008B5154800231A461946406800F068FB16
:1043B00001F0D8F94FF4E13101F0C8F901210720EB
:1043C00001F0DEFA0121072001F0EBFA01F01CFBFD
:1043D0000A4900F067FC01F017FB00F067FC084A8F
:1043E0000849094800F0CBFB00F012FB18B9BDE802
:1043F000084000F005BB08BD10E70320A0860100BF
:104400002C690D00B5400D00534B0D0038B5054625
:104410001AB903689B68984702E0D2B200F0A3FE85
:104420000446284600F093FE204438BD10B50446EB
:1044300018B901F097F914491CE0012803D101F0E3
:1044400091F9124916E0022803D101F08BF91049C5
:1044500010E0032803D101F085F90E490AE0042891
:1044600003D101F07FF90C4904E005280AD101F0DD
:1044700079F90A4900F060FE01F074F90A22214638
:10448000FFF7C4FF10BD00BF39690D0053690D006F
:1044900083690D00A3690D00CA690D00E8690D006C
:1044A000F7B51D46A5238DF8003008238DF801309F
:1044B00041238DF802304E238DF8053020238DF8EE
:1044C00006305E238DF8073000238DF80410174660
:1044D0008DF8030019461DF803200133072B114402
:1044E000F9D1CCB28DF8074001F03CF92B4900F02E
:1044F00023FE01F037F921460A22FFF787FF01F07A
:1045000083FA742100F009FC002401F07DFA0368AD
:104510001DF804109B6801349847082CF5D101F070
:1045200073FA012100F0FDFBFFF780FF052000F08A
:10453000E7FA01F069FA2022742100F0EBFB01F0A8
:1045400063FA2022742100F0E5FB202821D101F03C
:104550005BFA03681B6998470337B84206461AD1CD
:104560002C180025B54214DA01F04EFA03685B6995
:104570009847274604F8010901F0F4F81022397829
:1045800000F0F1FD01F0EEF8054900F0D5FD013530
:10459000E8E7002000E0052003B0F0BD286A0D0028
:1045A000316B0D0030B59DB023231C2202210093F6
:1045B00000200AABFFF774FF044601F0D3F82F493F
:1045C00000F0BAFD01F0CEF8002C054604DA2D21EA
:1045D00000F0B6FD614200E021460A22284600F0C4
:1045E000C2FD284600F0B3FD9DF82B209DF82A302F
:1045F00043EA0223ADF80C309DF82D209DF82C30B5
:1046000043EA0223ADF80E309DF82F209DF82E309E
:1046100043EA0223ADF810309DF831209DF8303088
:1046200043EA0223ADF812309DF833209DF8323072
:1046300043EA0223ADF814309DF935209DF834305B
:1046400003EB0223ADF81630DDF836300693DDF8C3
:104650003A300793DDF83E30089313A9DDF8423075
:10466000099303A8FFF790FD13A8FFF725FE4FF469
:104670007A7000F045FA1DB030BD00BF346A0D00FD
:1046800070B50D4C00F070F800254FF6FF73022056
:1046900063812560A580A571258100F085F9074A11
:1046A0000749204601F0F6F92B462A4629460548D7
:1046B000BDE8704000F008B8BCE30320B8E3032075
:1046C00079410D00C8E3032010B5044609B948211B
:1046D00000E04921216012B122680232226013B148
:1046E00023680433236001F08FF900F0DFFA2046DD
:1046F00010BD00F039B8000008B5024B1B689B687C
:10470000019308BD4802030008B5024B1B681B69F2
:10471000019308BD4802030008B5024B1B685B69A2
:10472000019308BD4802030008B5024B1B685B6C8F
:10473000019308BD4802030008B5024B1B689B6C3F
:10474000019308BD4802030008B5024B1B685B6873
:10475000019308BD1802030008B5024B1B685B6992
:10476000019308BD1802030008B5024B1B681B68C3
:10477000019308BD2C02030008B5024B1B689B681F
:10478000019308BD2C02030008B5024B1B68DB68CF
:10479000019308BD2C02030008B5024B1B681B697E
:1047A000019308BD2C02030008B5024B1B681B686F
:1047B000019308BD2802030008B5024B1B68DB68A3
:1047C000019308BD2802030008B5024B1B689B69D2
:1047D000019308BD2802030008B5024B1B68DB6982
:1047E000019308BD2802030008B5024B1B681B6A31
:1047F000019308BD2802030008B5024B1B685B6AE1
:10480000019308BD2802030008B5024B1B689B6A90
:10481000019308BD2802030008B5024B1B68DB6A40
:10482000019308BD2802030008B5024B1B681B6BEF
:10483000019308BD2802030008B5024B1B685B6B9F
:10484000019308BD2802030008B5024B1B681B6CCE
:10485000019308BD2802030008B5024B1B681B6DBD
:10486000019308BD2802030008B5024B1B685B6971
:10487000019308BD6402030008B5024B1B689B68E6
:10488000019308BD6802030008B5024B1B68DB6892
:10489000019308BD6802030008B5024B1B68DB6981
:1048A000019308BD3002030008B5024B1B681B6A68
:1048B000019308BD3002030008B5024B1B681B685A
:1048C000019308BD3C02030008B5024B1B68DB687E
:1048D000019308BD3C02030008B5024B1B681B692D
:1048E000019308BD3C02030008B5024B1B685B69DD
:1048F000019308BD3C02030008B5024B1B689B698D
:10490000019308BD3C02030008B5024B1B68DB693C
:10491000019308BD3C02030008B5024B1B681B6AEB
:10492000019308BD3C02030008B5024B1B689B6A5B
:10493000019308BD3C02030008B5024B1B681B68CD
:10494000019308BD4C02030008B5024B1B685B686D
:10495000019308BD4C02030008B5024B1B681B699C
:10496000019308BD4C02030008B5024B1B685B694C
:10497000019308BD4C02030008B5024B1B689B69FC
:10498000019308BD4C02030008B5024B1B68DB69AC
:10499000019308BD4C02030008B5024B1B681B6A5B
:1049A000019308BD4C02030008B5024B1B685B680D
:1049B000019308BD2002030008B5024B1B685B6928
:1049C000019308BD2002030008B5034B1B68D3F810
:1049D0008830019308BD00002002030008B5034B96
:1049E0001B68D3F89430019308BD00002002030037
:1049F00008B5024B1B685B68019308BD44020300C5
:104A000008B5024B1B68DB68019308BD4402030034
:104A100008B5024B1B685B69019308BD44020300A3
:104A200008B5024B1B68DB6B019308BD4402030011
:104A300008B5024B1B685B68019308BD4002030088
:104A400008B5024B1B689B68019308BD4002030038
:104A500008B5024B1B68DB68019308BD40020300E8
:104A600008B5024B1B681B69019308BD4002030097
:104A700008B5024B1B685B69019308BD4002030047
:104A800008B5024B1B689B69019308BD40020300F7
:104A900008B5024B1B68DB69019308BD40020300A7
:104AA00008B5024B1B681B6A019308BD4002030056
:104AB00008B5024B1B681B6B019308BD4002030045
:104AC00008B5024B1B685B6B019308BD40020300F5
:104AD00008B5024B1B681B68019308BD1C0203004C
:104AE00008B5024B1B685B68019308BD1C020300FC
:104AF00008B5024B1B689B68019308BD1C020300AC
:104B00000021FFF759BF10B50446006808B1FFF750
:104B100013FE204610BD000010B5064C00232046B1
:104B20002360FFF701FE2046034A0449BDE8104018
:104B300000F0B0BFCCE30320B8E30320074B0D0027
:104B400010B58368044613B10322014698472046F6
:104B500010BD10B588B00446684600F071FC694687
:104B600004A800F08FFC04A8A047044604A800F0A5
:104B700020FC684600F01DFC204608B010BDF0B5D2
:104B8000102485B007460E46154600212246684689
:104B900001F003FE002269461046ADF8004002977E
:104BA00003960195FFF724FF05B0F0BD00221146E2
:104BB0004068FFF775BF002211464068FFF780BFCD
:104BC00000224068FFF774BF002281F001014068B5
:104BD000FFF75EBF00231A4619464068FFF750BF33
:104BE00000231A4619464068FFF742BF00221146CB
:104BF0004068FFF735BF002211464068FFF720BF2D
:104C0000002202214068FFF723BF00231A464068B4
:104C1000FFF70EBF024B03225A60024A1A60704728
:104C2000D0E30320446A0D007047F8B506461546E8
:104C30000C468F18BC4206D0336814F8011B9B68E1
:104C400030469847F6E72846F8BD0022007CFFF77B
:104C5000CBBD0021007CFFF7CFBD0021007CFFF71A
:104C6000D3BD0021007CFFF7D7BD0021007CFFF7FA
:104C7000DBBD10B51421044600F011FF204610BD25
:104C800010B50446002363604FF47A73A360044BAD
:104C90002174084623601146FFF7D6FD204610BD5B
:104CA000786A0D000022007CFFF77EBD00231A46C3
:104CB0001946007CFFF780BD70B50C4686B0142500
:104CC00006462A46002101A801F067FD23788DF8E9
:104CD000083063680393E36804930022237A307CEE
:104CE000ADF8045001A90593FFF7B6FD06B070BDFD
:104CF0001FB500338DF800104FF06401039118BF09
:104D00000123694601928DF80830FFF7D5FF05B001
:104D10005DF804FB0123FFF7EBBF0022007CFFF7E7
:104D200053BD0022007CFFF757BD0021007CFFF738
:104D300083BD704710B51821044600F0B0FE204630
:104D400010BDF0B5037D062B8DB00E4600F10407B3
:104D50004FF0000402D000F1080518E00CAD394610
:104D600005F8304D2F232A460A20FFF77DFD2846FF
:104D700001F04EFD33680246DB682946304698470D
:104D80000FE024B12E21304600F0DAF9044415F882
:104D9000011D0A22304600F0E6F9BD420444F0D17C
:104DA00020460DB0F0BD000010B5054B04461122A1
:104DB00040F8043B002101F0F0FC204610BD00BF8C
:104DC000A06A0D000346074A10B543F8042B01F111
:104DD000100251F8044B43F8044B9142F9D10A7880
:104DE0001A7010BDA06A0D0010B59DF8084044EA85
:104DF000032343EA024242EA01610423416003754E
:104E000010BD37B50D788B784A78C978009129465E
:104E1000FFF7EAFF03B030BD014B024A1A6070474A
:104E2000D8E303201F6B0D00002211464068FFF7F6
:104E300037BE002211464068FFF742BE002240689C
:104E4000FFF736BE002281F001014068FFF720BE67
:104E500000231A4601214068FFF712BE00231A46BC
:104E600019464068FFF704BE002211464068FFF76C
:104E7000F7BD002211464068FFF7E2BD0022022183
:104E80004068FFF7E5BD00231A464068FFF7D0BD34
:104E900038B5054688B104684CB1A3681BB103223C
:104EA0002146204698471021204600F0F8FD28466C
:104EB0001421BDE8384000F0F2BD38BD10B10368E0
:104EC0005B681847704710B503680446BBB1586863
:104ED000FFF712FC78B923685A7C12B95868FFF7BB
:104EE00013FC23685868FFF717FC20680023236031
:104EF00028B1FFF7CDFF206808B1FFF7C9FF2046B2
:104F000010BD38B50446D0F8C40108B1FFF7C7F8A2
:104F1000D4F8C00108B1FFF70FFCD4F8BC5135B18B
:104F20002846FFF7D0FF0421284600F0B8FD20688E
:104F300008B1FFF7C3FF204638BD000010B5044B91
:104F4000044640F8083BFFF7DCFF204610BD00BFD9
:104F5000946B0D0038B50E4C0E4B236000250223D8
:104F600004F5E4706360A560C4F8C451C4F8C85186
:104F7000FFF7DAFB084BC4F8CC5184F8D05123601A
:104F80002046064A0649BDE8384000F083BD00BF10
:104F9000DCE30320C86B0D00946B0D00B8E3032025
:104FA0003D4F0D0000231A464068FFF741BD002227
:104FB00002214068FFF74CBD002211464068FFF710
:104FC0003FBD002211464068FFF74ABD00231A4644
:104FD00019464068FFF74CBD00231A461946406841
:104FE000FFF74EBD002281F001014068FFF750BD80
:104FF00000224068FFF75CBD002211464068FFF7C1
:105000005FBD002211464068FFF74ABD2DE9F0431D
:10501000002495B016460D460746FFF7C5FE21460B
:1050200020220CA8009401F0B8FB40230C932146E9
:105030006B460CAA3046FFF727FC0446002844D1F3
:10504000024601216868FFF70BFD022180462246D7
:105050006868FFF705FD009E81462146002E34D08A
:10506000002932D17368022B02D00A2B09D02AE022
:10507000B8F1000F27D0716938460431FFF7C1FE3F
:1050800020E0B9F1000F1ED07469112201A801F0CF
:1050900084FB06238DF8143001AD04F108031834A5
:1050A000186859682A4603C20833A3421546F7D147
:1050B00001A906A807ADFFF785FE0FCD3C1D0FC463
:1050C0002B6823700121F669C8E70098FFF7D4FB2D
:1050D000384615B0BDE8F083024B034A1A6000223F
:1050E0005A607047B0E50320C86B0D00F8B506465E
:1050F0000D468F180024BD420CD0336815F8011BF3
:105100009B6830469847002801DB0444F3E7002CF5
:1051100008BF04462046F8BD70B505460C46084653
:1051200049B101F075FB2B68024621462846DB6831
:10513000BDE87040184770BD08B5FFF7EDFF08BD2A
:1051400003689B68184708B5FFF7E6FF08BD38B548
:105150000D210546FFF7F4FF0A2104462846FFF714
:10516000EFFF204438BD30B58BB00B4600218DF8E1
:105170002410012A98BF0A220DF12304B3FBF2F593
:1051800005FB123303F0FF03092B94BF3033373391
:10519000DBB2214604F801392B46002DEED1FFF792
:1051A000BBFF0BB030BD00002DE9F04757EC106B92
:1051B00082460D4610EE102A3B4610EE100A394684
:1051C00001F024FA08B14E4912E027F000494FF0EF
:1051D000FF324C4B3046494601F018FA68B94FF09F
:1051E000FF32484B3046494601F0F2F928B94649AA
:1051F0005046FFF791FFBDE8F0874FF06042434B08
:105200003046394601F0F8F908B14149F0E74FF06E
:105210006042404B3046394601F0D0F90028F4D1C5
:10522000002200233046394601F0C8F940B12D2153
:105230005046FFF785FF07F1004304461F4600E094
:10524000044635494FF0000800205FFA88F39D427C
:1052500006D90022314B01F069F808F10108F4E7A2
:1052600032463B4600F086FD0F46064601F00CFA3A
:105270000A22014680465046FFF775FF0444E5B315
:10528000404600F0B3FE02460B463046394600F079
:105290006FFD06460F4650462149FFF73DFF044487
:1052A00000221E4B3046394600F016FF06460F46D8
:1052B00001F0C2F9B0F1000907DA2D215046FFF7DD
:1052C0003FFFC9F10001804602E049464FF0000867
:1052D0000A225046FFF747FF40440444484600F086
:1052E00095FE02460B463046394600F041FD013D31
:1052F00015F0FF0506460F46D2D12046BDE8F087DF
:10530000F46B0D00FFFFEF7FFE6B0D00FFFFEF4121
:10531000F86B0D00FFFFEFC10000E03F00002440EC
:10532000FC6B0D0038B5C9B20546FFF73DFF0446DA
:105330002846FFF70CFF204438BD38B5044610EE70
:10534000100A0D4600F074FE41EC100B2946204671
:10535000BDE83840FFF7E6BF10B50446FFF7F0FBA5
:10536000204610BD0348044A04490023836000F02E
:1053700091BB00BFB8E50320B8E3032059530D00EB
:10538000704710B50C21044600F089FB204610BD83
:1053900010B5054B0360044601710846FFF77CFA1F
:1053A0000023A360204610BD0C6C0D000079FFF7B0
:1053B0007BBA10B504460068FFF792FB204610BD8B
:1053C00010B50446006808B1FFF78AFB002323608C
:1053D000A360636010BD38B504460D460068013116
:1053E000FFF786FB10B184E82100012038BD10B51D
:1053F0000368044613B143688B4207D22046FFF787
:10540000EAFF20B1A3680BB922681370012010BD18
:1054100070B50E46114604461546FFF7E8FF18B969
:105420002046FFF7CDFF09E02A463146A5602068F7
:1054300001F0A8F92268A3680021D154204670BD6C
:1054400038B50023044603604360836003730D4650
:1054500039B1084601F0DCF9294602462046FFF73B
:10546000D7FF204638BD884210B50B46044607D00A
:10547000096819B19A68FFF7CBFF01E0FFF7A0FFB9
:10548000204610BD10B500230446036043608360CE
:105490000373FFF7E8FF204610BD08B582680B468E
:1054A00012B919B9012008BD11B90368187802E0D2
:1054B000006801F0A3F9B0FA80F0400908BD10B50A
:1054C000144683688A689B1AA3420AD3006858B1BD
:1054D000096841B1204401F0A3F9B0FA80F0400915
:1054E00010BD002010BD084610BD82688B689A422E
:1054F00002D30022FFF7E3BF0020704783688B428E
:1055000003D9006810B1405C704700207047FFF776
:10551000F5BF0000F8B59A420F461D460C4988BFFA
:1055200013461446064684BF2C461D46FFF788FFE7
:10553000BA6894420AD83968954294BFC4EB050210
:10554000C4EB020221443046FFF762FF3046F8BD4B
:10555000536B0D0010B5094C00204FF6FF7320600F
:10556000A080A07120816381FFF71EFA2046044AC3
:105570000449BDE8104000F08DBA00BFC8E5032023
:10558000B8E3032079410D00024B1A68024B1A6000
:10559000704700BF50E30320D4E5032070474174F7
:1055A000704708B5007CFFF7BFF920EAE07008BD3E
:1055B00008B5007CFFF790F920EAE07008BD08B557
:1055C000007CFFF799F930EA200028BF4FF0FF3048
:1055D00008BD08B5007CFFF787F930EA200028BF36
:1055E0004FF0FF3008BD007CFFF78EB910B51421D5
:1055F000044600F054FA204610BD70B5457C0446C0
:105600000E4625B9007CFFF78FF9002805DD3146ED
:10561000207CBDE87040FFF757B9284670BD0000F8
:1056200010B5044608461146002262604FF47A72B3
:10563000A260054A22600122207462741A46FFF7B4
:105640003BF9204610BD00BF486C0D00007CFFF701
:1056500063B9000038B50C4D296811F0010411D16F
:105660002846FEF71EFD68B1084A094B0948214645
:10567000FFF7D6FF2846FEF719FD074A07490548F8
:1056800000F008FA034838BD70E6032074E60320F2
:10569000ECE50320D8E50320B8E303209D550D0079
:1056A00041747047704708B50021007CFFF764F92A
:1056B00030EA200028BF4FF0FF3008BD08B50121B7
:1056C000007CFFF759F930EA200028BF4FF0FF3087
:1056D00008BD08B5007CFFF747F920EAE07008BD77
:1056E00008B5007CFFF738F920EAE07008BD007CBF
:1056F000FFF752B910B51421044600F0D0F9204646
:1057000010BD38B50446007C0D46FFF72DF9002882
:1057100001DC607C28B12946207CFFF735F920EABE
:10572000E07038BD10B50446002363604FF47A730F
:10573000A360054B2360012308462174637411465E
:10574000FFF7FAF8204610BD786C0D000022007CAF
:10575000FFF7FAB810B514220446002101F01DF835
:10576000204610BD30B50E4D87B001A8FFF7F2FFFF
:10577000296811F0010410D12846FEF792FC60B1AF
:1057800001AA21460748FFF7CDFF2846FEF78EFC09
:10579000054A0649034800F07DF9024807B030BDCC
:1057A000F8E60320FCE60320B8E30320A5560D002D
:1057B000002211464068FFF753B9002211464068A5
:1057C000FFF76EB9002211464068FFF779B9002251
:1057D0004068FFF76DB9002281F001014068FFF7D2
:1057E00057B900231A4619464068FFF749B9002304
:1057F0001A4619464068FFF73BB900221146406837
:10580000FFF71EB9002202214068FFF721B90023EB
:105810001A464068FFF70CB9024B04225A60024A4C
:105820001A60704710E70320A86C0D0008B50C4BF8
:1058300033B1FFF797FF03681B699847002809DC1D
:10584000084B63B1FFF706FF03681B699847002800
:1058500003DC08BDAFF30080F2E7AFF3008008BDC2
:10586000000000000000000008B5FFF7DFFFFEF7B2
:1058700073FF014B186008BD20E703200248034A6C
:105880000349121A00F07EBF00F4032004F4032041
:10589000806D0D0007B5002300931A466FF0770165
:1058A000FFF79CF803B05DF804FB000007B54388E0
:1058B0000A2B08D0502B09D1094B1B683BB103B010
:1058C0005DF804EB1847FFF7E5FF06E000230093BF
:1058D0001A466FF07701FFF781F803B05DF804FB1B
:1058E00018E7032038B5104C104D2368AB42104B1D
:1058F0000CBF012200221A7002D0FFF7BFFF256003
:10590000FEF722FF044600F051FF0A4B13B1204678
:10591000AFF3008000210748FFF782F80021064816
:10592000BDE83840FFF750B800F403201E1C279A4A
:105930001CE7032000000000AD580D0010B5044620
:1059400000F088F8FFF732FD28B1A4F10B03022B19
:1059500001D8002010BD00F057F8FFF7E6F908B1B4
:10596000012CF6D9FFF776FEFFF770FE18B1A4F10F
:105970000903012BEDD9232C8CBF0020012010BD81
:10598000232838B504460D460AD8FF2908D0FFF76A
:10599000D5FF28B129462046BDE83840FEF7ECBEC9
:1059A00038BD38B504460D46FEF7EEFEFF2810D090
:1059B000062804D84D2323FA00F0C30709D4204653
:1059C000FFF7BCFF28B129462046BDE83840FEF766
:1059D000E3BE38BD70B5044614252A46094E0021A1
:1059E00000F0DBFE258020253146A5602561284694
:1059F00000F06FF831466060284600F06AF8E06019
:105A0000204670BDD46C0D0030B50E4D296811F0E4
:105A1000010487B013D12846FEF743FB78B101A8F3
:105A2000FFF7D8FF01AA21460748FFF729F92846C2
:105A3000FEF73CFB054A0649034800F02BF80248F4
:105A400007B030BD24E7032028E70320B8E3032094
:105A5000294C0D0038B50B4D296811F001040FD108
:105A60002846FEF71EFB58B121460748FFF790FC79
:105A70002846FEF71BFB054A0549034800F00AF8D3
:105A8000014838BD48E703203CE70320B8E3032082
:105A900081530D000B460146184600F065BEFEF727
:105AA000FCBA0000024B1868BFF35F8F704700BF5D
:105AB0004CE7032010B5002814BF044601242046FB
:105AC000FFF706F820B9FFF7EDFF08B18047F6E7CA
:105AD00010BDFFF7EFBF0000244B1A68D0075CBF72
:105AE00001221A60224B1A68D1075CBF01221A609A
:105AF000204B1A68D2075CBF01221A601E4B1A683D
:105B0000D0075CBF01221A601C4B1A68D1075CBF2A
:105B100001221A601A4B1A68D2075CBF01221A6070
:105B2000184B1A68D0075CBF01221A60164B1A681E
:105B3000D1075CBF01221A60144B1A68D2075CBF00
:105B400001221A60124B1A68D0075CBF01221A604A
:105B5000104B1A68D1075CBF01221A600E4B1A68FD
:105B6000D2075CBF01221A60704700BF7CE70320A8
:105B700078E7032074E7032070E703206CE7032035
:105B800068E7032064E7032060E703205CE7032065
:105B900058E7032054E7032050E70320184B1A6806
:105BA000D1075CBF01221A60164B1A68D2075CBF8E
:105BB00001221A60144B1A68D0075CBF01221A60D8
:105BC000124B1A68D1075CBF01221A60104B1A6889
:105BD000D2075CBF01221A600E4B1A68D0075CBF67
:105BE00001221A600C4B1A68D1075CBF01221A60AF
:105BF0000A4B1A68D2075CBF01221A60704700BFC7
:105C00009CE7032098E7032094E7032090E7032014
:105C10008CE7032088E7032084E7032080E7032044
:105C2000184B1A68D1075CBF01221A60164B1A681C
:105C3000D2075CBF01221A60144B1A68D0075CBF00
:105C400001221A60124B1A68D1075CBF01221A6048
:105C5000104B1A68D2075CBF01221A600E4B1A68FB
:105C6000D0075CBF01221A600C4B1A68D1075CBFD9
:105C700001221A600A4B1A68D2075CBF01221A601F
:105C8000704700BFBCE70320B8E70320B4E7032058
:105C9000B0E70320ACE70320A8E70320A4E7032034
:105CA000A0E70320244B1A68D0075CBF01221A60CA
:105CB000224B1A68D1075CBF01221A60204B1A6878
:105CC000D2075CBF01221A601E4B1A68D0075CBF66
:105CD00001221A601C4B1A68D1075CBF01221A60AE
:105CE0001A4B1A68D2075CBF01221A60184B1A6857
:105CF000D0075CBF01221A60164B1A68D1075CBF3F
:105D000001221A60144B1A68D2075CBF01221A6084
:105D1000124B1A68D0075CBF01221A60104B1A6838
:105D2000D1075CBF01221A600E4B1A68D2075CBF14
:105D300001221A60704700BFECE70320E8E7032068
:105D4000E4E70320E0E70320DCE70320D8E70320B3
:105D5000D4E70320D0E70320CCE70320C8E70320E3
:105D6000C4E70320C0E7032081F0004102E000BF48
:105D700083F0004330B54FEA41044FEA430594EA0B
:105D8000050F08BF90EA020F1FBF54EA000C55EA46
:105D9000020C7FEA645C7FEA655C00F0E2804FEA17
:105DA0005454D4EB5555B8BF6D420CDD2C4480EAF9
:105DB000020281EA030382EA000083EA010180EA29
:105DC000020281EA0303362D88BF30BD11F0004F77
:105DD0004FEA01314FF4801C4CEA113102D04042AD
:105DE00061EB410113F0004F4FEA03334CEA1333E8
:105DF00002D0524263EB430394EA050F00F0A78000
:105E0000A4F10104D5F1200E0DDB02FA0EFC22FAFA
:105E100005F2801841F1000103FA0EF2801843FAEE
:105E200005F359410EE0A5F120050EF1200E012ADF
:105E300003FA0EFC28BF4CF0020C43FA05F3C0181D
:105E400051EBE37101F0004507D54FF0000EDCF196
:105E5000000C7EEB00006EEB0101B1F5801F1BD33F
:105E6000B1F5001F0CD349085FEA30004FEA3C0C43
:105E700004F101044FEA445212F5800F80F09A8039
:105E8000BCF1004F08BF5FEA500C50F1000041EB3D
:105E9000045141EA050130BD5FEA4C0C404141EB41
:105EA000010111F4801FA4F10104E9D191F0000F68
:105EB00004BF01460020B1FA81F308BF2033A3F1EB
:105EC0000B03B3F120020CDA0C3208DD02F1140CE2
:105ED000C2F10C0201FA0CF021FA02F10CE002F11D
:105EE0001402D8BFC2F1200C01FA02F120FA0CFC16
:105EF000DCBF41EA0C019040E41AA2BF01EB04515F
:105F0000294330BD6FEA04041F3C1CDA0C340EDC5C
:105F100004F11404C4F1200220FA04F001FA02F39F
:105F200040EA030021FA04F345EA030130BDC4F15D
:105F30000C04C4F1200220FA02F001FA04F340EA52
:105F40000300294630BD21FA04F0294630BD94F003
:105F5000000F83F4801306BF81F480110134013DEA
:105F60004EE77FEA645C18BF7FEA655C29D094EA5B
:105F7000050F08BF90EA020F05D054EA000C04BFD9
:105F80001946104630BD91EA030F1EBF00210020C4
:105F900030BD5FEA545C05D14000494128BF41F063
:105FA000004130BD14F580043CBF01F5801130BDC7
:105FB00001F0004545F0FE4141F470014FF0000052
:105FC00030BD7FEA645C1ABF194610467FEA655C03
:105FD0001CBF0B46024650EA013406BF52EA0335A5
:105FE00091EA030F41F4002130BD00BF90F0000F93
:105FF00004BF0021704730B54FF4806404F13204CF
:106000004FF000054FF0000150E700BF90F0000F87
:1060100004BF0021704730B54FF4806404F13204AE
:1060200010F0004548BF40424FF000013EE700BF7E
:1060300042004FEAE2014FEA31014FEA02701FBF0E
:1060400012F07F4393F07F4F81F06051704792F0E0
:10605000000F14BF93F07F4F704730B54FF460745A
:1060600001F0004521F0004120E700BF50EA0102A5
:1060700008BF704730B54FF000050AE050EA010252
:1060800008BF704730B511F0004502D5404261EBC2
:1060900041014FF4806404F132045FEA915C3FF403
:1060A000DCAE4FF003025FEADC0C18BF03325FEA9C
:1060B000DC0C18BF033202EBDC02C2F1200300FA51
:1060C00003FC20FA02F001FA03FE40EA0E0021FA76
:1060D00002F11444C1E600BF70B54FF0FF0C4CF460
:1060E000E06C1CEA11541DBF1CEA135594EA0C0F16
:1060F00095EA0C0F00F0DEF82C4481EA030621EA51
:106100004C5123EA4C5350EA013518BF52EA03358B
:1061100041F4801143F4801338D0A0FB02CE4FF03D
:106120000005E1FB02E506F00042E0FB03E54FF06D
:106130000006E1FB03569CF0000F18BF4EF0010E65
:10614000A4F1FF04B6F5007F64F5407404D25FEA61
:106150004E0E6D4146EB060642EAC62141EA555114
:106160004FEAC52040EA5E504FEACE2EB4F1FD0C56
:1061700088BFBCF5E06F1ED8BEF1004F08BF5FEAD4
:10618000500E50F1000041EB045170BD06F0004686
:1061900046EA010140EA020081EA0301B4EB5C0433
:1061A000C2BFD4EB0C0541EA045170BD41F480112B
:1061B0004FF0000E013C00F3AB8014F1360FDEBF50
:1061C000002001F0004170BDC4F10004203C35DA2C
:1061D0000C341BDC04F11404C4F1200500FA05F3AF
:1061E00020FA04F001FA05F240EA020001F0004250
:1061F00021F0004110EBD37021FA04F642EB0601C6
:106200005EEA430E08BF20EAD37070BDC4F10C04EF
:10621000C4F1200500FA04F320FA05F001FA04F2B3
:1062200040EA020001F0004110EBD37041F100019F
:106230005EEA430E08BF20EAD37070BDC4F12005AA
:1062400000FA05F24EEA020E20FA04F301FA05F212
:1062500043EA020321FA04F001F0004121FA04F2BA
:1062600020EA020000EBD3705EEA430E08BF20EA8A
:10627000D37070BD94F0000F0FD101F000464000C4
:1062800041EB010111F4801F08BF013CF7D041EA46
:10629000060195F0000F18BF704703F0004652004A
:1062A00043EB030313F4801F08BF013DF7D043EA1B
:1062B0000603704794EA0C0F0CEA135518BF95EAD1
:1062C0000C0F0CD050EA410618BF52EA4306D1D158
:1062D00081EA030101F000414FF0000070BD50EA77
:1062E000410606BF1046194652EA430619D094EA01
:1062F0000C0F02D150EA013613D195EA0C0F05D1EB
:1063000052EA03361CBF104619460AD181EA03013E
:1063100001F0004141F0FE4141F470014FF00000F6
:1063200070BD41F0FE4141F4780170BD70B54FF091
:10633000FF0C4CF4E06C1CEA11541DBF1CEA135511
:1063400094EA0C0F95EA0C0F00F0A7F8A4EB0504F3
:1063500081EA030E52EA03354FEA013100F08880EA
:106360004FEA03334FF0805545EA131343EA1263B3
:106370004FEA022245EA111545EA10654FEA002668
:106380000EF000419D4208BF964244F1FD0404F521
:10639000407402D25B084FEA3202B61A65EB03057D
:1063A0005B084FEA32024FF480104FF4002CB6EB3A
:1063B000020E75EB030E22BFB61A754640EA0C00BA
:1063C0005B084FEA3202B6EB020E75EB030E22BFFA
:1063D000B61A754640EA5C005B084FEA3202B6EB3B
:1063E000020E75EB030E22BFB61A754640EA9C00FA
:1063F0005B084FEA3202B6EB020E75EB030E22BFCA
:10640000B61A754640EADC0055EA060E18D04FEA87
:10641000051545EA16754FEA06164FEAC30343EA27
:1064200052734FEAC2025FEA1C1CC0D111F4801FF4
:106430000BD141EA00014FF000004FF0004CB6E7ED
:1064400011F4801F04BF01430020B4F1FD0C88BF8C
:10645000BCF5E06F3FF6AFAEB5EB030C04BFB6EB97
:10646000020C5FEA500C50F1000041EB045170BD8A
:106470000EF0004E4EEA113114EB5C04C2BFD4EBB7
:106480000C0541EA045170BD41F480114FF0000E3B
:10649000013C90E645EA060E8DE60CEA135594EAB7
:1064A0000C0F08BF95EA0C0F3FF43BAF94EA0C0FBA
:1064B0000AD150EA01347FF434AF95EA0C0F7FF42F
:1064C00025AF104619462CE795EA0C0F06D152EA83
:1064D00003353FF4FDAE1046194622E750EA410667
:1064E00018BF52EA43067FF4C5AE50EA41047FF478
:1064F0000DAF52EA43057FF4EBAE12E74FF0FF3CDD
:1065000006E000BF4FF0010C02E000BF4FF0010CAD
:106510004DF804CD4FEA410C7FEA6C5C4FEA430C26
:1065200018BF7FEA6C5C1BD001B050EA410C0CBF75
:1065300052EA430C91EA030F02BF90EA020F0020D7
:10654000704710F1000F91EA030F58BF994208BF3E
:1065500090422CBFD8176FEAE37040F001007047FB
:106560004FEA410C7FEA6C5C02D150EA013C07D152
:106570004FEA430C7FEA6C5CD6D152EA033CD3D09D
:106580005DF8040B704700BF8446104662468C4697
:106590001946634600E000BF01B5FFF7B7FF0028CA
:1065A00048BF10F1000F01BD4DF808EDFFF7F4FFF3
:1065B0000CBF012000205DF808FB00BF4DF808ED7E
:1065C000FFF7EAFF34BF012000205DF808FB00BFA1
:1065D0004DF808EDFFF7E0FF94BF012000205DF8C3
:1065E00008FB00BF4DF808EDFFF7CEFF94BF012078
:1065F00000205DF808FB00BF4DF808EDFFF7C4FF71
:1066000034BF012000205DF808FB00BF4FEA410CB9
:106610007FEA6C5C02D150EA013C0AD14FEA430C9C
:106620007FEA6C5C02D152EA033C02D14FF00000D9
:1066300070474FF0010070474FEA410212F5001217
:1066400015D211D56FF47873B3EB625212D94FEAB9
:10665000C12343F0004343EA505311F0004F23FAA3
:1066600002F018BF404270474FF00000704750EAF8
:10667000013005D111F0004008BF6FF000407047B5
:106680004FF00000704700BF4A0011D212F500120F
:1066900011D20DD56FF47873B3EB62520ED44FEA7A
:1066A000C12343F0004343EA505323FA02F07047FA
:1066B0004FF00000704750EA013002D14FF0FF3038
:1066C00070474FF0000070474FEA4102B2F1E043DB
:1066D00024BFB3F5001CDCF1FE5C0DD901F0004CC9
:1066E0004FEAC0024CEA5070B2F1004F40EB830019
:1066F00008BF20F00100704711F0804F21D113F145
:106700003872BCBF01F00040704741F480114FEA7D
:106710005252C2F11802C2F1200C10FA0CF320FA06
:1067200002F018BF40F001004FEAC1234FEAD32323
:1067300003FA0CFC40EA0C0023FA02F34FEA43038D
:10674000CCE77FEA625307D150EA01331EBF4FF016
:10675000FE4040F44000704701F0004040F0FE4031
:1067600040F40000704700BF10B5054C13462CB133
:106770000A4601460220AFF3008010BD204610BD3E
:106780000000000010B5431E0A44914204D011F8E5
:10679000014B03F8014FF8E710BD02440346934252
:1067A00002D003F8011BFAE77047000038B5124B1E
:1067B0001C68A36B0546D3B91820FEF789F943F28C
:1067C0000E33A06303804AF6CD33438041F2342375
:1067D00083804EF26D63C3804DF6EC630381052325
:1067E00043810B23838101220023C0E90423A36B8F
:1067F00000221D615A6138BDB4E3032010F8012B5B
:1068000011F8013B012A28BF9A42F7D0D01A7047ED
:10681000034613F8012B002AFBD1181A01387047E0
:1068200030B582B1451E013915F8013F11F8014F0D
:10683000A34206D1EC431444E04201D0002BF3D133
:106840001C46181B30BD104630BD000021400D0015
:106850005D400D0089400D008D400D0000000000DE
:1068600048494748004C4F57004400410043757267
:1068700072656E74203D20004C696E65204672651D
:106880007175656E6379203D2000416E616C6F67A4
:1068900020496E70757420566F6C74616765203D79
:1068A0002000506F77657220466163746F72203DDF
:1068B000200041637469766520506F776572203DD2
:1068C0002000526561637469766520506F77657248
:1068D000203D20004170706172656E7420506F77AA
:1068E0006572203D20004572726F72207768696C76
:1068F000652067657474696E672074656D70657274
:1069000061747572650054656D706572617475723D
:10691000653A200020646567726565732028002051
:1069200066616872656E6865697429006469676983
:1069300074616C77726974650049324320627573C3
:10694000205374617475732053756363657373208A
:106950003D2000427573792074696D656F757420F0
:1069600075706F6E20656E746572696E6720656EF6
:10697000645472616E736D697373696F6E28292038
:106980003D20005374617274206269742067656EE3
:1069900065726174696F6E2074696D656F757420BE
:1069A0003D2000656E64206F6620616464726573CB
:1069B00073207472616E736D697373696F6E207486
:1069C000696D656F7574203D2000446174612062BB
:1069D000797465207472616E736665722074696D76
:1069E000656F7574203D2000446174612062797484
:1069F00065207472616E736665722073756363657A
:106A0000656465642C20627573792074696D656FA7
:106A1000757420696D6D6564696174656C79206158
:106A200066746572203D2000436865636B73756D05
:106A3000203D2000726556616C3A000000000000A5
:106A4000000000000B4C0D00014C0D00F74B0D0039
:106A5000ED4B0D00E14B0D00D54B0D00C94B0D006A
:106A6000C14B0D00B74B0D00AD4B0D000D500D008F
:106A70000000000000000000294C0D00734C0D00C8
:106A80004B4C0D002B4C0D00534C0D005B4C0D007E
:106A9000634C0D006B4C0D00000000000000000076
:106AA000434D0D00334D0D00354D0D006261756491
:106AB0000053657269616C0053657269616C3100E5
:106AC0007479706500706172616D00636D64006956
:106AD0006400686E64007374726D0066696C7400A3
:106AE0006C766C0061646448616E646C65720072FF
:106AF000656D6F766548616E646C657200656E7574
:106B00006D48616E646C657273004A534F4E5374E6
:106B10007265616D4C6F6748616E646C657200618F
:106B2000707000253031307520005D200025640034
:106B30002C200028293A2000205B00636F64652028
:106B40003D200025690064657461696C73203D20F7
:106B5000000D0A006C6E00666E00636F6465006471
:106B6000657461696C006E6F6E6500747261636557
:106B700000696E666F007761726E006572726F7287
:106B80000070616E696300616C6C000000000000C1
:106B900000000000874E0D007D4E0D00734E0D006D
:106BA000694E0D005D4E0D00514E0D00454E0D001D
:106BB0003D4E0D00334E0D00294E0D000D500D00C1
:106BC0000000000000000000A54F0D00AF4F0D00B9
:106BD000B94F0D00C34F0D00CD4F0D00D94F0D0023
:106BE000E54F0D00F14F0D00F94F0D0003500D0062
:106BF0000D500D006E616E006F7666002E00696E9E
:106C000066000000000000000000000081530D003D
:106C100083530D005A00252B3033643A25303275EA
:106C20000025592D256D2D25645425483A254D3ACA
:106C30002553257A0061736374696D650000000057
:106C400000000000000000009D550D00ED550D00F6
:106C5000FB550D00ED500D00B1550D00D3550D0045
:106C6000BF550D00E7550D009F550D00A3550D00B4
:106C70000000000000000000A5560D00F5560D00B4
:106C800003570D00ED500D00E1560D00A7560D0005
:106C9000BD560D00EF560D00D3560D00A1560D0048
:106CA00000000000000000000F580D0005580D0006
:106CB000FB570D00B1570D00EF570D00E3570D00C6
:106CC000D7570D00CF570D00C5570D00BB570D000E
:106CD0000D500D000000000000000000000000004A
:106CE00000000000000000000000000000000000A4
:106CF0000000000000000000000000000000000094
:106D00000000000000000000000000000000000083
:106D10000000000000000000000000000000000073
:106D20000000000000000000000000000000000063
:106D300000000000000000004300000081460D003C
:106D4000F3460D00194B0D00154C0D00194E0D00AA
:106D5000554F0D00D9500D0065530D0055550D00D0
:106D600089550D0019580D00D95A0D009D5B0D0075
:106D7000215C0D00A55C0D0000000000000000007B
:046D8000000000000F
:106D8400356C0D0000000000D86C0D00F86C0D008F
:106D9400186D0D000000000000000000000000005D
:106DA40000000000386D0D0000000000000000002D
:106DB40000000000000000000000000000000000CF
:106DC40000000000000000000000000000000000BF
:106DD40000000000000000000000000000000000AF
:086DE4000000000054E303204D
:106DEC00FFFFFFFF00000102030405060708090A64
:106DFC000B0C0D0E0F101112131415161718191A5F
:086E0C001B1C1D1E1F202800A5
:046E14007856341266
:04000003D0004020C9
:00000001FF
