:02000002D0002C
:1040000000400D00C46F0D00000006000C0005010B
:084010000401DE0500000000C0
:04401800D4690D005A
:1040200009480A49884208B505D0094A824202D0A7
:10403000121A02F06BFC0748074A0021121A02F01C
:1040400070FC014808BD00BF50E30320346F0D0031
:10405000B8E30320B8E30320F0E7032070B501F0D4
:1040600005FD074C074BE41AA40800251E46A5428F
:1040700004D056F8253098470135F8E770BD00BFE9
:104080002C6F0D00F06E0D0000F094BA08B500F032
:10409000C7FABDE8084001F0ABBC00F09BBD00F0E2
:1040A00099BD0078B0FA80F0400970470123037091
:1040B00070470000F0B5012185B0064601F0EBFA2B
:1040C000A0F13004072C45D8072303223146684667
:1040D00001F0E4FA2449684601F0A3FA054668466F
:1040E00001F02BFA7DB9062303223146684601F020
:1040F000D5FA1E49684601F094FA0746684601F071
:104100001CFA0FB929E001251949684601F05CFA4B
:104110006946304601F0ADFA0746684601F00DFAEF
:104120006FB91449684601F04FFA3046694601F00C
:10413000A0FA0646684601F000FA8EB10A34A4B22D
:104140000121204601F0E0FC2046294601F0EDFC6B
:10415000012007E04FF0FF3004E06FF0010001E0C4
:104160006FF0020005B0F0BDE8690D00ED690D00CB
:10417000F1690D00F3690D0010B50446006808B13F
:1041800000F028FD204610BD2DE9F3411F46089B95
:10419000961C9E42144663DAA5238DF8003008234E
:1041A0008DF8013041238DF802304E23D5B28DF8C1
:1041B000053000238DF803008DF804108DF80650AB
:1041C0008DF807301A461DF803100133072B0A44F7
:1041D000F9D18DF8072001F0DBFC742100F017FE07
:1041E0004FF0000801F0D4FC03681DF808109B682C
:1041F00008F101089847B8F1080FF3D101F0C8FCA5
:1042000000F010FE01F0C4FCEA1CD2B2742100F0F0
:10421000FBFD01F0BDFC03681B6998470334A04215
:1042200020D13C46E31B9E4213DB01F0B1FC036846
:104230005B699847254604F8010B01F057FB297884
:10424000102201F01AF801F051FB084900F0F4FFC8
:10425000E8E701F04BFB064900F0EEFF032002E027
:10426000022000E0052002B0BDE8F081E56C0D0001
:10427000066D0D00CA788B7843EA022303804A79E1
:104280000B7943EA02234380CA798B7943EA0223FC
:1042900083804A7A0B7A43EA0223C380CA7A8B7AF4
:1042A00043EA0223038191F90D200B7B03EB0223E8
:1042B0004381D1F80E30C360D1F812300361D1F8D8
:1042C00016304361D1F81A30836170470000000056
:1042D0002DE9F84F838807EE903AF8EEE77AF2EE90
:1042E000046A87EEA67A05460C460E264FF0010AB0
:1042F000DFED3F6A81ED017AD0ED037AF8EE677A5F
:1043000087EEA67ADFED3B6A81ED057AC38807EE7A
:10431000903AF8EEE77A87EEA67A81ED027A038981
:104320009FED357A07EE903AF8EEE77AC7EE876AA6
:1043300016EE900A01F040FF2BA3D3E9002301F011
:104340008FFF02F085FAE060B5F90AB04FEADB7042
:1043500001F020FF02F07CFA80F000470AFA06F034
:1043600000EA0B00304101F015FF8046C6F10F0056
:104370000AFA00F0894601F00DFF02460B4640465E
:10438000494602F097F880463846894601F014FF06
:1043900002460B464046494601F0B0FD02F058FA8D
:1043A000013E032E0746D9D12061D5ED047AB8EE3F
:1043B000677ADFED127AC7EE276AC4ED066A95EDDB
:1043C000057AB8EE477AC7EE276AC4ED076A95ED1D
:1043D000067AB8EE477AC7EE276AC4ED086ABDE8E8
:1043E000F88F00BFAFF300806666666666660A40B7
:1043F00000401C4600007A4400C07F440000C842D0
:1044000038B5044601F072FA3E4900F01CFF01F095
:104410006DFA04222188054600F02FFF284600F09F
:1044200016FF01F063FA384900F00DFF01F05EFA63
:1044300004226188054600F020FF284600F007FFAF
:1044400001F054FA314900F0FEFE01F04FFA94ED0C
:10445000010A042101F00AF801F048FA2C4900F0A1
:10446000F2FE01F043FA94ED050A042100F0FEFF8C
:1044700001F03CFA274900F0E6FE01F037FA94ED2E
:10448000020A042100F0F2FF01F030FA224900F0A4
:10449000D3FE01F02BFA94ED030A042100F0E6FFAD
:1044A00001F024FA1D4900F0CEFE01F01FFA94ED50
:1044B000040A042100F0DAFF01F018FA184900F0AC
:1044C000C2FE01F013FA94ED060A042100F0CEFFBB
:1044D00001F00CFA134900F0B6FE01F007FA94ED72
:1044E000070A042100F0C2FF01F000FA0E4900F0B3
:1044F000AAFE01F0FBF994ED080A0421BDE838405A
:1045000000F0B4BFF5690D00056A0D00406A0D00AA
:10451000166A0D00216A0D00336A0D004B6A0D000A
:104520005B6A0D006B6A0D007D6A0D0010B51B48BB
:104530002DED028B00F00AF9DFED197AB4EE670A6F
:10454000F1EE10FAB0EE408A03D101F0CFF915492F
:104550001EE001F0CBF9144900F06EFE01F0C6F93F
:10456000B0EE480A022100F067FF01F0BFF90F49E1
:1045700000F062FE01F0BAF9B0EE480A044600F01D
:10458000CBF80221204600F057FF01F0AFF90849AF
:10459000BDEC028BBDE8104000F065BEC8E303200F
:1045A00000007A448F6A0D00AF6A0D00BD6A0D00ED
:1045B000C86A0D0008B5154800231A461946406818
:1045C00000F0D8FA01F092F94FF4E13101F082F9EC
:1045D0000121072001F098FA0121072001F0A5FA36
:1045E00001F0D6FA0A4900F0D7FB01F0D1FA00F049
:1045F000D7FB084A0849094800F03BFB00F082FA63
:1046000018B9BDE8084000F075BA08BD10E70320EE
:10461000A0860100D56A0D00B5400D00474C0D0085
:1046200030B59DB023231C220221009300200AAB49
:10463000FFF7AAFD044601F059F9174900F0FCFD07
:1046400001F054F9002C054604DA2D2100F0F8FDA4
:10465000614200E021460A22284600F00EFE28466C
:1046600000F0F5FD5CB90AA903A8FFF703FE03A853
:1046700013A9FFF72DFE13A8FFF7C2FE04E001F017
:1046800035F9064900F0EFFDFFF750FF4FF47A705F
:1046900000F0B0FA1DB030BDE26A0D00E96A0D000D
:1046A00070B50D4C00F0DAF800254FF6FF730220CC
:1046B00063812560A580A571258100F0EFF9074A87
:1046C0000749204601F0AAFA2B462A462946054802
:1046D000BDE8704000F008B8BCE30320B8E3032055
:1046E00079410D00C8E3032010B5044609B94821FB
:1046F00000E04921216012B122680232226013B128
:1047000023680433236001F043FA00F049FB20469C
:1047100010BD00000000000008B510EE100A01F006
:104720004BFD08A3D3E9002301F09AFD0022044BBE
:1047300001F0E4FB02F08CF800EE100A08BD00BFA7
:1047400000004040CDCCCCCCCCCCFC3F37B50446AF
:104750000025ADF8045001F01BFA216800F05BFB66
:1047600001F016FA036829469B68984701F010FA91
:1047700000F058FB10B19FED1B0A30E001F008FA81
:104780000222217800F040FB0028F4D001F000FA6A
:10479000022201A900F0BCFE9DF805308DF806301C
:1047A0009DF804308DF80730BDF90620521112F43F
:1047B000806F13B2B4EE000A0BD06FEA43536FEA76
:1047C00053535B4207EE903AB8EEE77A27EE400A81
:1047D00005E007EE903AF8EEE77A27EE800A03B09C
:1047E00030BD00BF00007A4400F038B808B5024B75
:1047F0001B689B68019308BD4802030008B5024B83
:104800001B681B69019308BD4802030008B5024BF1
:104810001B685B69019308BD4802030008B5024BA1
:104820001B685B6C019308BD4802030008B5024B8E
:104830001B689B6C019308BD4802030008B5024B3E
:104840001B685B68019308BD1802030008B5024BA2
:104850001B685B69019308BD1802030008B5024B91
:104860001B681B68019308BD2C02030008B5024BAE
:104870001B689B68019308BD2C02030008B5024B1E
:104880001B68DB68019308BD2C02030008B5024BCE
:104890001B681B69019308BD2C02030008B5024B7D
:1048A0001B681B68019308BD2802030008B5024B72
:1048B0001B68DB68019308BD2802030008B5024BA2
:1048C0001B689B69019308BD2802030008B5024BD1
:1048D0001B68DB69019308BD2802030008B5024B81
:1048E0001B681B6A019308BD2802030008B5024B30
:1048F0001B685B6A019308BD2802030008B5024BE0
:104900001B689B6A019308BD2802030008B5024B8F
:104910001B68DB6A019308BD2802030008B5024B3F
:104920001B681B6B019308BD2802030008B5024BEE
:104930001B685B6B019308BD2802030008B5024B9E
:104940001B681B6C019308BD2802030008B5024BCD
:104950001B681B6D019308BD2802030008B5024BBC
:104960001B685B69019308BD6402030008B5024B34
:104970001B689B68019308BD6802030008B5024BE1
:104980001B68DB68019308BD6802030008B5024B91
:104990001B68DB69019308BD3002030008B5024BB8
:1049A0001B681B6A019308BD3002030008B5024B67
:1049B0001B681B68019308BD3C02030008B5024B4D
:1049C0001B68DB68019308BD3C02030008B5024B7D
:1049D0001B681B69019308BD3C02030008B5024B2C
:1049E0001B685B69019308BD3C02030008B5024BDC
:1049F0001B689B69019308BD3C02030008B5024B8C
:104A00001B68DB69019308BD3C02030008B5024B3B
:104A10001B681B6A019308BD3C02030008B5024BEA
:104A20001B689B6A019308BD3C02030008B5024B5A
:104A30001B681B68019308BD4C02030008B5024BBC
:104A40001B685B68019308BD4C02030008B5024B6C
:104A50001B681B69019308BD4C02030008B5024B9B
:104A60001B685B69019308BD4C02030008B5024B4B
:104A70001B689B69019308BD4C02030008B5024BFB
:104A80001B68DB69019308BD4C02030008B5024BAB
:104A90001B681B6A019308BD4C02030008B5024B5A
:104AA0001B685B68019308BD2002030008B5024B38
:104AB0001B685B69019308BD2002030008B5034B26
:104AC0001B68D3F88830019308BD00002002030062
:104AD00008B5034B1B68D3F89430019308BD000060
:104AE0002002030008B5024B1B685B68019308BDF8
:104AF0004402030008B5024B1B68DB68019308BD44
:104B00004402030008B5024B1B685B69019308BDB2
:104B10004402030008B5024B1B68DB6B019308BD20
:104B20004402030008B5024B1B685B68019308BD93
:104B30004002030008B5024B1B689B68019308BD47
:104B40004002030008B5024B1B68DB68019308BDF7
:104B50004002030008B5024B1B681B69019308BDA6
:104B60004002030008B5024B1B685B69019308BD56
:104B70004002030008B5024B1B689B69019308BD06
:104B80004002030008B5024B1B68DB69019308BDB6
:104B90004002030008B5024B1B681B6A019308BD65
:104BA0004002030008B5024B1B681B6B019308BD54
:104BB0004002030008B5024B1B685B6B019308BD04
:104BC0004002030008B5024B1B681B68019308BD37
:104BD0001C02030008B5024B1B685B68019308BD0B
:104BE0001C02030008B5024B1B689B68019308BDBB
:104BF0001C0203000021FFF759BF10B504460068EE
:104C000008B1FFF713FE204610BD000010B5064C9A
:104C1000002320462360FFF701FE2046034A044993
:104C2000BDE8104000F0FABFCCE30320B8E3032056
:104C3000FB4B0D0010B58368044613B103220146F7
:104C40009847204610BD10B588B00446684600F06D
:104C5000BBFC694604A800F0D9FC04A8A0470446A0
:104C600004A800F06AFC684600F067FC204608B023
:104C700010BDF0B5102485B007460E46154600213C
:104C80002246684601F04DFE002269461046ADF806
:104C90000040029703960195FFF724FF05B0F0BD91
:104CA000002211464068FFF775BF00221146406898
:104CB000FFF780BF00224068FFF774BF002281F039
:104CC00001014068FFF75EBF00231A46194640689D
:104CD000FFF750BF00231A4619464068FFF742BF4E
:104CE000002211464068FFF735BF00221146406898
:104CF000FFF720BF002202214068FFF723BF0023F7
:104D00001A464068FFF70EBF024B03225A60024A60
:104D10001A607047D0E30320F86B0D007047F8B5B8
:104D2000064615460C468F18BC4206D0336814F868
:104D3000011B9B6830469847F6E72846F8BD0022DD
:104D4000007CFFF7CBBD0021007CFFF7CFBD002129
:104D5000007CFFF7D3BD0021007CFFF7D7BD002109
:104D6000007CFFF7DBBD10B51421044600F05BFFAB
:104D7000204610BD10B50446002363604FF47A73DB
:104D8000A360044B2174084623601146FFF7D6FD4B
:104D9000204610BD2C6C0D000022007CFFF77EBD6C
:104DA00000231A461946007CFFF780BD70B50C46FB
:104DB00086B0142506462A46002101A801F0B1FD5F
:104DC00023788DF8083063680393E3680493002226
:104DD000237A307CADF8045001A90593FFF7B6FDA6
:104DE00006B070BD1FB500338DF800104FF06401A0
:104DF000039118BF0123694601928DF80830FFF72F
:104E0000D5FF05B05DF804FB0123FFF7EBBF0022DF
:104E1000007CFFF753BDC9B2FFF7F9BF0022007C49
:104E2000FFF754BD0121FFF7F9BF0021007CFFF718
:104E30007DBD704710B51821044600F0F4FE2046F1
:104E400010BDF0B5037D062B8DB00E4600F10407B2
:104E50004FF0000402D000F1080518E00CAD39460F
:104E600005F8304D2F232A460A20FFF777FD284604
:104E700001F092FD33680246DB68294630469847C8
:104E80000FE024B12E21304600F0DAF9044415F881
:104E9000011D0A22304600F0F0F9BD420444F0D171
:104EA00020460DB0F0BD000010B5054B04461122A0
:104EB00040F8043B002101F034FD204610BD00BF46
:104EC000546C0D000346074A10B543F8042B01F15A
:104ED000100251F8044B43F8044B9142F9D10A787F
:104EE0001A7010BD546C0D0010B59DF8084044EACE
:104EF000032343EA024242EA01610423416003754D
:104F000010BD37B50D788B784A78C978009129465D
:104F1000FFF7EAFF03B030BD014B024A1A60704749
:104F2000D8E30320D36C0D00002211464068FFF740
:104F300031BE002211464068FFF73CBE00224068A7
:104F4000FFF730BE002281F001014068FFF71ABE72
:104F500000231A4601214068FFF70CBE00231A46C1
:104F600019464068FFF7FEBD002211464068FFF772
:104F7000F1BD002211464068FFF7DCBD002202218E
:104F80004068FFF7DFBD00231A464068FFF7CABD3F
:104F900038B5054688B104684CB1A3681BB103223B
:104FA0002146204698471021204600F03CFE284626
:104FB0001421BDE8384000F036BE38BD10B103689A
:104FC0005B681847704710B503680446BBB1586862
:104FD000FFF70CFC78B923685A7C12B95868FFF7C0
:104FE0000DFC23685868FFF711FC2068002323603C
:104FF00028B1FFF7CDFF206808B1FFF7C9FF2046B1
:1050000010BD38B50446D0F8C40108B1FFF747F821
:10501000D4F8C00108B1FFF709FCD4F8BC5135B190
:105020002846FFF7D0FF0421284600F0FCFD206849
:1050300008B1FFF7C3FF204638BD000010B5044B90
:10504000044640F8083BFFF7DCFF204610BD00BFD8
:10505000486D0D0038B50E4C0E4B23600025022321
:1050600004F5E4706360A560C4F8C451C4F8C85185
:10507000FFF7D4FB084BC4F8CC5184F8D05123601F
:105080002046064A0649BDE8384000F0C7BD00BFCB
:10509000DCE303207C6D0D00486D0D00B8E30320B8
:1050A0003D500D0000231A464068FFF73BBD00222B
:1050B00002214068FFF746BD002211464068FFF715
:1050C00039BD002211464068FFF744BD00231A464F
:1050D00019464068FFF746BD00231A461946406846
:1050E000FFF748BD002281F001014068FFF74ABD8B
:1050F00000224068FFF756BD002211464068FFF7C6
:1051000059BD002211464068FFF744BD2DE9F04328
:10511000002495B016460D460746FFF7C5FE21460A
:1051200020220CA8009401F0FCFB40230C932146A4
:105130006B460CAA3046FFF721FC0446002844D1F8
:10514000024601216868FFF705FD022180462246DC
:105150006868FFF7FFFC009E81462146002E34D090
:10516000002932D17368022B02D00A2B09D02AE021
:10517000B8F1000F27D0716938460431FFF7C1FE3E
:1051800020E0B9F1000F1ED07469112201A801F0CE
:10519000C8FB06238DF8143001AD04F10803183460
:1051A000186859682A4603C20833A3421546F7D146
:1051B00001A906A807ADFFF785FE0FCD3C1D0FC462
:1051C0002B6823700121F669C8E70098FFF7CEFB32
:1051D000384615B0BDE8F083024B034A1A6000223E
:1051E0005A607047B0E503207C6D0D00F8B50646A7
:1051F0000D468F180024BD420CD0336815F8011BF2
:105200009B6830469847002801DB0444F3E7002CF4
:1052100008BF04462046F8BD70B505460C46084652
:1052200049B101F0B9FB2B68024621462846DB68EC
:10523000BDE87040184770BD08B5FFF7EDFF08BD29
:1052400003689B68184708B5FFF7E6FF08BD38B547
:105250000D210546FFF7F4FF0A2104462846FFF713
:10526000EFFF204438BD38B50546FFF7D5FF0446AB
:105270002846FFF7ECFF204438BD30B58BB00B4615
:1052800000218DF82410012A98BF0A220DF1230471
:10529000B3FBF2F505FB123303F0FF03092B94BFB8
:1052A00030333733DBB2214604F801392B46002D69
:1052B000EED1FFF7B1FF0BB030BD00002DE9F04794
:1052C00057EC106B82460D4610EE102A3B4610EE4E
:1052D000100A394601F05EFA08B14E4912E027F093
:1052E00000494FF0FF324C4B3046494601F052FA2C
:1052F00068B94FF0FF32484B3046494601F02CFA6E
:1053000028B946495046FFF787FFBDE8F0874FF0C0
:105310006042434B3046394601F032FA08B1414908
:10532000F0E74FF06042404B3046394601F00AFA50
:105330000028F4D1002200233046394601F002FA59
:1053400040B12D215046FFF77BFF07F10043044693
:105350001F4600E0044635494FF0000800205FFA80
:1053600088F39D4206D90022314B01F0A3F808F1E1
:105370000108F4E732463B4600F0C0FD0F46064602
:1053800001F046FA0A22014680465046FFF775FFB3
:105390000444E5B3404600F0EDFE02460B463046BD
:1053A000394600F0A9FD06460F4650462149FFF751
:1053B00033FF044400221E4B3046394600F050FFB4
:1053C00006460F4601F0FCF9B0F1000907DA2D217D
:1053D0005046FFF735FFC9F10001804602E049461B
:1053E0004FF000080A225046FFF747FF40440444AC
:1053F000484600F0CFFE02460B463046394600F0E4
:105400007BFD013D15F0FF0506460F46D2D1204633
:10541000BDE8F087A86D0D00FFFFEF7FB26D0D00B6
:10542000FFFFEF41AC6D0D00FFFFEFC10000E03F5B
:1054300000002440B06D0D0038B5044610EE100A8F
:10544000CDB200F0B9FE41EC100B29462046BDE874
:105450003840FFF733BF38B5C9B20546FFF72EFF16
:1054600004462846FFF7F3FE204438BD38B504460D
:1054700010EE100A0D4600F09FFE41EC100B29467D
:105480002046BDE83840FFF7E6BF10B50446FFF7F9
:10549000D1FB204610BD00000348044A0449002304
:1054A000836000F0BBBB00BFB8E50320B8E3032076
:1054B0008B540D00704710B50C21044600F0B3FB6F
:1054C000204610BD10B5054B036004460171084627
:1054D000FFF75CFA0023A360204610BDC06D0D00ED
:1054E0000079FFF75BBA10B50446FFF7AFF9E0604B
:1054F000236820465B699847002808DAFFF7A6F979
:10550000E368C01AA3689842F2D34FF0FF3010BD91
:105510002DE9F04180460D468F180C46BC42A4EBA5
:10552000050607D04046FFF7DEFF002802DB04F83F
:10553000010BF3E73046BDE8F08110B50446006882
:10554000FFF748FB204610BD10B50446006808B1BF
:10555000FFF740FB00232360A360636010BD38B5F4
:1055600004460D4600680131FFF73CFB10B184E8AA
:105570002100012038BD10B50368044613B143680B
:105580008B4207D22046FFF7EAFF20B1A3680BB990
:1055900022681370012010BD70B50E4611460446F6
:1055A0001546FFF7E8FF18B92046FFF7CDFF09E0E1
:1055B0002A463146A560206801F0A8F92268A36850
:1055C0000021D154204670BD38B500230446036045
:1055D0004360836003730D4639B1084601F0DCF97E
:1055E000294602462046FFF7D7FF204638BD8842AD
:1055F00010B50B46044607D0096819B19A68FFF741
:10560000CBFF01E0FFF7A0FF204610BD10B500233F
:1056100004460360436083600373FFF7E8FF20469E
:1056200010BD08B582680B4612B919B9012008BD32
:1056300011B90368187802E0006801F0A3F9B0FA24
:1056400080F0400908BD10B5144683688A689B1A2B
:10565000A3420AD3006858B1096841B1204401F05F
:10566000A3F9B0FA80F0400910BD002010BD084633
:1056700010BD82688B689A4202D30022FFF7E3BF15
:105680000020704783688B4203D9006810B1405CEA
:10569000704700207047FFF7F5BF0000F8B59A4249
:1056A0000F461D460C4988BF13461446064684BF64
:1056B0002C461D46FFF788FFBA6894420AD839681D
:1056C000954294BFC4EB0502C4EB0202214430466C
:1056D000FFF762FF3046F8BD076D0D0010B5094CAD
:1056E00000204FF6FF732060A080A07120816381AD
:1056F000FFF7D4F92046044A0449BDE8104000F001
:105700008DBA00BFC8E50320B8E3032079410D003E
:10571000024B1A68024B1A60704700BF50E3032027
:10572000D4E5032070474174704708B5007CFFF74B
:1057300075F920EAE07008BD08B5007CFFF746F96E
:1057400020EAE07008BD08B5007CFFF74FF930EAA9
:10575000200028BF4FF0FF3008BD08B5007CFFF7E0
:105760003DF930EA200028BF4FF0FF3008BD007C33
:10577000FFF744B910B51421044600F054FA20464E
:1057800010BD70B5457C04460E4625B9007CFFF778
:1057900045F9002805DD3146207CBDE87040FFF763
:1057A0000DB9284670BD000010B5044608461146E4
:1057B000002262604FF47A72A260054A22600122E0
:1057C000207462741A46FFF7F1F8204610BD00BF3E
:1057D000FC6D0D00007CFFF719B9000038B50C4DC9
:1057E000296811F0010411D12846FEF75AFC68B16E
:1057F000084A094B09482146FFF7D6FF2846FEF71D
:1058000055FC074A0749054800F008FA034838BD27
:1058100070E6032074E60320ECE50320D8E50320BE
:10582000B8E3032025570D0041747047704708B551
:105830000021007CFFF71AF930EA200028BF4FF062
:10584000FF3008BD08B50121007CFFF70FF930EAF1
:10585000200028BF4FF0FF3008BD08B5007CFFF7DF
:10586000FDF820EAE07008BD08B5007CFFF7EEF80F
:1058700020EAE07008BD007CFFF708B910B51421DC
:10588000044600F0D0F9204610BD38B50446007C2F
:105890000D46FFF7E3F8002801DC607C28B12946BB
:1058A000207CFFF7EBF820EAE07038BD10B5044625
:1058B000002363604FF47A73A360054B23600123D8
:1058C0000846217463741146FFF7B0F8204610BDF6
:1058D0002C6E0D000022007CFFF7B0B810B514222A
:1058E0000446002101F01DF8204610BD30B50E4DD4
:1058F00087B001A8FFF7F2FF296811F0010410D169
:105900002846FEF7CEFB60B101AA21460748FFF703
:10591000CDFF2846FEF7CAFB054A0649034800F0BA
:105920007DF9024807B030BDF8E60320FCE603200D
:10593000B8E303202D580D00002211464068FFF700
:1059400009B9002211464068FFF724B90022114628
:105950004068FFF72FB900224068FFF723B9002203
:1059600081F001014068FFF70DB900231A4619467E
:105970004068FFF7FFB800231A4619464068FFF752
:10598000F1B8002211464068FFF7D4B80022022186
:105990004068FFF7D7B800231A464068FFF7C2B83F
:1059A000024B04225A60024A1A60704710E7032033
:1059B0005C6E0D0008B50C4B33B1FFF797FF036821
:1059C0001B699847002809DC084B63B1FFF706FF05
:1059D00003681B699847002803DC08BDAFF300800B
:1059E000F2E7AFF3008008BD0000000000000000F7
:1059F00008B5FFF7DFFFFEF729FF014B186008BD70
:105A000020E703200248034A0349121A00F07EBF30
:105A100000F4032004F40320306F0D0007B50023C9
:105A200000931A466FF07701FFF752F803B05DF864
:105A300004FB000007B543880A2B08D0502B09D17E
:105A4000094B1B683BB103B05DF804EB1847FFF747
:105A5000E5FF06E0002300931A466FF07701FFF799
:105A600037F803B05DF804FB18E7032038B5104C95
:105A7000104D2368AB42104B0CBF012200221A705C
:105A800002D0FFF7BFFF2560FEF7D8FE044600F006
:105A900051FF0A4B13B12046AFF3008000210748A5
:105AA000FFF738F800210648BDE83840FFF706B890
:105AB00000F403201E1C279A1CE7032000000000AE
:105AC000355A0D0010B5044600F088F8FFF708FDC0
:105AD00028B1A4F10B03022B01D8002010BD00F067
:105AE00057F8FFF7A2F908B1012CF6D9FFF776FEB7
:105AF000FFF770FE18B1A4F10903012BEDD9232C97
:105B00008CBF0020012010BD232838B504460D4667
:105B10000AD8FF2908D0FFF7D5FF28B1294620462B
:105B2000BDE83840FEF7A2BE38BD38B504460D4684
:105B3000FEF7A4FEFF2810D0062804D84D2323FA30
:105B400000F0C30709D42046FFF7BCFF28B129465F
:105B50002046BDE83840FEF799BE38BD70B5044612
:105B600014252A46094E002100F0DBFE2580202561
:105B70003146A5602561284600F06FF83146606027
:105B8000284600F06AF8E060204670BD886E0D007F
:105B900030B50E4D296811F0010487B013D12846A5
:105BA000FEF77FFA78B101A8FFF7D8FF01AA2146D6
:105BB0000748FFF7DFF82846FEF778FA054A064956
:105BC000034800F02BF8024807B030BD24E703205B
:105BD00028E70320B8E303201D4D0D0038B50B4D19
:105BE000296811F001040FD12846FEF75AFA58B17E
:105BF00021460748FFF766FC2846FEF757FA054A94
:105C00000549034800F00AF8014838BD48E7032079
:105C10003CE70320B8E30320B5540D000B460146D2
:105C2000184600F065BEFEF738BA0000024B18684F
:105C3000BFF35F8F704700BF4CE7032010B500280B
:105C400014BF044601242046FEF7BCFF20B9FFF72D
:105C5000EDFF08B18047F6E710BDFFF7EFBF00008A
:105C6000244B1A68D0075CBF01221A60224B1A68C5
:105C7000D1075CBF01221A60204B1A68D2075CBFB3
:105C800001221A601E4B1A68D0075CBF01221A60FD
:105C90001C4B1A68D1075CBF01221A601A4B1A68A4
:105CA000D2075CBF01221A60184B1A68D0075CBF8C
:105CB00001221A60164B1A68D1075CBF01221A60D4
:105CC000144B1A68D2075CBF01221A60124B1A6883
:105CD000D0075CBF01221A60104B1A68D1075CBF65
:105CE00001221A600E4B1A68D2075CBF01221A60AB
:105CF000704700BF7CE7032078E7032074E70320A8
:105D000070E703206CE7032068E7032064E70320C3
:105D100060E703205CE7032058E7032054E70320F3
:105D200050E70320184B1A68D1075CBF01221A60A4
:105D3000164B1A68D2075CBF01221A60144B1A680E
:105D4000D0075CBF01221A60124B1A68D1075CBFF2
:105D500001221A60104B1A68D2075CBF01221A6038
:105D60000E4B1A68D0075CBF01221A600C4B1A68F0
:105D7000D1075CBF01221A600A4B1A68D2075CBFC8
:105D800001221A60704700BF9CE7032098E70320B8
:105D900094E7032090E703208CE7032088E70320A3
:105DA00084E7032080E70320184B1A68D1075CBF03
:105DB00001221A60164B1A68D2075CBF01221A60D2
:105DC000144B1A68D0075CBF01221A60124B1A6884
:105DD000D1075CBF01221A60104B1A68D2075CBF62
:105DE00001221A600E4B1A68D0075CBF01221A60AC
:105DF0000C4B1A68D1075CBF01221A600A4B1A6863
:105E0000D2075CBF01221A60704700BFBCE70320C5
:105E1000B8E70320B4E70320B0E70320ACE7032092
:105E2000A8E70320A4E70320A0E70320244B1A6877
:105E3000D0075CBF01221A60224B1A68D1075CBFF1
:105E400001221A60204B1A68D2075CBF01221A6037
:105E50001E4B1A68D0075CBF01221A601C4B1A68DF
:105E6000D1075CBF01221A601A4B1A68D2075CBFC7
:105E700001221A60184B1A68D0075CBF01221A6011
:105E8000164B1A68D1075CBF01221A60144B1A68BE
:105E9000D2075CBF01221A60124B1A68D0075CBFA0
:105EA00001221A60104B1A68D1075CBF01221A60E8
:105EB0000E4B1A68D2075CBF01221A60704700BF00
:105EC000ECE70320E8E70320E4E70320E0E7032012
:105ED000DCE70320D8E70320D4E70320D0E7032042
:105EE000CCE70320C8E70320C4E70320C0E7032072
:105EF00081F0004102E000BF83F0004330B54FEA7B
:105F000041044FEA430594EA050F08BF90EA020FE7
:105F10001FBF54EA000C55EA020C7FEA645C7FEA7A
:105F2000655C00F0E2804FEA5454D4EB5555B8BF9D
:105F30006D420CDD2C4480EA020281EA030382EA0E
:105F4000000083EA010180EA020281EA0303362DA0
:105F500088BF30BD11F0004F4FEA01314FF4801C73
:105F60004CEA113102D0404261EB410113F0004F85
:105F70004FEA03334CEA133302D0524263EB43033C
:105F800094EA050F00F0A780A4F10104D5F1200EDA
:105F90000DDB02FA0EFC22FA05F2801841F1000135
:105FA00003FA0EF2801843FA05F359410EE0A5F109
:105FB00020050EF1200E012A03FA0EFC28BF4CF03A
:105FC000020C43FA05F3C01851EBE37101F00045F0
:105FD00007D54FF0000EDCF1000C7EEB00006EEBFD
:105FE0000101B1F5801F1BD3B1F5001F0CD3490887
:105FF0005FEA30004FEA3C0C04F101044FEA4452DE
:1060000012F5800F80F09A80BCF1004F08BF5FEA64
:10601000500C50F1000041EB045141EA050130BD44
:106020005FEA4C0C404141EB010111F4801FA4F1E7
:106030000104E9D191F0000F04BF01460020B1FA3C
:1060400081F308BF2033A3F10B03B3F120020CDA74
:106050000C3208DD02F1140CC2F10C0201FA0CF052
:1060600021FA02F10CE002F11402D8BFC2F1200CB7
:1060700001FA02F120FA0CFCDCBF41EA0C0190406D
:10608000E41AA2BF01EB0451294330BD6FEA0404B6
:106090001F3C1CDA0C340EDC04F11404C4F12002A1
:1060A00020FA04F001FA02F340EA030021FA04F3B3
:1060B00045EA030130BDC4F10C04C4F1200220FA0A
:1060C00002F001FA04F340EA0300294630BD21FA48
:1060D00004F0294630BD94F0000F83F4801306BF0E
:1060E00081F480110134013D4EE77FEA645C18BF02
:1060F0007FEA655C29D094EA050F08BF90EA020F99
:1061000005D054EA000C04BF1946104630BD91EA90
:10611000030F1EBF0021002030BD5FEA545C05D193
:106120004000494128BF41F0004130BD14F58004D2
:106130003CBF01F5801130BD01F0004545F0FE4146
:1061400041F470014FF0000030BD7FEA645C1ABF7B
:10615000194610467FEA655C1CBF0B46024650EAB2
:10616000013406BF52EA033591EA030F41F40021DE
:1061700030BD00BF90F0000F04BF0021704730B564
:106180004FF4806404F132044FF000054FF0000139
:1061900050E700BF90F0000F04BF0021704730B5FA
:1061A0004FF4806404F1320410F0004548BF4042CF
:1061B0004FF000013EE700BF42004FEAE2014FEA24
:1061C00031014FEA02701FBF12F07F4393F07F4FFF
:1061D00081F06051704792F0000F14BF93F07F4F31
:1061E000704730B54FF4607401F0004521F0004174
:1061F00020E700BF50EA010208BF704730B54FF0FA
:1062000000050AE050EA010208BF704730B511F0FE
:10621000004502D5404261EB41014FF4806404F136
:1062200032045FEA915C3FF4DCAE4FF003025FEAB8
:10623000DC0C18BF03325FEADC0C18BF033202EB40
:10624000DC02C2F1200300FA03FC20FA02F001FA9A
:1062500003FE40EA0E0021FA02F11444C1E600BF39
:1062600070B54FF0FF0C4CF4E06C1CEA11541DBFEC
:106270001CEA135594EA0C0F95EA0C0F00F0DEF8B7
:106280002C4481EA030621EA4C5123EA4C5350EA9C
:10629000013518BF52EA033541F4801143F48013ED
:1062A00038D0A0FB02CE4FF00005E1FB02E506F07E
:1062B0000042E0FB03E54FF00006E1FB03569CF0D3
:1062C000000F18BF4EF0010EA4F1FF04B6F5007FD9
:1062D00064F5407404D25FEA4E0E6D4146EB06064B
:1062E00042EAC62141EA55514FEAC52040EA5E50D4
:1062F0004FEACE2EB4F1FD0C88BFBCF5E06F1ED87E
:10630000BEF1004F08BF5FEA500E50F1000041EBB4
:10631000045170BD06F0004646EA010140EA020061
:1063200081EA0301B4EB5C04C2BFD4EB0C0541EA83
:10633000045170BD41F480114FF0000E013C00F398
:10634000AB8014F1360FDEBF002001F0004170BDBC
:10635000C4F10004203C35DA0C341BDC04F11404D5
:10636000C4F1200500FA05F320FA04F001FA05F261
:1063700040EA020001F0004221F0004110EBD3702E
:1063800021FA04F642EB06015EEA430E08BF20EA5A
:10639000D37070BDC4F10C04C4F1200500FA04F3FD
:1063A00020FA05F001FA04F240EA020001F000418F
:1063B00010EBD37041F100015EEA430E08BF20EA02
:1063C000D37070BDC4F1200500FA05F24EEA020E4A
:1063D00020FA04F301FA05F243EA020321FA04F079
:1063E00001F0004121FA04F220EA020000EBD37030
:1063F0005EEA430E08BF20EAD37070BD94F0000F30
:106400000FD101F00046400041EB010111F4801F63
:1064100008BF013CF7D041EA060195F0000F18BF14
:10642000704703F00046520043EB030313F4801F50
:1064300008BF013DF7D043EA0603704794EA0C0F0A
:106440000CEA135518BF95EA0C0F0CD050EA410620
:1064500018BF52EA4306D1D181EA030101F000419D
:106460004FF0000070BD50EA410606BF10461946C5
:1064700052EA430619D094EA0C0F02D150EA0136D1
:1064800013D195EA0C0F05D152EA03361CBF104612
:1064900019460AD181EA030101F0004141F0FE41B1
:1064A00041F470014FF0000070BD41F0FE4141F435
:1064B000780170BD70B54FF0FF0C4CF4E06C1CEA35
:1064C00011541DBF1CEA135594EA0C0F95EA0C0FEA
:1064D00000F0A7F8A4EB050481EA030E52EA0335A5
:1064E0004FEA013100F088804FEA03334FF08055C6
:1064F00045EA131343EA12634FEA022245EA1115F3
:1065000045EA10654FEA00260EF000419D4208BFA3
:10651000964244F1FD0404F5407402D25B084FEA50
:106520003202B61A65EB03055B084FEA32024FF4FC
:1065300080104FF4002CB6EB020E75EB030E22BF59
:10654000B61A754640EA0C005B084FEA3202B6EB19
:10655000020E75EB030E22BFB61A754640EA5C00C8
:106560005B084FEA3202B6EB020E75EB030E22BF58
:10657000B61A754640EA9C005B084FEA3202B6EB59
:10658000020E75EB030E22BFB61A754640EADC0018
:1065900055EA060E18D04FEA051545EA16754FEA7A
:1065A00006164FEAC30343EA52734FEAC2025FEA98
:1065B0001C1CC0D111F4801F0BD141EA00014FF027
:1065C00000004FF0004CB6E711F4801F04BF0143F8
:1065D0000020B4F1FD0C88BFBCF5E06F3FF6AFAE14
:1065E000B5EB030C04BFB6EB020C5FEA500C50F1A4
:1065F000000041EB045170BD0EF0004E4EEA113127
:1066000014EB5C04C2BFD4EB0C0541EA045170BD2D
:1066100041F480114FF0000E013C90E645EA060E71
:106620008DE60CEA135594EA0C0F08BF95EA0C0F9F
:106630003FF43BAF94EA0C0F0AD150EA01347FF4E7
:1066400034AF95EA0C0F7FF425AF104619462CE7BE
:1066500095EA0C0F06D152EA03353FF4FDAE104621
:10666000194622E750EA410618BF52EA43067FF472
:10667000C5AE50EA41047FF40DAF52EA43057FF402
:10668000EBAE12E74FF0FF3C06E000BF4FF0010C0D
:1066900002E000BF4FF0010C4DF804CD4FEA410C71
:1066A0007FEA6C5C4FEA430C18BF7FEA6C5C1BD03E
:1066B00001B050EA410C0CBF52EA430C91EA030FBF
:1066C00002BF90EA020F0020704710F1000F91EA1C
:1066D000030F58BF994208BF90422CBFD8176FEAEA
:1066E000E37040F0010070474FEA410C7FEA6C5CB8
:1066F00002D150EA013C07D14FEA430C7FEA6C5CBF
:10670000D6D152EA033CD3D05DF8040B704700BFEA
:106710008446104662468C461946634600E000BF38
:1067200001B5FFF7B7FF002848BF10F1000F01BD0A
:106730004DF808EDFFF7F4FF0CBF012000205DF8D5
:1067400008FB00BF4DF808EDFFF7EAFF34BF01205A
:1067500000205DF808FB00BF4DF808EDFFF7E0FFF3
:1067600094BF012000205DF808FB00BF4DF808ED44
:10677000FFF7CEFF94BF012000205DF808FB00BFAB
:106780004DF808EDFFF7C4FF34BF012000205DF88D
:1067900008FB00BF4FEA410C7FEA6C5C02D150EA73
:1067A000013C0AD14FEA430C7FEA6C5C02D152EA09
:1067B000033C02D14FF0000070474FF001007047DA
:1067C0004FEA410212F5001215D211D56FF4787319
:1067D000B3EB625212D94FEAC12343F0004343EABC
:1067E000505311F0004F23FA02F018BF4042704797
:1067F0004FF00000704750EA013005D111F0004021
:1068000008BF6FF0004070474FF00000704700BFB6
:106810004A0011D212F5001211D20DD56FF478731F
:10682000B3EB62520ED44FEAC12343F0004343EA74
:10683000505323FA02F070474FF00000704750EABF
:10684000013002D14FF0FF3070474FF00000704729
:106850004FEA4102B2F1E04324BFB3F5001CDCF182
:10686000FE5C0DD901F0004C4FEAC0024CEA5070BA
:10687000B2F1004F40EB830008BF20F001007047E9
:1068800011F0804F21D113F13872BCBF01F00040EC
:10689000704741F480114FEA5252C2F11802C2F11E
:1068A000200C10FA0CF320FA02F018BF40F001009F
:1068B0004FEAC1234FEAD32303FA0CFC40EA0C0051
:1068C00023FA02F34FEA4303CCE77FEA625307D18E
:1068D00050EA01331EBF4FF0FE4040F440007047C5
:1068E00001F0004040F0FE4040F40000704700BF5F
:1068F00010B5054C13462CB10A4601460220AFF3F1
:10690000008010BD204610BD0000000010B5431EE1
:106910000A44914204D011F8014B03F8014FF8E703
:1069200010BD02440346934202D003F8011BFAE76C
:106930007047000038B5124B1C68A36B0546D3B9ED
:106940001820FEF73FF943F20E33A06303804AF6A6
:10695000CD33438041F2342383804EF26D63C38094
:106960004DF6EC630381052343810B2383810122D0
:106970000023C0E90423A36B00221D615A6138BDC6
:10698000B4E3032010F8012B11F8013B012A28BFC2
:106990009A42F7D0D01A7047034613F8012B002A09
:1069A000FBD1181A0138704730B582B1451E013944
:1069B00015F8013F11F8014FA34206D1EC431444EE
:1069C000E04201D0002BF3D11C46181B30BD10460D
:1069D00030BD000021400D005D400D0089400D00DC
:1069E0008D400D000000000048494748004C4F57BB
:1069F000004400410073797374656D53746174755C
:106A000073203D200073797374656D5665727369E8
:106A10006F6E203D200043757272656E74203D20BC
:106A2000004C696E65204672657175656E637920EC
:106A30003D2000416E616C6F6720496E7075742057
:106A4000566F6C74616765203D2000506F776572EA
:106A500020466163746F72203D2000416374697643
:106A60006520506F776572203D2000526561637428
:106A700069766520506F776572203D200041707007
:106A80006172656E7420506F776572203D200045FD
:106A900072726F72207768696C65206765747469BB
:106AA0006E672074656D70657261747572650054EF
:106AB000656D70657261747572653A200020646559
:106AC00067726565732028002066616872656E686C
:106AD00065697429006469676974616C77726974A7
:106AE0006500726556616C3A00493243204D43504F
:106AF000333946353231204572726F722100493286
:106B000043206275732053746174757320537563E9
:106B100063657373203D2000427573792074696D3D
:106B2000656F75742075706F6E20656E746572691F
:106B30006E6720656E645472616E736D69737369FC
:106B40006F6E2829203D20005374617274206269A1
:106B5000742067656E65726174696F6E2074696D0B
:106B6000656F7574203D2000656E64206F6620613E
:106B7000646472657373207472616E736D6973738C
:106B8000696F6E2074696D656F7574203D200044D7
:106B90006174612062797465207472616E736665D8
:106BA000722074696D656F7574203D2000446174B6
:106BB000612062797465207472616E7366657220FB
:106BC0007375636365656465642C206275737920F1
:106BD00074696D656F757420696D6D656469617444
:106BE000656C79206166746572203D2000000000AC
:106BF0000000000000000000FF4C0D00F54C0D00EF
:106C0000EB4C0D00E14C0D00D54C0D00C94C0D00B6
:106C1000BD4C0D00B54C0D00AB4C0D00A14C0D0052
:106C20000D510D0000000000000000001D4D0D0082
:106C3000674D0D003F4D0D001F4D0D00474D0D00E0
:106C40004F4D0D00574D0D005F4D0D000000000031
:106C500000000000434E0D00334E0D00354E0D0078
:106C6000626175640053657269616C005365726995
:106C7000616C31007479706500706172616D0063E0
:106C80006D6400696400686E64007374726D006600
:106C9000696C74006C766C0061646448616E646C4D
:106CA00065720072656D6F766548616E646C6572C1
:106CB00000656E756D48616E646C657273004A5351
:106CC0004F4E53747265616D4C6F6748616E646CB2
:106CD00065720061707000253031307520005D20D4
:106CE000002564002C200028293A2000205B006346
:106CF0006F6465203D200025690064657461696CDE
:106D000073203D20000D0A006C6E00666E00636FFC
:106D100064650064657461696C006E6F6E65007413
:106D20007261636500696E666F007761726E0065FF
:106D300072726F720070616E696300616C6C00004A
:106D40000000000000000000874F0D007D4F0D0087
:106D5000734F0D00694F0D005D4F0D00514F0D0039
:106D6000454F0D003D4F0D00334F0D00294F0D00D5
:106D70000D510D000000000000000000A5500D00A6
:106D8000AF500D00B9500D00C3500D00CD500D0097
:106D9000D9500D00E5500D00F1500D00F9500D00D7
:106DA00003510D000D510D006E616E006F7666008F
:106DB0002E00696E66000000000000000000000068
:106DC000B5540D00B7540D005A00252B3033643AEA
:106DD000253032750025592D256D2D256454254803
:106DE0003A254D3A2553257A0061736374696D65C0
:106DF00000000000000000000000000025570D000A
:106E000075570D0083570D00ED510D0039570D00DA
:106E10005B570D0047570D006F570D0027570D00AA
:106E20002B570D0000000000000000002D580D0041
:106E30007D580D008B580D00ED510D0069580D0067
:106E40002F580D0045580D0077580D005B580D0068
:106E500029580D00000000000000000097590D00A7
:106E60008D590D0083590D0039590D0077590D00CA
:106E70006B590D005F590D0057590D004D590D000C
:106E800043590D000D510D000000000000000000EE
:106E900000000000000000000000000000000000F2
:106EA00000000000000000000000000000000000E2
:106EB00000000000000000000000000000000000D2
:106EC00000000000000000000000000000000000C2
:106ED00000000000000000000000000000000000B2
:106EE000000000000000000000000000430000005F
:106EF000A1460D00E9470D000D4C0D00094D0D0098
:106F0000194F0D0055500D00D9510D0099540D0029
:106F1000DD560D0011570D00A1590D00615C0D00EB
:106F2000255D0D00A95D0D002D5E0D000000000027
:046F3000000000005D
:106F3400E96D0D00000000008C6E0D00AC6E0D00BC
:106F4400CC6E0D00000000000000000000000000F6
:106F540000000000EC6E0D000000000000000000C6
:106F6400000000000000000000000000000000001D
:106F7400000000000000000000000000000000000D
:106F840000000000000000000000000000000000FD
:086F94000000000054E303209B
:106F9C00FFFFFFFF00000102030405060708090AB2
:106FAC000B0C0D0E0F101112131415161718191AAD
:086FBC001B1C1D1E1F202800F4
:046FC40078563412B5
:04000003D0004020C9
:00000001FF
